{"contracts/MetagStakepool.sol":{"MetagStakepool":{"abi":[{"inputs":[{"internalType":"address","name":"_stakeToken","type":"address"},{"internalType":"address","name":"_rewardToken","type":"address"}],"stateMutability":"nonpayable","type":"constructor"},{"anonymous":false,"inputs":[{"indexed":true,"internalType":"address","name":"user","type":"address"},{"indexed":false,"internalType":"uint256","name":"amount","type":"uint256"}],"name":"Deposited","type":"event"},{"anonymous":false,"inputs":[{"indexed":true,"internalType":"address","name":"previousOwner","type":"address"},{"indexed":true,"internalType":"address","name":"newOwner","type":"address"}],"name":"OwnershipTransferred","type":"event"},{"anonymous":false,"inputs":[{"indexed":false,"internalType":"address","name":"account","type":"address"}],"name":"Paused","type":"event"},{"anonymous":false,"inputs":[{"indexed":true,"internalType":"address","name":"user","type":"address"},{"indexed":false,"internalType":"uint256","name":"amount","type":"uint256"}],"name":"RewardClaimed","type":"event"},{"anonymous":false,"inputs":[{"indexed":true,"internalType":"address","name":"user","type":"address"},{"indexed":false,"internalType":"uint256","name":"amount","type":"uint256"}],"name":"Staked","type":"event"},{"anonymous":false,"inputs":[{"indexed":true,"internalType":"address","name":"user","type":"address"},{"indexed":false,"internalType":"uint256","name":"amount","type":"uint256"}],"name":"TokenSupplyWithdrawn","type":"event"},{"anonymous":false,"inputs":[{"indexed":false,"internalType":"address","name":"account","type":"address"}],"name":"Unpaused","type":"event"},{"anonymous":false,"inputs":[{"indexed":true,"internalType":"address","name":"user","type":"address"},{"indexed":false,"internalType":"uint256","name":"amount","type":"uint256"}],"name":"Withdrawn","type":"event"},{"inputs":[],"name":"apy","outputs":[{"internalType":"uint256","name":"","type":"uint256"}],"stateMutability":"view","type":"function"},{"inputs":[{"internalType":"address","name":"account","type":"address"}],"name":"balanceOf","outputs":[{"internalType":"uint256","name":"","type":"uint256"}],"stateMutability":"view","type":"function"},{"inputs":[{"internalType":"address","name":"_rewardToken","type":"address"}],"name":"changeRewardToken","outputs":[],"stateMutability":"nonpayable","type":"function"},{"inputs":[],"name":"claimReward","outputs":[],"stateMutability":"nonpayable","type":"function"},{"inputs":[{"internalType":"uint256","name":"_amount","type":"uint256"}],"name":"depositTokens","outputs":[{"internalType":"uint256","name":"","type":"uint256"}],"stateMutability":"nonpayable","type":"function"},{"inputs":[],"name":"getTotalPendingRewards","outputs":[{"internalType":"uint256","name":"","type":"uint256"}],"stateMutability":"view","type":"function"},{"inputs":[],"name":"getUserList","outputs":[{"internalType":"address[]","name":"","type":"address[]"}],"stateMutability":"view","type":"function"},{"inputs":[],"name":"owner","outputs":[{"internalType":"address","name":"","type":"address"}],"stateMutability":"view","type":"function"},{"inputs":[],"name":"pause","outputs":[],"stateMutability":"nonpayable","type":"function"},{"inputs":[],"name":"paused","outputs":[{"internalType":"bool","name":"","type":"bool"}],"stateMutability":"view","type":"function"},{"inputs":[{"internalType":"address","name":"account","type":"address"}],"name":"pendingRewardsOf","outputs":[{"internalType":"uint256","name":"","type":"uint256"}],"stateMutability":"view","type":"function"},{"inputs":[],"name":"renounceOwnership","outputs":[],"stateMutability":"nonpayable","type":"function"},{"inputs":[{"internalType":"uint256","name":"_apy","type":"uint256"}],"name":"resetApy","outputs":[],"stateMutability":"nonpayable","type":"function"},{"inputs":[],"name":"returnRewardTokens","outputs":[],"stateMutability":"nonpayable","type":"function"},{"inputs":[],"name":"rewardToken","outputs":[{"internalType":"contract IERC20","name":"","type":"address"}],"stateMutability":"view","type":"function"},{"inputs":[{"internalType":"address","name":"account","type":"address"}],"name":"rewardsOf","outputs":[{"internalType":"uint256","name":"","type":"uint256"}],"stateMutability":"view","type":"function"},{"inputs":[{"internalType":"bool","name":"_flag","type":"bool"}],"name":"setDisableStake","outputs":[],"stateMutability":"nonpayable","type":"function"},{"inputs":[{"internalType":"bool","name":"_flag","type":"bool"}],"name":"setDisableWithdraw","outputs":[],"stateMutability":"nonpayable","type":"function"},{"inputs":[{"internalType":"uint256","name":"_amount","type":"uint256"}],"name":"stake","outputs":[],"stateMutability":"nonpayable","type":"function"},{"inputs":[],"name":"stakeOn","outputs":[{"internalType":"bool","name":"","type":"bool"}],"stateMutability":"view","type":"function"},{"inputs":[],"name":"stakeToken","outputs":[{"internalType":"contract IERC20","name":"","type":"address"}],"stateMutability":"view","type":"function"},{"inputs":[{"internalType":"address","name":"account","type":"address"}],"name":"stakingTimeOf","outputs":[{"internalType":"uint256","name":"","type":"uint256"}],"stateMutability":"view","type":"function"},{"inputs":[],"name":"tokenSupply","outputs":[{"internalType":"uint256","name":"","type":"uint256"}],"stateMutability":"view","type":"function"},{"inputs":[],"name":"totalStaked","outputs":[{"internalType":"uint256","name":"","type":"uint256"}],"stateMutability":"view","type":"function"},{"inputs":[{"internalType":"address","name":"newOwner","type":"address"}],"name":"transferOwnership","outputs":[],"stateMutability":"nonpayable","type":"function"},{"inputs":[],"name":"unpause","outputs":[],"stateMutability":"nonpayable","type":"function"},{"inputs":[{"internalType":"uint256","name":"","type":"uint256"}],"name":"userAdresses","outputs":[{"internalType":"address","name":"","type":"address"}],"stateMutability":"view","type":"function"},{"inputs":[{"internalType":"address","name":"","type":"address"}],"name":"users","outputs":[{"internalType":"uint256","name":"stakeBalance","type":"uint256"},{"internalType":"uint256","name":"rewards","type":"uint256"},{"internalType":"uint256","name":"stakingTime","type":"uint256"}],"stateMutability":"view","type":"function"},{"inputs":[{"internalType":"uint256","name":"_amount","type":"uint256"}],"name":"withdraw","outputs":[],"stateMutability":"nonpayable","type":"function"},{"inputs":[],"name":"withdrawAll","outputs":[],"stateMutability":"nonpayable","type":"function"},{"inputs":[],"name":"withdrawOn","outputs":[{"internalType":"bool","name":"","type":"bool"}],"stateMutability":"view","type":"function"}],"evm":{"bytecode":{"linkReferences":{},"object":"60806040523480156200001157600080fd5b50604051620031e7380380620031e783398181016040528101906200003791906200037f565b60016000819055506200005f620000536200024760201b60201c565b6200024f60201b60201c565b6000600160146101000a81548160ff02191690831515021790555081600073ffffffffffffffffffffffffffffffffffffffff168173ffffffffffffffffffffffffffffffffffffffff161415620000ee576040517f08c379a0000000000000000000000000000000000000000000000000000000008152600401620000e59062000427565b60405180910390fd5b81600073ffffffffffffffffffffffffffffffffffffffff168173ffffffffffffffffffffffffffffffffffffffff16141562000162576040517f08c379a0000000000000000000000000000000000000000000000000000000008152600401620001599062000427565b60405180910390fd5b83600260006101000a81548173ffffffffffffffffffffffffffffffffffffffff021916908373ffffffffffffffffffffffffffffffffffffffff16021790555082600360006101000a81548173ffffffffffffffffffffffffffffffffffffffff021916908373ffffffffffffffffffffffffffffffffffffffff16021790555060116004819055506001600760006101000a81548160ff0219169083151502179055506001600760016101000a81548160ff0219169083151502179055506001600760026101000a81548160ff0219169083151502179055505050505062000449565b600033905090565b6000600160009054906101000a900473ffffffffffffffffffffffffffffffffffffffff16905081600160006101000a81548173ffffffffffffffffffffffffffffffffffffffff021916908373ffffffffffffffffffffffffffffffffffffffff1602179055508173ffffffffffffffffffffffffffffffffffffffff168173ffffffffffffffffffffffffffffffffffffffff167f8be0079c531659141344cd1fd0a4f28419497f9722a3daafe3b4186f6b6457e060405160405180910390a35050565b600080fd5b600073ffffffffffffffffffffffffffffffffffffffff82169050919050565b600062000347826200031a565b9050919050565b62000359816200033a565b81146200036557600080fd5b50565b60008151905062000379816200034e565b92915050565b6000806040838503121562000399576200039862000315565b5b6000620003a98582860162000368565b9250506020620003bc8582860162000368565b9150509250929050565b600082825260208201905092915050565b7f496e76616c696420616464726573730000000000000000000000000000000000600082015250565b60006200040f600f83620003c6565b91506200041c82620003d7565b602082019050919050565b60006020820190508181036000830152620004428162000400565b9050919050565b612d8e80620004596000396000f3fe608060405234801561001057600080fd5b50600436106101e55760003560e01c806370a082311161010f578063a694fc3a116100a2578063b88a802f11610071578063b88a802f14610512578063dd49756e1461051c578063f2fde38b1461054c578063f7c618c114610568576101e5565b8063a694fc3a1461048a578063a87430ba146104a6578063ab779aba146104d8578063b8522043146104f4576101e5565b80638456cb59116100de5780638456cb591461044e578063853828b6146104585780638da5cb5b14610462578063a65a79fd14610480576101e5565b806370a08231146103d8578063715018a6146104085780637824407f14610412578063817b1cd214610430576101e5565b80633940b58711610187578063479ba7ae11610156578063479ba7ae1461035057806351ed6a30146103805780635c975abb1461039e57806361156465146103bc576101e5565b80633940b587146102dc5780633988bad8146102f85780633bcfc4b8146103285780633f4ba83a14610346576101e5565b80632322a017116101c35780632322a0171461024257806325aea53f146102725780632ceed7e7146102a25780632e1a7d4d146102c0576101e5565b806304d420ea146101ea578063088ab8ce146102085780631e9b3a9214610224575b600080fd5b6101f2610586565b6040516101ff9190611e99565b60405180910390f35b610222600480360381019061021d9190611f17565b610599565b005b61022c610657565b6040516102399190611f5d565b60405180910390f35b61025c60048036038101906102579190611fa4565b6106dd565b6040516102699190611fe0565b60405180910390f35b61028c60048036038101906102879190611f17565b61071c565b6040516102999190611f5d565b60405180910390f35b6102aa610768565b6040516102b79190611e99565b60405180910390f35b6102da60048036038101906102d59190611fa4565b61077b565b005b6102f660048036038101906102f19190611fa4565b6109f2565b005b610312600480360381019061030d9190611f17565b610bd3565b60405161031f9190611f5d565b60405180910390f35b610330610c36565b60405161033d9190611f5d565b60405180910390f35b61034e610c3c565b005b61036a60048036038101906103659190611f17565b610c4e565b6040516103779190611f5d565b60405180910390f35b610388610c9a565b604051610395919061205a565b60405180910390f35b6103a6610cc0565b6040516103b39190611e99565b60405180910390f35b6103d660048036038101906103d191906120a1565b610cd7565b005b6103f260048036038101906103ed9190611f17565b610cfc565b6040516103ff9190611f5d565b60405180910390f35b610410610d48565b005b61041a610d5c565b6040516104279190611f5d565b60405180910390f35b610438610d62565b6040516104459190611f5d565b60405180910390f35b610456610d68565b005b610460610d7a565b005b61046a610e35565b6040516104779190611fe0565b60405180910390f35b610488610e5f565b005b6104a4600480360381019061049f9190611fa4565b610f5b565b005b6104c060048036038101906104bb9190611f17565b6111fb565b6040516104cf939291906120ce565b60405180910390f35b6104f260048036038101906104ed91906120a1565b611225565b005b6104fc61124a565b60405161050991906121c3565b60405180910390f35b61051a61135d565b005b61053660048036038101906105319190611fa4565b6115b7565b6040516105439190611f5d565b60405180910390f35b61056660048036038101906105619190611f17565b611615565b005b610570611699565b60405161057d919061205a565b60405180910390f35b600760019054906101000a900460ff1681565b6105a16116bf565b80600073ffffffffffffffffffffffffffffffffffffffff168173ffffffffffffffffffffffffffffffffffffffff161415610612576040517f08c379a000000000000000000000000000000000000000000000000000000000815260040161060990612242565b60405180910390fd5b81600360006101000a81548173ffffffffffffffffffffffffffffffffffffffff021916908373ffffffffffffffffffffffffffffffffffffffff1602179055505050565b6000806000905060005b6009805490508110156106d5576106b56009828154811061068557610684612262565b5b9060005260206000200160009054906101000a900473ffffffffffffffffffffffffffffffffffffffff16610bd3565b826106c091906122c0565b915080806106cd90612316565b915050610661565b508091505090565b600981815481106106ed57600080fd5b906000526020600020016000915054906101000a900473ffffffffffffffffffffffffffffffffffffffff1681565b6000600860008373ffffffffffffffffffffffffffffffffffffffff1673ffffffffffffffffffffffffffffffffffffffff168152602001908152602001600020600201549050919050565b600760009054906101000a900460ff1681565b61078361173d565b60011515600760019054906101000a900460ff161515146107d9576040517f08c379a00000000000000000000000000000000000000000000000000000000081526004016107d0906123ab565b60405180910390fd5b6107e1611787565b6000339050816107f082610cfc565b1015610831576040517f08c379a000000000000000000000000000000000000000000000000000000000815260040161082890612417565b60405180910390fd5b61083a81610bd3565b600860008373ffffffffffffffffffffffffffffffffffffffff1673ffffffffffffffffffffffffffffffffffffffff168152602001908152602001600020600101600082825461088b91906122c0565b9250508190555081600860008373ffffffffffffffffffffffffffffffffffffffff1673ffffffffffffffffffffffffffffffffffffffff16815260200190815260200160002060000160008282546108e49190612437565b9250508190555042600860008373ffffffffffffffffffffffffffffffffffffffff1673ffffffffffffffffffffffffffffffffffffffff1681526020019081526020016000206002018190555061097f8183600260009054906101000a900473ffffffffffffffffffffffffffffffffffffffff1673ffffffffffffffffffffffffffffffffffffffff166117d79092919063ffffffff16565b81600660008282546109919190612437565b925050819055508073ffffffffffffffffffffffffffffffffffffffff167f7084f5476618d8e60b11ef0d7d3f06914655adb8793e28ff7f018d4c76d505d5836040516109de9190611f5d565b60405180910390a2506109ef61185d565b50565b6109fa6116bf565b60008111610a3d576040517f08c379a0000000000000000000000000000000000000000000000000000000008152600401610a34906124b7565b60405180910390fd5b60005b600980549050811015610bc8576000610a9660098381548110610a6657610a65612262565b5b9060005260206000200160009054906101000a900473ffffffffffffffffffffffffffffffffffffffff16610bd3565b9050806008600060098581548110610ab157610ab0612262565b5b9060005260206000200160009054906101000a900473ffffffffffffffffffffffffffffffffffffffff1673ffffffffffffffffffffffffffffffffffffffff1673ffffffffffffffffffffffffffffffffffffffff1681526020019081526020016000206001016000828254610b2891906122c0565b92505081905550426008600060098581548110610b4857610b47612262565b5b9060005260206000200160009054906101000a900473ffffffffffffffffffffffffffffffffffffffff1673ffffffffffffffffffffffffffffffffffffffff1673ffffffffffffffffffffffffffffffffffffffff16815260200190815260200160002060020181905550508080610bc090612316565b915050610a40565b508060048190555050565b6000806301dfe2006064600454610be986610cfc565b610bf391906124d7565b610bfd9190612560565b610c079190612560565b90506000610c148461071c565b42610c1f9190612437565b90508082610c2d91906124d7565b92505050919050565b60045481565b610c446116bf565b610c4c611867565b565b6000600860008373ffffffffffffffffffffffffffffffffffffffff1673ffffffffffffffffffffffffffffffffffffffff168152602001908152602001600020600101549050919050565b600260009054906101000a900473ffffffffffffffffffffffffffffffffffffffff1681565b6000600160149054906101000a900460ff16905090565b610cdf6116bf565b80600760006101000a81548160ff02191690831515021790555050565b6000600860008373ffffffffffffffffffffffffffffffffffffffff1673ffffffffffffffffffffffffffffffffffffffff168152602001908152602001600020600001549050919050565b610d506116bf565b610d5a60006118ca565b565b60055481565b60065481565b610d706116bf565b610d78611990565b565b610d8261173d565b60011515600760019054906101000a900460ff16151514610dd8576040517f08c379a0000000000000000000000000000000000000000000000000000000008152600401610dcf906123ab565b60405180910390fd5b610de0611787565b610e2b600860003373ffffffffffffffffffffffffffffffffffffffff1673ffffffffffffffffffffffffffffffffffffffff1681526020019081526020016000206000015461077b565b610e3361185d565b565b6000600160009054906101000a900473ffffffffffffffffffffffffffffffffffffffff16905090565b610e676116bf565b600060055411610eac576040517f08c379a0000000000000000000000000000000000000000000000000000000008152600401610ea3906125dd565b60405180910390fd5b60006005549050610f0233600554600360009054906101000a900473ffffffffffffffffffffffffffffffffffffffff1673ffffffffffffffffffffffffffffffffffffffff166117d79092919063ffffffff16565b60006005819055503373ffffffffffffffffffffffffffffffffffffffff167ff1a6dc288dc8834523e8a24c26bd78b17388df942ee9044ab8e959e70366d9cb82604051610f509190611f5d565b60405180910390a250565b610f6361173d565b60011515600760009054906101000a900460ff16151514610fb9576040517f08c379a0000000000000000000000000000000000000000000000000000000008152600401610fb090612649565b60405180910390fd5b80670de0b6b3a76400008111611004576040517f08c379a0000000000000000000000000000000000000000000000000000000008152600401610ffb906126b5565b60405180910390fd5b61100c611787565b6000339050611060813085600260009054906101000a900473ffffffffffffffffffffffffffffffffffffffff1673ffffffffffffffffffffffffffffffffffffffff166119f2909392919063ffffffff16565b600061106b82610bd3565b905080600860008473ffffffffffffffffffffffffffffffffffffffff1673ffffffffffffffffffffffffffffffffffffffff16815260200190815260200160002060010160008282546110bf91906122c0565b9250508190555083600860008473ffffffffffffffffffffffffffffffffffffffff1673ffffffffffffffffffffffffffffffffffffffff168152602001908152602001600020600001600082825461111891906122c0565b9250508190555042600860008473ffffffffffffffffffffffffffffffffffffffff1673ffffffffffffffffffffffffffffffffffffffff16815260200190815260200160002060020181905550836006600082825461117891906122c0565b92505081905550600760029054906101000a900460ff161561119f5761119d82611a7b565b505b8173ffffffffffffffffffffffffffffffffffffffff167f9e71bc8eea02a63969f509818f2dafb9254532904319f9dbda79b67bd34a5f3d856040516111e59190611f5d565b60405180910390a250506111f761185d565b5050565b60086020528060005260406000206000915090508060000154908060010154908060020154905083565b61122d6116bf565b80600760016101000a81548160ff02191690831515021790555050565b60606112546116bf565b600060098054905067ffffffffffffffff811115611275576112746126d5565b5b6040519080825280602002602001820160405280156112a35781602001602082028036833780820191505090505b50905060005b60098054905081101561135557600981815481106112ca576112c9612262565b5b9060005260206000200160009054906101000a900473ffffffffffffffffffffffffffffffffffffffff1682828151811061130857611307612262565b5b602002602001019073ffffffffffffffffffffffffffffffffffffffff16908173ffffffffffffffffffffffffffffffffffffffff1681525050808061134d90612316565b9150506112a9565b508091505090565b61136561173d565b61136d611787565b600033905061137b81610bd3565b600860008373ffffffffffffffffffffffffffffffffffffffff1673ffffffffffffffffffffffffffffffffffffffff16815260200190815260200160002060010160008282546113cc91906122c0565b9250508190555060006113de82610c4e565b905060008111611423576040517f08c379a000000000000000000000000000000000000000000000000000000000815260040161141a90612750565b60405180910390fd5b806005541015611468576040517f08c379a000000000000000000000000000000000000000000000000000000000815260040161145f906127bc565b60405180910390fd5b6000600860008473ffffffffffffffffffffffffffffffffffffffff1673ffffffffffffffffffffffffffffffffffffffff1681526020019081526020016000206001018190555042600860008473ffffffffffffffffffffffffffffffffffffffff1673ffffffffffffffffffffffffffffffffffffffff168152602001908152602001600020600201819055506115448282600360009054906101000a900473ffffffffffffffffffffffffffffffffffffffff1673ffffffffffffffffffffffffffffffffffffffff166117d79092919063ffffffff16565b80600560008282546115569190612437565b925050819055508173ffffffffffffffffffffffffffffffffffffffff167f106f923f993c2149d49b4255ff723acafa1f2d94393f561d3eda32ae348f7241826040516115a39190611f5d565b60405180910390a250506115b561185d565b565b60006115c16116bf565b81670de0b6b3a7640000811161160c576040517f08c379a0000000000000000000000000000000000000000000000000000000008152600401611603906126b5565b60405180910390fd5b82915050919050565b61161d6116bf565b600073ffffffffffffffffffffffffffffffffffffffff168173ffffffffffffffffffffffffffffffffffffffff16141561168d576040517f08c379a00000000000000000000000000000000000000000000000000000000081526004016116849061284e565b60405180910390fd5b611696816118ca565b50565b600360009054906101000a900473ffffffffffffffffffffffffffffffffffffffff1681565b6116c7611b98565b73ffffffffffffffffffffffffffffffffffffffff166116e5610e35565b73ffffffffffffffffffffffffffffffffffffffff161461173b576040517f08c379a0000000000000000000000000000000000000000000000000000000008152600401611732906128ba565b60405180910390fd5b565b611745610cc0565b15611785576040517f08c379a000000000000000000000000000000000000000000000000000000000815260040161177c90612926565b60405180910390fd5b565b600260005414156117cd576040517f08c379a00000000000000000000000000000000000000000000000000000000081526004016117c490612992565b60405180910390fd5b6002600081905550565b6118588363a9059cbb60e01b84846040516024016117f69291906129b2565b604051602081830303815290604052907bffffffffffffffffffffffffffffffffffffffffffffffffffffffff19166020820180517bffffffffffffffffffffffffffffffffffffffffffffffffffffffff8381831617835250505050611ba0565b505050565b6001600081905550565b61186f611c67565b6000600160146101000a81548160ff0219169083151502179055507f5db9ee0a495bf2e6ff9c91a7834c1ba4fdd244a5e8aa4e537bd38aeae4b073aa6118b3611b98565b6040516118c09190611fe0565b60405180910390a1565b6000600160009054906101000a900473ffffffffffffffffffffffffffffffffffffffff16905081600160006101000a81548173ffffffffffffffffffffffffffffffffffffffff021916908373ffffffffffffffffffffffffffffffffffffffff1602179055508173ffffffffffffffffffffffffffffffffffffffff168173ffffffffffffffffffffffffffffffffffffffff167f8be0079c531659141344cd1fd0a4f28419497f9722a3daafe3b4186f6b6457e060405160405180910390a35050565b61199861173d565b60018060146101000a81548160ff0219169083151502179055507f62e78cea01bee320cd4e420270b5ea74000d11b0c9f74754ebdbfc544b05a2586119db611b98565b6040516119e89190611fe0565b60405180910390a1565b611a75846323b872dd60e01b858585604051602401611a13939291906129db565b604051602081830303815290604052907bffffffffffffffffffffffffffffffffffffffffffffffffffffffff19166020820180517bffffffffffffffffffffffffffffffffffffffffffffffffffffffff8381831617835250505050611ba0565b50505050565b6000806001905060005b600980549050811015611b24578373ffffffffffffffffffffffffffffffffffffffff1660098281548110611abd57611abc612262565b5b9060005260206000200160009054906101000a900473ffffffffffffffffffffffffffffffffffffffff1673ffffffffffffffffffffffffffffffffffffffff161415611b11576000915060098054905090505b8080611b1c90612316565b915050611a85565b508015611b8f576009839080600181540180825580915050600190039060005260206000200160009091909190916101000a81548173ffffffffffffffffffffffffffffffffffffffff021916908373ffffffffffffffffffffffffffffffffffffffff1602179055505b80915050919050565b600033905090565b6000611c02826040518060400160405280602081526020017f5361666545524332303a206c6f772d6c6576656c2063616c6c206661696c65648152508573ffffffffffffffffffffffffffffffffffffffff16611cb09092919063ffffffff16565b9050600081511115611c625780806020019051810190611c229190612a27565b611c61576040517f08c379a0000000000000000000000000000000000000000000000000000000008152600401611c5890612ac6565b60405180910390fd5b5b505050565b611c6f610cc0565b611cae576040517f08c379a0000000000000000000000000000000000000000000000000000000008152600401611ca590612b32565b60405180910390fd5b565b6060611cbf8484600085611cc8565b90509392505050565b606082471015611d0d576040517f08c379a0000000000000000000000000000000000000000000000000000000008152600401611d0490612bc4565b60405180910390fd5b6000808673ffffffffffffffffffffffffffffffffffffffff168587604051611d369190612c5e565b60006040518083038185875af1925050503d8060008114611d73576040519150601f19603f3d011682016040523d82523d6000602084013e611d78565b606091505b5091509150611d8987838387611d95565b92505050949350505050565b60608315611df857600083511415611df057611db085611e0b565b611def576040517f08c379a0000000000000000000000000000000000000000000000000000000008152600401611de690612cc1565b60405180910390fd5b5b829050611e03565b611e028383611e2e565b5b949350505050565b6000808273ffffffffffffffffffffffffffffffffffffffff163b119050919050565b600082511115611e415781518083602001fd5b806040517f08c379a0000000000000000000000000000000000000000000000000000000008152600401611e759190612d36565b60405180910390fd5b60008115159050919050565b611e9381611e7e565b82525050565b6000602082019050611eae6000830184611e8a565b92915050565b600080fd5b600073ffffffffffffffffffffffffffffffffffffffff82169050919050565b6000611ee482611eb9565b9050919050565b611ef481611ed9565b8114611eff57600080fd5b50565b600081359050611f1181611eeb565b92915050565b600060208284031215611f2d57611f2c611eb4565b5b6000611f3b84828501611f02565b91505092915050565b6000819050919050565b611f5781611f44565b82525050565b6000602082019050611f726000830184611f4e565b92915050565b611f8181611f44565b8114611f8c57600080fd5b50565b600081359050611f9e81611f78565b92915050565b600060208284031215611fba57611fb9611eb4565b5b6000611fc884828501611f8f565b91505092915050565b611fda81611ed9565b82525050565b6000602082019050611ff56000830184611fd1565b92915050565b6000819050919050565b600061202061201b61201684611eb9565b611ffb565b611eb9565b9050919050565b600061203282612005565b9050919050565b600061204482612027565b9050919050565b61205481612039565b82525050565b600060208201905061206f600083018461204b565b92915050565b61207e81611e7e565b811461208957600080fd5b50565b60008135905061209b81612075565b92915050565b6000602082840312156120b7576120b6611eb4565b5b60006120c58482850161208c565b91505092915050565b60006060820190506120e36000830186611f4e565b6120f06020830185611f4e565b6120fd6040830184611f4e565b949350505050565b600081519050919050565b600082825260208201905092915050565b6000819050602082019050919050565b61213a81611ed9565b82525050565b600061214c8383612131565b60208301905092915050565b6000602082019050919050565b600061217082612105565b61217a8185612110565b935061218583612121565b8060005b838110156121b657815161219d8882612140565b97506121a883612158565b925050600181019050612189565b5085935050505092915050565b600060208201905081810360008301526121dd8184612165565b905092915050565b600082825260208201905092915050565b7f496e76616c696420616464726573730000000000000000000000000000000000600082015250565b600061222c600f836121e5565b9150612237826121f6565b602082019050919050565b6000602082019050818103600083015261225b8161221f565b9050919050565b7f4e487b7100000000000000000000000000000000000000000000000000000000600052603260045260246000fd5b7f4e487b7100000000000000000000000000000000000000000000000000000000600052601160045260246000fd5b60006122cb82611f44565b91506122d683611f44565b9250827fffffffffffffffffffffffffffffffffffffffffffffffffffffffffffffffff0382111561230b5761230a612291565b5b828201905092915050565b600061232182611f44565b91507fffffffffffffffffffffffffffffffffffffffffffffffffffffffffffffffff82141561235457612353612291565b5b600182019050919050565b7f5769746864726177696e67206973207061757365642021000000000000000000600082015250565b60006123956017836121e5565b91506123a08261235f565b602082019050919050565b600060208201905081810360008301526123c481612388565b9050919050565b7f4e6f7420656e6f756768207374616b6564210000000000000000000000000000600082015250565b60006124016012836121e5565b915061240c826123cb565b602082019050919050565b60006020820190508181036000830152612430816123f4565b9050919050565b600061244282611f44565b915061244d83611f44565b9250828210156124605761245f612291565b5b828203905092915050565b7f496e76616c696420417079210000000000000000000000000000000000000000600082015250565b60006124a1600c836121e5565b91506124ac8261246b565b602082019050919050565b600060208201905081810360008301526124d081612494565b9050919050565b60006124e282611f44565b91506124ed83611f44565b9250817fffffffffffffffffffffffffffffffffffffffffffffffffffffffffffffffff048311821515161561252657612525612291565b5b828202905092915050565b7f4e487b7100000000000000000000000000000000000000000000000000000000600052601260045260246000fd5b600061256b82611f44565b915061257683611f44565b92508261258657612585612531565b5b828204905092915050565b7f4e6f7420656e6f75676820746f6b656e20737570706c79210000000000000000600082015250565b60006125c76018836121e5565b91506125d282612591565b602082019050919050565b600060208201905081810360008301526125f6816125ba565b9050919050565b7f5374616b696e6720697320706175736564202100000000000000000000000000600082015250565b60006126336013836121e5565b915061263e826125fd565b602082019050919050565b6000602082019050818103600083015261266281612626565b9050919050565b7f4d696e20616d6f756e74206973203120746f6b656e2100000000000000000000600082015250565b600061269f6016836121e5565b91506126aa82612669565b602082019050919050565b600060208201905081810360008301526126ce81612692565b9050919050565b7f4e487b7100000000000000000000000000000000000000000000000000000000600052604160045260246000fd5b7f4e6f207265776172647321000000000000000000000000000000000000000000600082015250565b600061273a600b836121e5565b915061274582612704565b602082019050919050565b600060208201905081810360008301526127698161272d565b9050919050565b7f4e6f7420656e6f75676820746f6b656e732c20747279206c6174657200000000600082015250565b60006127a6601c836121e5565b91506127b182612770565b602082019050919050565b600060208201905081810360008301526127d581612799565b9050919050565b7f4f776e61626c653a206e6577206f776e657220697320746865207a65726f206160008201527f6464726573730000000000000000000000000000000000000000000000000000602082015250565b60006128386026836121e5565b9150612843826127dc565b604082019050919050565b600060208201905081810360008301526128678161282b565b9050919050565b7f4f776e61626c653a2063616c6c6572206973206e6f7420746865206f776e6572600082015250565b60006128a46020836121e5565b91506128af8261286e565b602082019050919050565b600060208201905081810360008301526128d381612897565b9050919050565b7f5061757361626c653a2070617573656400000000000000000000000000000000600082015250565b60006129106010836121e5565b915061291b826128da565b602082019050919050565b6000602082019050818103600083015261293f81612903565b9050919050565b7f5265656e7472616e637947756172643a207265656e7472616e742063616c6c00600082015250565b600061297c601f836121e5565b915061298782612946565b602082019050919050565b600060208201905081810360008301526129ab8161296f565b9050919050565b60006040820190506129c76000830185611fd1565b6129d46020830184611f4e565b9392505050565b60006060820190506129f06000830186611fd1565b6129fd6020830185611fd1565b612a0a6040830184611f4e565b949350505050565b600081519050612a2181612075565b92915050565b600060208284031215612a3d57612a3c611eb4565b5b6000612a4b84828501612a12565b91505092915050565b7f5361666545524332303a204552433230206f7065726174696f6e20646964206e60008201527f6f74207375636365656400000000000000000000000000000000000000000000602082015250565b6000612ab0602a836121e5565b9150612abb82612a54565b604082019050919050565b60006020820190508181036000830152612adf81612aa3565b9050919050565b7f5061757361626c653a206e6f7420706175736564000000000000000000000000600082015250565b6000612b1c6014836121e5565b9150612b2782612ae6565b602082019050919050565b60006020820190508181036000830152612b4b81612b0f565b9050919050565b7f416464726573733a20696e73756666696369656e742062616c616e636520666f60008201527f722063616c6c0000000000000000000000000000000000000000000000000000602082015250565b6000612bae6026836121e5565b9150612bb982612b52565b604082019050919050565b60006020820190508181036000830152612bdd81612ba1565b9050919050565b600081519050919050565b600081905092915050565b60005b83811015612c18578082015181840152602081019050612bfd565b83811115612c27576000848401525b50505050565b6000612c3882612be4565b612c428185612bef565b9350612c52818560208601612bfa565b80840191505092915050565b6000612c6a8284612c2d565b915081905092915050565b7f416464726573733a2063616c6c20746f206e6f6e2d636f6e7472616374000000600082015250565b6000612cab601d836121e5565b9150612cb682612c75565b602082019050919050565b60006020820190508181036000830152612cda81612c9e565b9050919050565b600081519050919050565b6000601f19601f8301169050919050565b6000612d0882612ce1565b612d1281856121e5565b9350612d22818560208601612bfa565b612d2b81612cec565b840191505092915050565b60006020820190508181036000830152612d508184612cfd565b90509291505056fea26469706673582212201208078e83712b0d8f2ad16757f2d3bda52d367da401b36296ff2f030841acb064736f6c63430008090033","opcodes":"PUSH1 0x80 PUSH1 0x40 MSTORE CALLVALUE DUP1 ISZERO PUSH3 0x11 JUMPI PUSH1 0x0 DUP1 REVERT JUMPDEST POP PUSH1 0x40 MLOAD PUSH3 0x31E7 CODESIZE SUB DUP1 PUSH3 0x31E7 DUP4 CODECOPY DUP2 DUP2 ADD PUSH1 0x40 MSTORE DUP2 ADD SWAP1 PUSH3 0x37 SWAP2 SWAP1 PUSH3 0x37F JUMP JUMPDEST PUSH1 0x1 PUSH1 0x0 DUP2 SWAP1 SSTORE POP PUSH3 0x5F PUSH3 0x53 PUSH3 0x247 PUSH1 0x20 SHL PUSH1 0x20 SHR JUMP JUMPDEST PUSH3 0x24F PUSH1 0x20 SHL PUSH1 0x20 SHR JUMP JUMPDEST PUSH1 0x0 PUSH1 0x1 PUSH1 0x14 PUSH2 0x100 EXP DUP2 SLOAD DUP2 PUSH1 0xFF MUL NOT AND SWAP1 DUP4 ISZERO ISZERO MUL OR SWAP1 SSTORE POP DUP2 PUSH1 0x0 PUSH20 0xFFFFFFFFFFFFFFFFFFFFFFFFFFFFFFFFFFFFFFFF AND DUP2 PUSH20 0xFFFFFFFFFFFFFFFFFFFFFFFFFFFFFFFFFFFFFFFF AND EQ ISZERO PUSH3 0xEE JUMPI PUSH1 0x40 MLOAD PUSH32 0x8C379A000000000000000000000000000000000000000000000000000000000 DUP2 MSTORE PUSH1 0x4 ADD PUSH3 0xE5 SWAP1 PUSH3 0x427 JUMP JUMPDEST PUSH1 0x40 MLOAD DUP1 SWAP2 SUB SWAP1 REVERT JUMPDEST DUP2 PUSH1 0x0 PUSH20 0xFFFFFFFFFFFFFFFFFFFFFFFFFFFFFFFFFFFFFFFF AND DUP2 PUSH20 0xFFFFFFFFFFFFFFFFFFFFFFFFFFFFFFFFFFFFFFFF AND EQ ISZERO PUSH3 0x162 JUMPI PUSH1 0x40 MLOAD PUSH32 0x8C379A000000000000000000000000000000000000000000000000000000000 DUP2 MSTORE PUSH1 0x4 ADD PUSH3 0x159 SWAP1 PUSH3 0x427 JUMP JUMPDEST PUSH1 0x40 MLOAD DUP1 SWAP2 SUB SWAP1 REVERT JUMPDEST DUP4 PUSH1 0x2 PUSH1 0x0 PUSH2 0x100 EXP DUP2 SLOAD DUP2 PUSH20 0xFFFFFFFFFFFFFFFFFFFFFFFFFFFFFFFFFFFFFFFF MUL NOT AND SWAP1 DUP4 PUSH20 0xFFFFFFFFFFFFFFFFFFFFFFFFFFFFFFFFFFFFFFFF AND MUL OR SWAP1 SSTORE POP DUP3 PUSH1 0x3 PUSH1 0x0 PUSH2 0x100 EXP DUP2 SLOAD DUP2 PUSH20 0xFFFFFFFFFFFFFFFFFFFFFFFFFFFFFFFFFFFFFFFF MUL NOT AND SWAP1 DUP4 PUSH20 0xFFFFFFFFFFFFFFFFFFFFFFFFFFFFFFFFFFFFFFFF AND MUL OR SWAP1 SSTORE POP PUSH1 0x11 PUSH1 0x4 DUP2 SWAP1 SSTORE POP PUSH1 0x1 PUSH1 0x7 PUSH1 0x0 PUSH2 0x100 EXP DUP2 SLOAD DUP2 PUSH1 0xFF MUL NOT AND SWAP1 DUP4 ISZERO ISZERO MUL OR SWAP1 SSTORE POP PUSH1 0x1 PUSH1 0x7 PUSH1 0x1 PUSH2 0x100 EXP DUP2 SLOAD DUP2 PUSH1 0xFF MUL NOT AND SWAP1 DUP4 ISZERO ISZERO MUL OR SWAP1 SSTORE POP PUSH1 0x1 PUSH1 0x7 PUSH1 0x2 PUSH2 0x100 EXP DUP2 SLOAD DUP2 PUSH1 0xFF MUL NOT AND SWAP1 DUP4 ISZERO ISZERO MUL OR SWAP1 SSTORE POP POP POP POP POP PUSH3 0x449 JUMP JUMPDEST PUSH1 0x0 CALLER SWAP1 POP SWAP1 JUMP JUMPDEST PUSH1 0x0 PUSH1 0x1 PUSH1 0x0 SWAP1 SLOAD SWAP1 PUSH2 0x100 EXP SWAP1 DIV PUSH20 0xFFFFFFFFFFFFFFFFFFFFFFFFFFFFFFFFFFFFFFFF AND SWAP1 POP DUP2 PUSH1 0x1 PUSH1 0x0 PUSH2 0x100 EXP DUP2 SLOAD DUP2 PUSH20 0xFFFFFFFFFFFFFFFFFFFFFFFFFFFFFFFFFFFFFFFF MUL NOT AND SWAP1 DUP4 PUSH20 0xFFFFFFFFFFFFFFFFFFFFFFFFFFFFFFFFFFFFFFFF AND MUL OR SWAP1 SSTORE POP DUP2 PUSH20 0xFFFFFFFFFFFFFFFFFFFFFFFFFFFFFFFFFFFFFFFF AND DUP2 PUSH20 0xFFFFFFFFFFFFFFFFFFFFFFFFFFFFFFFFFFFFFFFF AND PUSH32 0x8BE0079C531659141344CD1FD0A4F28419497F9722A3DAAFE3B4186F6B6457E0 PUSH1 0x40 MLOAD PUSH1 0x40 MLOAD DUP1 SWAP2 SUB SWAP1 LOG3 POP POP JUMP JUMPDEST PUSH1 0x0 DUP1 REVERT JUMPDEST PUSH1 0x0 PUSH20 0xFFFFFFFFFFFFFFFFFFFFFFFFFFFFFFFFFFFFFFFF DUP3 AND SWAP1 POP SWAP2 SWAP1 POP JUMP JUMPDEST PUSH1 0x0 PUSH3 0x347 DUP3 PUSH3 0x31A JUMP JUMPDEST SWAP1 POP SWAP2 SWAP1 POP JUMP JUMPDEST PUSH3 0x359 DUP2 PUSH3 0x33A JUMP JUMPDEST DUP2 EQ PUSH3 0x365 JUMPI PUSH1 0x0 DUP1 REVERT JUMPDEST POP JUMP JUMPDEST PUSH1 0x0 DUP2 MLOAD SWAP1 POP PUSH3 0x379 DUP2 PUSH3 0x34E JUMP JUMPDEST SWAP3 SWAP2 POP POP JUMP JUMPDEST PUSH1 0x0 DUP1 PUSH1 0x40 DUP4 DUP6 SUB SLT ISZERO PUSH3 0x399 JUMPI PUSH3 0x398 PUSH3 0x315 JUMP JUMPDEST JUMPDEST PUSH1 0x0 PUSH3 0x3A9 DUP6 DUP3 DUP7 ADD PUSH3 0x368 JUMP JUMPDEST SWAP3 POP POP PUSH1 0x20 PUSH3 0x3BC DUP6 DUP3 DUP7 ADD PUSH3 0x368 JUMP JUMPDEST SWAP2 POP POP SWAP3 POP SWAP3 SWAP1 POP JUMP JUMPDEST PUSH1 0x0 DUP3 DUP3 MSTORE PUSH1 0x20 DUP3 ADD SWAP1 POP SWAP3 SWAP2 POP POP JUMP JUMPDEST PUSH32 0x496E76616C696420616464726573730000000000000000000000000000000000 PUSH1 0x0 DUP3 ADD MSTORE POP JUMP JUMPDEST PUSH1 0x0 PUSH3 0x40F PUSH1 0xF DUP4 PUSH3 0x3C6 JUMP JUMPDEST SWAP2 POP PUSH3 0x41C DUP3 PUSH3 0x3D7 JUMP JUMPDEST PUSH1 0x20 DUP3 ADD SWAP1 POP SWAP2 SWAP1 POP JUMP JUMPDEST PUSH1 0x0 PUSH1 0x20 DUP3 ADD SWAP1 POP DUP2 DUP2 SUB PUSH1 0x0 DUP4 ADD MSTORE PUSH3 0x442 DUP2 PUSH3 0x400 JUMP JUMPDEST SWAP1 POP SWAP2 SWAP1 POP JUMP JUMPDEST PUSH2 0x2D8E DUP1 PUSH3 0x459 PUSH1 0x0 CODECOPY PUSH1 0x0 RETURN INVALID PUSH1 0x80 PUSH1 0x40 MSTORE CALLVALUE DUP1 ISZERO PUSH2 0x10 JUMPI PUSH1 0x0 DUP1 REVERT JUMPDEST POP PUSH1 0x4 CALLDATASIZE LT PUSH2 0x1E5 JUMPI PUSH1 0x0 CALLDATALOAD PUSH1 0xE0 SHR DUP1 PUSH4 0x70A08231 GT PUSH2 0x10F JUMPI DUP1 PUSH4 0xA694FC3A GT PUSH2 0xA2 JUMPI DUP1 PUSH4 0xB88A802F GT PUSH2 0x71 JUMPI DUP1 PUSH4 0xB88A802F EQ PUSH2 0x512 JUMPI DUP1 PUSH4 0xDD49756E EQ PUSH2 0x51C JUMPI DUP1 PUSH4 0xF2FDE38B EQ PUSH2 0x54C JUMPI DUP1 PUSH4 0xF7C618C1 EQ PUSH2 0x568 JUMPI PUSH2 0x1E5 JUMP JUMPDEST DUP1 PUSH4 0xA694FC3A EQ PUSH2 0x48A JUMPI DUP1 PUSH4 0xA87430BA EQ PUSH2 0x4A6 JUMPI DUP1 PUSH4 0xAB779ABA EQ PUSH2 0x4D8 JUMPI DUP1 PUSH4 0xB8522043 EQ PUSH2 0x4F4 JUMPI PUSH2 0x1E5 JUMP JUMPDEST DUP1 PUSH4 0x8456CB59 GT PUSH2 0xDE JUMPI DUP1 PUSH4 0x8456CB59 EQ PUSH2 0x44E JUMPI DUP1 PUSH4 0x853828B6 EQ PUSH2 0x458 JUMPI DUP1 PUSH4 0x8DA5CB5B EQ PUSH2 0x462 JUMPI DUP1 PUSH4 0xA65A79FD EQ PUSH2 0x480 JUMPI PUSH2 0x1E5 JUMP JUMPDEST DUP1 PUSH4 0x70A08231 EQ PUSH2 0x3D8 JUMPI DUP1 PUSH4 0x715018A6 EQ PUSH2 0x408 JUMPI DUP1 PUSH4 0x7824407F EQ PUSH2 0x412 JUMPI DUP1 PUSH4 0x817B1CD2 EQ PUSH2 0x430 JUMPI PUSH2 0x1E5 JUMP JUMPDEST DUP1 PUSH4 0x3940B587 GT PUSH2 0x187 JUMPI DUP1 PUSH4 0x479BA7AE GT PUSH2 0x156 JUMPI DUP1 PUSH4 0x479BA7AE EQ PUSH2 0x350 JUMPI DUP1 PUSH4 0x51ED6A30 EQ PUSH2 0x380 JUMPI DUP1 PUSH4 0x5C975ABB EQ PUSH2 0x39E JUMPI DUP1 PUSH4 0x61156465 EQ PUSH2 0x3BC JUMPI PUSH2 0x1E5 JUMP JUMPDEST DUP1 PUSH4 0x3940B587 EQ PUSH2 0x2DC JUMPI DUP1 PUSH4 0x3988BAD8 EQ PUSH2 0x2F8 JUMPI DUP1 PUSH4 0x3BCFC4B8 EQ PUSH2 0x328 JUMPI DUP1 PUSH4 0x3F4BA83A EQ PUSH2 0x346 JUMPI PUSH2 0x1E5 JUMP JUMPDEST DUP1 PUSH4 0x2322A017 GT PUSH2 0x1C3 JUMPI DUP1 PUSH4 0x2322A017 EQ PUSH2 0x242 JUMPI DUP1 PUSH4 0x25AEA53F EQ PUSH2 0x272 JUMPI DUP1 PUSH4 0x2CEED7E7 EQ PUSH2 0x2A2 JUMPI DUP1 PUSH4 0x2E1A7D4D EQ PUSH2 0x2C0 JUMPI PUSH2 0x1E5 JUMP JUMPDEST DUP1 PUSH4 0x4D420EA EQ PUSH2 0x1EA JUMPI DUP1 PUSH4 0x88AB8CE EQ PUSH2 0x208 JUMPI DUP1 PUSH4 0x1E9B3A92 EQ PUSH2 0x224 JUMPI JUMPDEST PUSH1 0x0 DUP1 REVERT JUMPDEST PUSH2 0x1F2 PUSH2 0x586 JUMP JUMPDEST PUSH1 0x40 MLOAD PUSH2 0x1FF SWAP2 SWAP1 PUSH2 0x1E99 JUMP JUMPDEST PUSH1 0x40 MLOAD DUP1 SWAP2 SUB SWAP1 RETURN JUMPDEST PUSH2 0x222 PUSH1 0x4 DUP1 CALLDATASIZE SUB DUP2 ADD SWAP1 PUSH2 0x21D SWAP2 SWAP1 PUSH2 0x1F17 JUMP JUMPDEST PUSH2 0x599 JUMP JUMPDEST STOP JUMPDEST PUSH2 0x22C PUSH2 0x657 JUMP JUMPDEST PUSH1 0x40 MLOAD PUSH2 0x239 SWAP2 SWAP1 PUSH2 0x1F5D JUMP JUMPDEST PUSH1 0x40 MLOAD DUP1 SWAP2 SUB SWAP1 RETURN JUMPDEST PUSH2 0x25C PUSH1 0x4 DUP1 CALLDATASIZE SUB DUP2 ADD SWAP1 PUSH2 0x257 SWAP2 SWAP1 PUSH2 0x1FA4 JUMP JUMPDEST PUSH2 0x6DD JUMP JUMPDEST PUSH1 0x40 MLOAD PUSH2 0x269 SWAP2 SWAP1 PUSH2 0x1FE0 JUMP JUMPDEST PUSH1 0x40 MLOAD DUP1 SWAP2 SUB SWAP1 RETURN JUMPDEST PUSH2 0x28C PUSH1 0x4 DUP1 CALLDATASIZE SUB DUP2 ADD SWAP1 PUSH2 0x287 SWAP2 SWAP1 PUSH2 0x1F17 JUMP JUMPDEST PUSH2 0x71C JUMP JUMPDEST PUSH1 0x40 MLOAD PUSH2 0x299 SWAP2 SWAP1 PUSH2 0x1F5D JUMP JUMPDEST PUSH1 0x40 MLOAD DUP1 SWAP2 SUB SWAP1 RETURN JUMPDEST PUSH2 0x2AA PUSH2 0x768 JUMP JUMPDEST PUSH1 0x40 MLOAD PUSH2 0x2B7 SWAP2 SWAP1 PUSH2 0x1E99 JUMP JUMPDEST PUSH1 0x40 MLOAD DUP1 SWAP2 SUB SWAP1 RETURN JUMPDEST PUSH2 0x2DA PUSH1 0x4 DUP1 CALLDATASIZE SUB DUP2 ADD SWAP1 PUSH2 0x2D5 SWAP2 SWAP1 PUSH2 0x1FA4 JUMP JUMPDEST PUSH2 0x77B JUMP JUMPDEST STOP JUMPDEST PUSH2 0x2F6 PUSH1 0x4 DUP1 CALLDATASIZE SUB DUP2 ADD SWAP1 PUSH2 0x2F1 SWAP2 SWAP1 PUSH2 0x1FA4 JUMP JUMPDEST PUSH2 0x9F2 JUMP JUMPDEST STOP JUMPDEST PUSH2 0x312 PUSH1 0x4 DUP1 CALLDATASIZE SUB DUP2 ADD SWAP1 PUSH2 0x30D SWAP2 SWAP1 PUSH2 0x1F17 JUMP JUMPDEST PUSH2 0xBD3 JUMP JUMPDEST PUSH1 0x40 MLOAD PUSH2 0x31F SWAP2 SWAP1 PUSH2 0x1F5D JUMP JUMPDEST PUSH1 0x40 MLOAD DUP1 SWAP2 SUB SWAP1 RETURN JUMPDEST PUSH2 0x330 PUSH2 0xC36 JUMP JUMPDEST PUSH1 0x40 MLOAD PUSH2 0x33D SWAP2 SWAP1 PUSH2 0x1F5D JUMP JUMPDEST PUSH1 0x40 MLOAD DUP1 SWAP2 SUB SWAP1 RETURN JUMPDEST PUSH2 0x34E PUSH2 0xC3C JUMP JUMPDEST STOP JUMPDEST PUSH2 0x36A PUSH1 0x4 DUP1 CALLDATASIZE SUB DUP2 ADD SWAP1 PUSH2 0x365 SWAP2 SWAP1 PUSH2 0x1F17 JUMP JUMPDEST PUSH2 0xC4E JUMP JUMPDEST PUSH1 0x40 MLOAD PUSH2 0x377 SWAP2 SWAP1 PUSH2 0x1F5D JUMP JUMPDEST PUSH1 0x40 MLOAD DUP1 SWAP2 SUB SWAP1 RETURN JUMPDEST PUSH2 0x388 PUSH2 0xC9A JUMP JUMPDEST PUSH1 0x40 MLOAD PUSH2 0x395 SWAP2 SWAP1 PUSH2 0x205A JUMP JUMPDEST PUSH1 0x40 MLOAD DUP1 SWAP2 SUB SWAP1 RETURN JUMPDEST PUSH2 0x3A6 PUSH2 0xCC0 JUMP JUMPDEST PUSH1 0x40 MLOAD PUSH2 0x3B3 SWAP2 SWAP1 PUSH2 0x1E99 JUMP JUMPDEST PUSH1 0x40 MLOAD DUP1 SWAP2 SUB SWAP1 RETURN JUMPDEST PUSH2 0x3D6 PUSH1 0x4 DUP1 CALLDATASIZE SUB DUP2 ADD SWAP1 PUSH2 0x3D1 SWAP2 SWAP1 PUSH2 0x20A1 JUMP JUMPDEST PUSH2 0xCD7 JUMP JUMPDEST STOP JUMPDEST PUSH2 0x3F2 PUSH1 0x4 DUP1 CALLDATASIZE SUB DUP2 ADD SWAP1 PUSH2 0x3ED SWAP2 SWAP1 PUSH2 0x1F17 JUMP JUMPDEST PUSH2 0xCFC JUMP JUMPDEST PUSH1 0x40 MLOAD PUSH2 0x3FF SWAP2 SWAP1 PUSH2 0x1F5D JUMP JUMPDEST PUSH1 0x40 MLOAD DUP1 SWAP2 SUB SWAP1 RETURN JUMPDEST PUSH2 0x410 PUSH2 0xD48 JUMP JUMPDEST STOP JUMPDEST PUSH2 0x41A PUSH2 0xD5C JUMP JUMPDEST PUSH1 0x40 MLOAD PUSH2 0x427 SWAP2 SWAP1 PUSH2 0x1F5D JUMP JUMPDEST PUSH1 0x40 MLOAD DUP1 SWAP2 SUB SWAP1 RETURN JUMPDEST PUSH2 0x438 PUSH2 0xD62 JUMP JUMPDEST PUSH1 0x40 MLOAD PUSH2 0x445 SWAP2 SWAP1 PUSH2 0x1F5D JUMP JUMPDEST PUSH1 0x40 MLOAD DUP1 SWAP2 SUB SWAP1 RETURN JUMPDEST PUSH2 0x456 PUSH2 0xD68 JUMP JUMPDEST STOP JUMPDEST PUSH2 0x460 PUSH2 0xD7A JUMP JUMPDEST STOP JUMPDEST PUSH2 0x46A PUSH2 0xE35 JUMP JUMPDEST PUSH1 0x40 MLOAD PUSH2 0x477 SWAP2 SWAP1 PUSH2 0x1FE0 JUMP JUMPDEST PUSH1 0x40 MLOAD DUP1 SWAP2 SUB SWAP1 RETURN JUMPDEST PUSH2 0x488 PUSH2 0xE5F JUMP JUMPDEST STOP JUMPDEST PUSH2 0x4A4 PUSH1 0x4 DUP1 CALLDATASIZE SUB DUP2 ADD SWAP1 PUSH2 0x49F SWAP2 SWAP1 PUSH2 0x1FA4 JUMP JUMPDEST PUSH2 0xF5B JUMP JUMPDEST STOP JUMPDEST PUSH2 0x4C0 PUSH1 0x4 DUP1 CALLDATASIZE SUB DUP2 ADD SWAP1 PUSH2 0x4BB SWAP2 SWAP1 PUSH2 0x1F17 JUMP JUMPDEST PUSH2 0x11FB JUMP JUMPDEST PUSH1 0x40 MLOAD PUSH2 0x4CF SWAP4 SWAP3 SWAP2 SWAP1 PUSH2 0x20CE JUMP JUMPDEST PUSH1 0x40 MLOAD DUP1 SWAP2 SUB SWAP1 RETURN JUMPDEST PUSH2 0x4F2 PUSH1 0x4 DUP1 CALLDATASIZE SUB DUP2 ADD SWAP1 PUSH2 0x4ED SWAP2 SWAP1 PUSH2 0x20A1 JUMP JUMPDEST PUSH2 0x1225 JUMP JUMPDEST STOP JUMPDEST PUSH2 0x4FC PUSH2 0x124A JUMP JUMPDEST PUSH1 0x40 MLOAD PUSH2 0x509 SWAP2 SWAP1 PUSH2 0x21C3 JUMP JUMPDEST PUSH1 0x40 MLOAD DUP1 SWAP2 SUB SWAP1 RETURN JUMPDEST PUSH2 0x51A PUSH2 0x135D JUMP JUMPDEST STOP JUMPDEST PUSH2 0x536 PUSH1 0x4 DUP1 CALLDATASIZE SUB DUP2 ADD SWAP1 PUSH2 0x531 SWAP2 SWAP1 PUSH2 0x1FA4 JUMP JUMPDEST PUSH2 0x15B7 JUMP JUMPDEST PUSH1 0x40 MLOAD PUSH2 0x543 SWAP2 SWAP1 PUSH2 0x1F5D JUMP JUMPDEST PUSH1 0x40 MLOAD DUP1 SWAP2 SUB SWAP1 RETURN JUMPDEST PUSH2 0x566 PUSH1 0x4 DUP1 CALLDATASIZE SUB DUP2 ADD SWAP1 PUSH2 0x561 SWAP2 SWAP1 PUSH2 0x1F17 JUMP JUMPDEST PUSH2 0x1615 JUMP JUMPDEST STOP JUMPDEST PUSH2 0x570 PUSH2 0x1699 JUMP JUMPDEST PUSH1 0x40 MLOAD PUSH2 0x57D SWAP2 SWAP1 PUSH2 0x205A JUMP JUMPDEST PUSH1 0x40 MLOAD DUP1 SWAP2 SUB SWAP1 RETURN JUMPDEST PUSH1 0x7 PUSH1 0x1 SWAP1 SLOAD SWAP1 PUSH2 0x100 EXP SWAP1 DIV PUSH1 0xFF AND DUP2 JUMP JUMPDEST PUSH2 0x5A1 PUSH2 0x16BF JUMP JUMPDEST DUP1 PUSH1 0x0 PUSH20 0xFFFFFFFFFFFFFFFFFFFFFFFFFFFFFFFFFFFFFFFF AND DUP2 PUSH20 0xFFFFFFFFFFFFFFFFFFFFFFFFFFFFFFFFFFFFFFFF AND EQ ISZERO PUSH2 0x612 JUMPI PUSH1 0x40 MLOAD PUSH32 0x8C379A000000000000000000000000000000000000000000000000000000000 DUP2 MSTORE PUSH1 0x4 ADD PUSH2 0x609 SWAP1 PUSH2 0x2242 JUMP JUMPDEST PUSH1 0x40 MLOAD DUP1 SWAP2 SUB SWAP1 REVERT JUMPDEST DUP2 PUSH1 0x3 PUSH1 0x0 PUSH2 0x100 EXP DUP2 SLOAD DUP2 PUSH20 0xFFFFFFFFFFFFFFFFFFFFFFFFFFFFFFFFFFFFFFFF MUL NOT AND SWAP1 DUP4 PUSH20 0xFFFFFFFFFFFFFFFFFFFFFFFFFFFFFFFFFFFFFFFF AND MUL OR SWAP1 SSTORE POP POP POP JUMP JUMPDEST PUSH1 0x0 DUP1 PUSH1 0x0 SWAP1 POP PUSH1 0x0 JUMPDEST PUSH1 0x9 DUP1 SLOAD SWAP1 POP DUP2 LT ISZERO PUSH2 0x6D5 JUMPI PUSH2 0x6B5 PUSH1 0x9 DUP3 DUP2 SLOAD DUP2 LT PUSH2 0x685 JUMPI PUSH2 0x684 PUSH2 0x2262 JUMP JUMPDEST JUMPDEST SWAP1 PUSH1 0x0 MSTORE PUSH1 0x20 PUSH1 0x0 KECCAK256 ADD PUSH1 0x0 SWAP1 SLOAD SWAP1 PUSH2 0x100 EXP SWAP1 DIV PUSH20 0xFFFFFFFFFFFFFFFFFFFFFFFFFFFFFFFFFFFFFFFF AND PUSH2 0xBD3 JUMP JUMPDEST DUP3 PUSH2 0x6C0 SWAP2 SWAP1 PUSH2 0x22C0 JUMP JUMPDEST SWAP2 POP DUP1 DUP1 PUSH2 0x6CD SWAP1 PUSH2 0x2316 JUMP JUMPDEST SWAP2 POP POP PUSH2 0x661 JUMP JUMPDEST POP DUP1 SWAP2 POP POP SWAP1 JUMP JUMPDEST PUSH1 0x9 DUP2 DUP2 SLOAD DUP2 LT PUSH2 0x6ED JUMPI PUSH1 0x0 DUP1 REVERT JUMPDEST SWAP1 PUSH1 0x0 MSTORE PUSH1 0x20 PUSH1 0x0 KECCAK256 ADD PUSH1 0x0 SWAP2 POP SLOAD SWAP1 PUSH2 0x100 EXP SWAP1 DIV PUSH20 0xFFFFFFFFFFFFFFFFFFFFFFFFFFFFFFFFFFFFFFFF AND DUP2 JUMP JUMPDEST PUSH1 0x0 PUSH1 0x8 PUSH1 0x0 DUP4 PUSH20 0xFFFFFFFFFFFFFFFFFFFFFFFFFFFFFFFFFFFFFFFF AND PUSH20 0xFFFFFFFFFFFFFFFFFFFFFFFFFFFFFFFFFFFFFFFF AND DUP2 MSTORE PUSH1 0x20 ADD SWAP1 DUP2 MSTORE PUSH1 0x20 ADD PUSH1 0x0 KECCAK256 PUSH1 0x2 ADD SLOAD SWAP1 POP SWAP2 SWAP1 POP JUMP JUMPDEST PUSH1 0x7 PUSH1 0x0 SWAP1 SLOAD SWAP1 PUSH2 0x100 EXP SWAP1 DIV PUSH1 0xFF AND DUP2 JUMP JUMPDEST PUSH2 0x783 PUSH2 0x173D JUMP JUMPDEST PUSH1 0x1 ISZERO ISZERO PUSH1 0x7 PUSH1 0x1 SWAP1 SLOAD SWAP1 PUSH2 0x100 EXP SWAP1 DIV PUSH1 0xFF AND ISZERO ISZERO EQ PUSH2 0x7D9 JUMPI PUSH1 0x40 MLOAD PUSH32 0x8C379A000000000000000000000000000000000000000000000000000000000 DUP2 MSTORE PUSH1 0x4 ADD PUSH2 0x7D0 SWAP1 PUSH2 0x23AB JUMP JUMPDEST PUSH1 0x40 MLOAD DUP1 SWAP2 SUB SWAP1 REVERT JUMPDEST PUSH2 0x7E1 PUSH2 0x1787 JUMP JUMPDEST PUSH1 0x0 CALLER SWAP1 POP DUP2 PUSH2 0x7F0 DUP3 PUSH2 0xCFC JUMP JUMPDEST LT ISZERO PUSH2 0x831 JUMPI PUSH1 0x40 MLOAD PUSH32 0x8C379A000000000000000000000000000000000000000000000000000000000 DUP2 MSTORE PUSH1 0x4 ADD PUSH2 0x828 SWAP1 PUSH2 0x2417 JUMP JUMPDEST PUSH1 0x40 MLOAD DUP1 SWAP2 SUB SWAP1 REVERT JUMPDEST PUSH2 0x83A DUP2 PUSH2 0xBD3 JUMP JUMPDEST PUSH1 0x8 PUSH1 0x0 DUP4 PUSH20 0xFFFFFFFFFFFFFFFFFFFFFFFFFFFFFFFFFFFFFFFF AND PUSH20 0xFFFFFFFFFFFFFFFFFFFFFFFFFFFFFFFFFFFFFFFF AND DUP2 MSTORE PUSH1 0x20 ADD SWAP1 DUP2 MSTORE PUSH1 0x20 ADD PUSH1 0x0 KECCAK256 PUSH1 0x1 ADD PUSH1 0x0 DUP3 DUP3 SLOAD PUSH2 0x88B SWAP2 SWAP1 PUSH2 0x22C0 JUMP JUMPDEST SWAP3 POP POP DUP2 SWAP1 SSTORE POP DUP2 PUSH1 0x8 PUSH1 0x0 DUP4 PUSH20 0xFFFFFFFFFFFFFFFFFFFFFFFFFFFFFFFFFFFFFFFF AND PUSH20 0xFFFFFFFFFFFFFFFFFFFFFFFFFFFFFFFFFFFFFFFF AND DUP2 MSTORE PUSH1 0x20 ADD SWAP1 DUP2 MSTORE PUSH1 0x20 ADD PUSH1 0x0 KECCAK256 PUSH1 0x0 ADD PUSH1 0x0 DUP3 DUP3 SLOAD PUSH2 0x8E4 SWAP2 SWAP1 PUSH2 0x2437 JUMP JUMPDEST SWAP3 POP POP DUP2 SWAP1 SSTORE POP TIMESTAMP PUSH1 0x8 PUSH1 0x0 DUP4 PUSH20 0xFFFFFFFFFFFFFFFFFFFFFFFFFFFFFFFFFFFFFFFF AND PUSH20 0xFFFFFFFFFFFFFFFFFFFFFFFFFFFFFFFFFFFFFFFF AND DUP2 MSTORE PUSH1 0x20 ADD SWAP1 DUP2 MSTORE PUSH1 0x20 ADD PUSH1 0x0 KECCAK256 PUSH1 0x2 ADD DUP2 SWAP1 SSTORE POP PUSH2 0x97F DUP2 DUP4 PUSH1 0x2 PUSH1 0x0 SWAP1 SLOAD SWAP1 PUSH2 0x100 EXP SWAP1 DIV PUSH20 0xFFFFFFFFFFFFFFFFFFFFFFFFFFFFFFFFFFFFFFFF AND PUSH20 0xFFFFFFFFFFFFFFFFFFFFFFFFFFFFFFFFFFFFFFFF AND PUSH2 0x17D7 SWAP1 SWAP3 SWAP2 SWAP1 PUSH4 0xFFFFFFFF AND JUMP JUMPDEST DUP2 PUSH1 0x6 PUSH1 0x0 DUP3 DUP3 SLOAD PUSH2 0x991 SWAP2 SWAP1 PUSH2 0x2437 JUMP JUMPDEST SWAP3 POP POP DUP2 SWAP1 SSTORE POP DUP1 PUSH20 0xFFFFFFFFFFFFFFFFFFFFFFFFFFFFFFFFFFFFFFFF AND PUSH32 0x7084F5476618D8E60B11EF0D7D3F06914655ADB8793E28FF7F018D4C76D505D5 DUP4 PUSH1 0x40 MLOAD PUSH2 0x9DE SWAP2 SWAP1 PUSH2 0x1F5D JUMP JUMPDEST PUSH1 0x40 MLOAD DUP1 SWAP2 SUB SWAP1 LOG2 POP PUSH2 0x9EF PUSH2 0x185D JUMP JUMPDEST POP JUMP JUMPDEST PUSH2 0x9FA PUSH2 0x16BF JUMP JUMPDEST PUSH1 0x0 DUP2 GT PUSH2 0xA3D JUMPI PUSH1 0x40 MLOAD PUSH32 0x8C379A000000000000000000000000000000000000000000000000000000000 DUP2 MSTORE PUSH1 0x4 ADD PUSH2 0xA34 SWAP1 PUSH2 0x24B7 JUMP JUMPDEST PUSH1 0x40 MLOAD DUP1 SWAP2 SUB SWAP1 REVERT JUMPDEST PUSH1 0x0 JUMPDEST PUSH1 0x9 DUP1 SLOAD SWAP1 POP DUP2 LT ISZERO PUSH2 0xBC8 JUMPI PUSH1 0x0 PUSH2 0xA96 PUSH1 0x9 DUP4 DUP2 SLOAD DUP2 LT PUSH2 0xA66 JUMPI PUSH2 0xA65 PUSH2 0x2262 JUMP JUMPDEST JUMPDEST SWAP1 PUSH1 0x0 MSTORE PUSH1 0x20 PUSH1 0x0 KECCAK256 ADD PUSH1 0x0 SWAP1 SLOAD SWAP1 PUSH2 0x100 EXP SWAP1 DIV PUSH20 0xFFFFFFFFFFFFFFFFFFFFFFFFFFFFFFFFFFFFFFFF AND PUSH2 0xBD3 JUMP JUMPDEST SWAP1 POP DUP1 PUSH1 0x8 PUSH1 0x0 PUSH1 0x9 DUP6 DUP2 SLOAD DUP2 LT PUSH2 0xAB1 JUMPI PUSH2 0xAB0 PUSH2 0x2262 JUMP JUMPDEST JUMPDEST SWAP1 PUSH1 0x0 MSTORE PUSH1 0x20 PUSH1 0x0 KECCAK256 ADD PUSH1 0x0 SWAP1 SLOAD SWAP1 PUSH2 0x100 EXP SWAP1 DIV PUSH20 0xFFFFFFFFFFFFFFFFFFFFFFFFFFFFFFFFFFFFFFFF AND PUSH20 0xFFFFFFFFFFFFFFFFFFFFFFFFFFFFFFFFFFFFFFFF AND PUSH20 0xFFFFFFFFFFFFFFFFFFFFFFFFFFFFFFFFFFFFFFFF AND DUP2 MSTORE PUSH1 0x20 ADD SWAP1 DUP2 MSTORE PUSH1 0x20 ADD PUSH1 0x0 KECCAK256 PUSH1 0x1 ADD PUSH1 0x0 DUP3 DUP3 SLOAD PUSH2 0xB28 SWAP2 SWAP1 PUSH2 0x22C0 JUMP JUMPDEST SWAP3 POP POP DUP2 SWAP1 SSTORE POP TIMESTAMP PUSH1 0x8 PUSH1 0x0 PUSH1 0x9 DUP6 DUP2 SLOAD DUP2 LT PUSH2 0xB48 JUMPI PUSH2 0xB47 PUSH2 0x2262 JUMP JUMPDEST JUMPDEST SWAP1 PUSH1 0x0 MSTORE PUSH1 0x20 PUSH1 0x0 KECCAK256 ADD PUSH1 0x0 SWAP1 SLOAD SWAP1 PUSH2 0x100 EXP SWAP1 DIV PUSH20 0xFFFFFFFFFFFFFFFFFFFFFFFFFFFFFFFFFFFFFFFF AND PUSH20 0xFFFFFFFFFFFFFFFFFFFFFFFFFFFFFFFFFFFFFFFF AND PUSH20 0xFFFFFFFFFFFFFFFFFFFFFFFFFFFFFFFFFFFFFFFF AND DUP2 MSTORE PUSH1 0x20 ADD SWAP1 DUP2 MSTORE PUSH1 0x20 ADD PUSH1 0x0 KECCAK256 PUSH1 0x2 ADD DUP2 SWAP1 SSTORE POP POP DUP1 DUP1 PUSH2 0xBC0 SWAP1 PUSH2 0x2316 JUMP JUMPDEST SWAP2 POP POP PUSH2 0xA40 JUMP JUMPDEST POP DUP1 PUSH1 0x4 DUP2 SWAP1 SSTORE POP POP JUMP JUMPDEST PUSH1 0x0 DUP1 PUSH4 0x1DFE200 PUSH1 0x64 PUSH1 0x4 SLOAD PUSH2 0xBE9 DUP7 PUSH2 0xCFC JUMP JUMPDEST PUSH2 0xBF3 SWAP2 SWAP1 PUSH2 0x24D7 JUMP JUMPDEST PUSH2 0xBFD SWAP2 SWAP1 PUSH2 0x2560 JUMP JUMPDEST PUSH2 0xC07 SWAP2 SWAP1 PUSH2 0x2560 JUMP JUMPDEST SWAP1 POP PUSH1 0x0 PUSH2 0xC14 DUP5 PUSH2 0x71C JUMP JUMPDEST TIMESTAMP PUSH2 0xC1F SWAP2 SWAP1 PUSH2 0x2437 JUMP JUMPDEST SWAP1 POP DUP1 DUP3 PUSH2 0xC2D SWAP2 SWAP1 PUSH2 0x24D7 JUMP JUMPDEST SWAP3 POP POP POP SWAP2 SWAP1 POP JUMP JUMPDEST PUSH1 0x4 SLOAD DUP2 JUMP JUMPDEST PUSH2 0xC44 PUSH2 0x16BF JUMP JUMPDEST PUSH2 0xC4C PUSH2 0x1867 JUMP JUMPDEST JUMP JUMPDEST PUSH1 0x0 PUSH1 0x8 PUSH1 0x0 DUP4 PUSH20 0xFFFFFFFFFFFFFFFFFFFFFFFFFFFFFFFFFFFFFFFF AND PUSH20 0xFFFFFFFFFFFFFFFFFFFFFFFFFFFFFFFFFFFFFFFF AND DUP2 MSTORE PUSH1 0x20 ADD SWAP1 DUP2 MSTORE PUSH1 0x20 ADD PUSH1 0x0 KECCAK256 PUSH1 0x1 ADD SLOAD SWAP1 POP SWAP2 SWAP1 POP JUMP JUMPDEST PUSH1 0x2 PUSH1 0x0 SWAP1 SLOAD SWAP1 PUSH2 0x100 EXP SWAP1 DIV PUSH20 0xFFFFFFFFFFFFFFFFFFFFFFFFFFFFFFFFFFFFFFFF AND DUP2 JUMP JUMPDEST PUSH1 0x0 PUSH1 0x1 PUSH1 0x14 SWAP1 SLOAD SWAP1 PUSH2 0x100 EXP SWAP1 DIV PUSH1 0xFF AND SWAP1 POP SWAP1 JUMP JUMPDEST PUSH2 0xCDF PUSH2 0x16BF JUMP JUMPDEST DUP1 PUSH1 0x7 PUSH1 0x0 PUSH2 0x100 EXP DUP2 SLOAD DUP2 PUSH1 0xFF MUL NOT AND SWAP1 DUP4 ISZERO ISZERO MUL OR SWAP1 SSTORE POP POP JUMP JUMPDEST PUSH1 0x0 PUSH1 0x8 PUSH1 0x0 DUP4 PUSH20 0xFFFFFFFFFFFFFFFFFFFFFFFFFFFFFFFFFFFFFFFF AND PUSH20 0xFFFFFFFFFFFFFFFFFFFFFFFFFFFFFFFFFFFFFFFF AND DUP2 MSTORE PUSH1 0x20 ADD SWAP1 DUP2 MSTORE PUSH1 0x20 ADD PUSH1 0x0 KECCAK256 PUSH1 0x0 ADD SLOAD SWAP1 POP SWAP2 SWAP1 POP JUMP JUMPDEST PUSH2 0xD50 PUSH2 0x16BF JUMP JUMPDEST PUSH2 0xD5A PUSH1 0x0 PUSH2 0x18CA JUMP JUMPDEST JUMP JUMPDEST PUSH1 0x5 SLOAD DUP2 JUMP JUMPDEST PUSH1 0x6 SLOAD DUP2 JUMP JUMPDEST PUSH2 0xD70 PUSH2 0x16BF JUMP JUMPDEST PUSH2 0xD78 PUSH2 0x1990 JUMP JUMPDEST JUMP JUMPDEST PUSH2 0xD82 PUSH2 0x173D JUMP JUMPDEST PUSH1 0x1 ISZERO ISZERO PUSH1 0x7 PUSH1 0x1 SWAP1 SLOAD SWAP1 PUSH2 0x100 EXP SWAP1 DIV PUSH1 0xFF AND ISZERO ISZERO EQ PUSH2 0xDD8 JUMPI PUSH1 0x40 MLOAD PUSH32 0x8C379A000000000000000000000000000000000000000000000000000000000 DUP2 MSTORE PUSH1 0x4 ADD PUSH2 0xDCF SWAP1 PUSH2 0x23AB JUMP JUMPDEST PUSH1 0x40 MLOAD DUP1 SWAP2 SUB SWAP1 REVERT JUMPDEST PUSH2 0xDE0 PUSH2 0x1787 JUMP JUMPDEST PUSH2 0xE2B PUSH1 0x8 PUSH1 0x0 CALLER PUSH20 0xFFFFFFFFFFFFFFFFFFFFFFFFFFFFFFFFFFFFFFFF AND PUSH20 0xFFFFFFFFFFFFFFFFFFFFFFFFFFFFFFFFFFFFFFFF AND DUP2 MSTORE PUSH1 0x20 ADD SWAP1 DUP2 MSTORE PUSH1 0x20 ADD PUSH1 0x0 KECCAK256 PUSH1 0x0 ADD SLOAD PUSH2 0x77B JUMP JUMPDEST PUSH2 0xE33 PUSH2 0x185D JUMP JUMPDEST JUMP JUMPDEST PUSH1 0x0 PUSH1 0x1 PUSH1 0x0 SWAP1 SLOAD SWAP1 PUSH2 0x100 EXP SWAP1 DIV PUSH20 0xFFFFFFFFFFFFFFFFFFFFFFFFFFFFFFFFFFFFFFFF AND SWAP1 POP SWAP1 JUMP JUMPDEST PUSH2 0xE67 PUSH2 0x16BF JUMP JUMPDEST PUSH1 0x0 PUSH1 0x5 SLOAD GT PUSH2 0xEAC JUMPI PUSH1 0x40 MLOAD PUSH32 0x8C379A000000000000000000000000000000000000000000000000000000000 DUP2 MSTORE PUSH1 0x4 ADD PUSH2 0xEA3 SWAP1 PUSH2 0x25DD JUMP JUMPDEST PUSH1 0x40 MLOAD DUP1 SWAP2 SUB SWAP1 REVERT JUMPDEST PUSH1 0x0 PUSH1 0x5 SLOAD SWAP1 POP PUSH2 0xF02 CALLER PUSH1 0x5 SLOAD PUSH1 0x3 PUSH1 0x0 SWAP1 SLOAD SWAP1 PUSH2 0x100 EXP SWAP1 DIV PUSH20 0xFFFFFFFFFFFFFFFFFFFFFFFFFFFFFFFFFFFFFFFF AND PUSH20 0xFFFFFFFFFFFFFFFFFFFFFFFFFFFFFFFFFFFFFFFF AND PUSH2 0x17D7 SWAP1 SWAP3 SWAP2 SWAP1 PUSH4 0xFFFFFFFF AND JUMP JUMPDEST PUSH1 0x0 PUSH1 0x5 DUP2 SWAP1 SSTORE POP CALLER PUSH20 0xFFFFFFFFFFFFFFFFFFFFFFFFFFFFFFFFFFFFFFFF AND PUSH32 0xF1A6DC288DC8834523E8A24C26BD78B17388DF942EE9044AB8E959E70366D9CB DUP3 PUSH1 0x40 MLOAD PUSH2 0xF50 SWAP2 SWAP1 PUSH2 0x1F5D JUMP JUMPDEST PUSH1 0x40 MLOAD DUP1 SWAP2 SUB SWAP1 LOG2 POP JUMP JUMPDEST PUSH2 0xF63 PUSH2 0x173D JUMP JUMPDEST PUSH1 0x1 ISZERO ISZERO PUSH1 0x7 PUSH1 0x0 SWAP1 SLOAD SWAP1 PUSH2 0x100 EXP SWAP1 DIV PUSH1 0xFF AND ISZERO ISZERO EQ PUSH2 0xFB9 JUMPI PUSH1 0x40 MLOAD PUSH32 0x8C379A000000000000000000000000000000000000000000000000000000000 DUP2 MSTORE PUSH1 0x4 ADD PUSH2 0xFB0 SWAP1 PUSH2 0x2649 JUMP JUMPDEST PUSH1 0x40 MLOAD DUP1 SWAP2 SUB SWAP1 REVERT JUMPDEST DUP1 PUSH8 0xDE0B6B3A7640000 DUP2 GT PUSH2 0x1004 JUMPI PUSH1 0x40 MLOAD PUSH32 0x8C379A000000000000000000000000000000000000000000000000000000000 DUP2 MSTORE PUSH1 0x4 ADD PUSH2 0xFFB SWAP1 PUSH2 0x26B5 JUMP JUMPDEST PUSH1 0x40 MLOAD DUP1 SWAP2 SUB SWAP1 REVERT JUMPDEST PUSH2 0x100C PUSH2 0x1787 JUMP JUMPDEST PUSH1 0x0 CALLER SWAP1 POP PUSH2 0x1060 DUP2 ADDRESS DUP6 PUSH1 0x2 PUSH1 0x0 SWAP1 SLOAD SWAP1 PUSH2 0x100 EXP SWAP1 DIV PUSH20 0xFFFFFFFFFFFFFFFFFFFFFFFFFFFFFFFFFFFFFFFF AND PUSH20 0xFFFFFFFFFFFFFFFFFFFFFFFFFFFFFFFFFFFFFFFF AND PUSH2 0x19F2 SWAP1 SWAP4 SWAP3 SWAP2 SWAP1 PUSH4 0xFFFFFFFF AND JUMP JUMPDEST PUSH1 0x0 PUSH2 0x106B DUP3 PUSH2 0xBD3 JUMP JUMPDEST SWAP1 POP DUP1 PUSH1 0x8 PUSH1 0x0 DUP5 PUSH20 0xFFFFFFFFFFFFFFFFFFFFFFFFFFFFFFFFFFFFFFFF AND PUSH20 0xFFFFFFFFFFFFFFFFFFFFFFFFFFFFFFFFFFFFFFFF AND DUP2 MSTORE PUSH1 0x20 ADD SWAP1 DUP2 MSTORE PUSH1 0x20 ADD PUSH1 0x0 KECCAK256 PUSH1 0x1 ADD PUSH1 0x0 DUP3 DUP3 SLOAD PUSH2 0x10BF SWAP2 SWAP1 PUSH2 0x22C0 JUMP JUMPDEST SWAP3 POP POP DUP2 SWAP1 SSTORE POP DUP4 PUSH1 0x8 PUSH1 0x0 DUP5 PUSH20 0xFFFFFFFFFFFFFFFFFFFFFFFFFFFFFFFFFFFFFFFF AND PUSH20 0xFFFFFFFFFFFFFFFFFFFFFFFFFFFFFFFFFFFFFFFF AND DUP2 MSTORE PUSH1 0x20 ADD SWAP1 DUP2 MSTORE PUSH1 0x20 ADD PUSH1 0x0 KECCAK256 PUSH1 0x0 ADD PUSH1 0x0 DUP3 DUP3 SLOAD PUSH2 0x1118 SWAP2 SWAP1 PUSH2 0x22C0 JUMP JUMPDEST SWAP3 POP POP DUP2 SWAP1 SSTORE POP TIMESTAMP PUSH1 0x8 PUSH1 0x0 DUP5 PUSH20 0xFFFFFFFFFFFFFFFFFFFFFFFFFFFFFFFFFFFFFFFF AND PUSH20 0xFFFFFFFFFFFFFFFFFFFFFFFFFFFFFFFFFFFFFFFF AND DUP2 MSTORE PUSH1 0x20 ADD SWAP1 DUP2 MSTORE PUSH1 0x20 ADD PUSH1 0x0 KECCAK256 PUSH1 0x2 ADD DUP2 SWAP1 SSTORE POP DUP4 PUSH1 0x6 PUSH1 0x0 DUP3 DUP3 SLOAD PUSH2 0x1178 SWAP2 SWAP1 PUSH2 0x22C0 JUMP JUMPDEST SWAP3 POP POP DUP2 SWAP1 SSTORE POP PUSH1 0x7 PUSH1 0x2 SWAP1 SLOAD SWAP1 PUSH2 0x100 EXP SWAP1 DIV PUSH1 0xFF AND ISZERO PUSH2 0x119F JUMPI PUSH2 0x119D DUP3 PUSH2 0x1A7B JUMP JUMPDEST POP JUMPDEST DUP2 PUSH20 0xFFFFFFFFFFFFFFFFFFFFFFFFFFFFFFFFFFFFFFFF AND PUSH32 0x9E71BC8EEA02A63969F509818F2DAFB9254532904319F9DBDA79B67BD34A5F3D DUP6 PUSH1 0x40 MLOAD PUSH2 0x11E5 SWAP2 SWAP1 PUSH2 0x1F5D JUMP JUMPDEST PUSH1 0x40 MLOAD DUP1 SWAP2 SUB SWAP1 LOG2 POP POP PUSH2 0x11F7 PUSH2 0x185D JUMP JUMPDEST POP POP JUMP JUMPDEST PUSH1 0x8 PUSH1 0x20 MSTORE DUP1 PUSH1 0x0 MSTORE PUSH1 0x40 PUSH1 0x0 KECCAK256 PUSH1 0x0 SWAP2 POP SWAP1 POP DUP1 PUSH1 0x0 ADD SLOAD SWAP1 DUP1 PUSH1 0x1 ADD SLOAD SWAP1 DUP1 PUSH1 0x2 ADD SLOAD SWAP1 POP DUP4 JUMP JUMPDEST PUSH2 0x122D PUSH2 0x16BF JUMP JUMPDEST DUP1 PUSH1 0x7 PUSH1 0x1 PUSH2 0x100 EXP DUP2 SLOAD DUP2 PUSH1 0xFF MUL NOT AND SWAP1 DUP4 ISZERO ISZERO MUL OR SWAP1 SSTORE POP POP JUMP JUMPDEST PUSH1 0x60 PUSH2 0x1254 PUSH2 0x16BF JUMP JUMPDEST PUSH1 0x0 PUSH1 0x9 DUP1 SLOAD SWAP1 POP PUSH8 0xFFFFFFFFFFFFFFFF DUP2 GT ISZERO PUSH2 0x1275 JUMPI PUSH2 0x1274 PUSH2 0x26D5 JUMP JUMPDEST JUMPDEST PUSH1 0x40 MLOAD SWAP1 DUP1 DUP3 MSTORE DUP1 PUSH1 0x20 MUL PUSH1 0x20 ADD DUP3 ADD PUSH1 0x40 MSTORE DUP1 ISZERO PUSH2 0x12A3 JUMPI DUP2 PUSH1 0x20 ADD PUSH1 0x20 DUP3 MUL DUP1 CALLDATASIZE DUP4 CALLDATACOPY DUP1 DUP3 ADD SWAP2 POP POP SWAP1 POP JUMPDEST POP SWAP1 POP PUSH1 0x0 JUMPDEST PUSH1 0x9 DUP1 SLOAD SWAP1 POP DUP2 LT ISZERO PUSH2 0x1355 JUMPI PUSH1 0x9 DUP2 DUP2 SLOAD DUP2 LT PUSH2 0x12CA JUMPI PUSH2 0x12C9 PUSH2 0x2262 JUMP JUMPDEST JUMPDEST SWAP1 PUSH1 0x0 MSTORE PUSH1 0x20 PUSH1 0x0 KECCAK256 ADD PUSH1 0x0 SWAP1 SLOAD SWAP1 PUSH2 0x100 EXP SWAP1 DIV PUSH20 0xFFFFFFFFFFFFFFFFFFFFFFFFFFFFFFFFFFFFFFFF AND DUP3 DUP3 DUP2 MLOAD DUP2 LT PUSH2 0x1308 JUMPI PUSH2 0x1307 PUSH2 0x2262 JUMP JUMPDEST JUMPDEST PUSH1 0x20 MUL PUSH1 0x20 ADD ADD SWAP1 PUSH20 0xFFFFFFFFFFFFFFFFFFFFFFFFFFFFFFFFFFFFFFFF AND SWAP1 DUP2 PUSH20 0xFFFFFFFFFFFFFFFFFFFFFFFFFFFFFFFFFFFFFFFF AND DUP2 MSTORE POP POP DUP1 DUP1 PUSH2 0x134D SWAP1 PUSH2 0x2316 JUMP JUMPDEST SWAP2 POP POP PUSH2 0x12A9 JUMP JUMPDEST POP DUP1 SWAP2 POP POP SWAP1 JUMP JUMPDEST PUSH2 0x1365 PUSH2 0x173D JUMP JUMPDEST PUSH2 0x136D PUSH2 0x1787 JUMP JUMPDEST PUSH1 0x0 CALLER SWAP1 POP PUSH2 0x137B DUP2 PUSH2 0xBD3 JUMP JUMPDEST PUSH1 0x8 PUSH1 0x0 DUP4 PUSH20 0xFFFFFFFFFFFFFFFFFFFFFFFFFFFFFFFFFFFFFFFF AND PUSH20 0xFFFFFFFFFFFFFFFFFFFFFFFFFFFFFFFFFFFFFFFF AND DUP2 MSTORE PUSH1 0x20 ADD SWAP1 DUP2 MSTORE PUSH1 0x20 ADD PUSH1 0x0 KECCAK256 PUSH1 0x1 ADD PUSH1 0x0 DUP3 DUP3 SLOAD PUSH2 0x13CC SWAP2 SWAP1 PUSH2 0x22C0 JUMP JUMPDEST SWAP3 POP POP DUP2 SWAP1 SSTORE POP PUSH1 0x0 PUSH2 0x13DE DUP3 PUSH2 0xC4E JUMP JUMPDEST SWAP1 POP PUSH1 0x0 DUP2 GT PUSH2 0x1423 JUMPI PUSH1 0x40 MLOAD PUSH32 0x8C379A000000000000000000000000000000000000000000000000000000000 DUP2 MSTORE PUSH1 0x4 ADD PUSH2 0x141A SWAP1 PUSH2 0x2750 JUMP JUMPDEST PUSH1 0x40 MLOAD DUP1 SWAP2 SUB SWAP1 REVERT JUMPDEST DUP1 PUSH1 0x5 SLOAD LT ISZERO PUSH2 0x1468 JUMPI PUSH1 0x40 MLOAD PUSH32 0x8C379A000000000000000000000000000000000000000000000000000000000 DUP2 MSTORE PUSH1 0x4 ADD PUSH2 0x145F SWAP1 PUSH2 0x27BC JUMP JUMPDEST PUSH1 0x40 MLOAD DUP1 SWAP2 SUB SWAP1 REVERT JUMPDEST PUSH1 0x0 PUSH1 0x8 PUSH1 0x0 DUP5 PUSH20 0xFFFFFFFFFFFFFFFFFFFFFFFFFFFFFFFFFFFFFFFF AND PUSH20 0xFFFFFFFFFFFFFFFFFFFFFFFFFFFFFFFFFFFFFFFF AND DUP2 MSTORE PUSH1 0x20 ADD SWAP1 DUP2 MSTORE PUSH1 0x20 ADD PUSH1 0x0 KECCAK256 PUSH1 0x1 ADD DUP2 SWAP1 SSTORE POP TIMESTAMP PUSH1 0x8 PUSH1 0x0 DUP5 PUSH20 0xFFFFFFFFFFFFFFFFFFFFFFFFFFFFFFFFFFFFFFFF AND PUSH20 0xFFFFFFFFFFFFFFFFFFFFFFFFFFFFFFFFFFFFFFFF AND DUP2 MSTORE PUSH1 0x20 ADD SWAP1 DUP2 MSTORE PUSH1 0x20 ADD PUSH1 0x0 KECCAK256 PUSH1 0x2 ADD DUP2 SWAP1 SSTORE POP PUSH2 0x1544 DUP3 DUP3 PUSH1 0x3 PUSH1 0x0 SWAP1 SLOAD SWAP1 PUSH2 0x100 EXP SWAP1 DIV PUSH20 0xFFFFFFFFFFFFFFFFFFFFFFFFFFFFFFFFFFFFFFFF AND PUSH20 0xFFFFFFFFFFFFFFFFFFFFFFFFFFFFFFFFFFFFFFFF AND PUSH2 0x17D7 SWAP1 SWAP3 SWAP2 SWAP1 PUSH4 0xFFFFFFFF AND JUMP JUMPDEST DUP1 PUSH1 0x5 PUSH1 0x0 DUP3 DUP3 SLOAD PUSH2 0x1556 SWAP2 SWAP1 PUSH2 0x2437 JUMP JUMPDEST SWAP3 POP POP DUP2 SWAP1 SSTORE POP DUP2 PUSH20 0xFFFFFFFFFFFFFFFFFFFFFFFFFFFFFFFFFFFFFFFF AND PUSH32 0x106F923F993C2149D49B4255FF723ACAFA1F2D94393F561D3EDA32AE348F7241 DUP3 PUSH1 0x40 MLOAD PUSH2 0x15A3 SWAP2 SWAP1 PUSH2 0x1F5D JUMP JUMPDEST PUSH1 0x40 MLOAD DUP1 SWAP2 SUB SWAP1 LOG2 POP POP PUSH2 0x15B5 PUSH2 0x185D JUMP JUMPDEST JUMP JUMPDEST PUSH1 0x0 PUSH2 0x15C1 PUSH2 0x16BF JUMP JUMPDEST DUP2 PUSH8 0xDE0B6B3A7640000 DUP2 GT PUSH2 0x160C JUMPI PUSH1 0x40 MLOAD PUSH32 0x8C379A000000000000000000000000000000000000000000000000000000000 DUP2 MSTORE PUSH1 0x4 ADD PUSH2 0x1603 SWAP1 PUSH2 0x26B5 JUMP JUMPDEST PUSH1 0x40 MLOAD DUP1 SWAP2 SUB SWAP1 REVERT JUMPDEST DUP3 SWAP2 POP POP SWAP2 SWAP1 POP JUMP JUMPDEST PUSH2 0x161D PUSH2 0x16BF JUMP JUMPDEST PUSH1 0x0 PUSH20 0xFFFFFFFFFFFFFFFFFFFFFFFFFFFFFFFFFFFFFFFF AND DUP2 PUSH20 0xFFFFFFFFFFFFFFFFFFFFFFFFFFFFFFFFFFFFFFFF AND EQ ISZERO PUSH2 0x168D JUMPI PUSH1 0x40 MLOAD PUSH32 0x8C379A000000000000000000000000000000000000000000000000000000000 DUP2 MSTORE PUSH1 0x4 ADD PUSH2 0x1684 SWAP1 PUSH2 0x284E JUMP JUMPDEST PUSH1 0x40 MLOAD DUP1 SWAP2 SUB SWAP1 REVERT JUMPDEST PUSH2 0x1696 DUP2 PUSH2 0x18CA JUMP JUMPDEST POP JUMP JUMPDEST PUSH1 0x3 PUSH1 0x0 SWAP1 SLOAD SWAP1 PUSH2 0x100 EXP SWAP1 DIV PUSH20 0xFFFFFFFFFFFFFFFFFFFFFFFFFFFFFFFFFFFFFFFF AND DUP2 JUMP JUMPDEST PUSH2 0x16C7 PUSH2 0x1B98 JUMP JUMPDEST PUSH20 0xFFFFFFFFFFFFFFFFFFFFFFFFFFFFFFFFFFFFFFFF AND PUSH2 0x16E5 PUSH2 0xE35 JUMP JUMPDEST PUSH20 0xFFFFFFFFFFFFFFFFFFFFFFFFFFFFFFFFFFFFFFFF AND EQ PUSH2 0x173B JUMPI PUSH1 0x40 MLOAD PUSH32 0x8C379A000000000000000000000000000000000000000000000000000000000 DUP2 MSTORE PUSH1 0x4 ADD PUSH2 0x1732 SWAP1 PUSH2 0x28BA JUMP JUMPDEST PUSH1 0x40 MLOAD DUP1 SWAP2 SUB SWAP1 REVERT JUMPDEST JUMP JUMPDEST PUSH2 0x1745 PUSH2 0xCC0 JUMP JUMPDEST ISZERO PUSH2 0x1785 JUMPI PUSH1 0x40 MLOAD PUSH32 0x8C379A000000000000000000000000000000000000000000000000000000000 DUP2 MSTORE PUSH1 0x4 ADD PUSH2 0x177C SWAP1 PUSH2 0x2926 JUMP JUMPDEST PUSH1 0x40 MLOAD DUP1 SWAP2 SUB SWAP1 REVERT JUMPDEST JUMP JUMPDEST PUSH1 0x2 PUSH1 0x0 SLOAD EQ ISZERO PUSH2 0x17CD JUMPI PUSH1 0x40 MLOAD PUSH32 0x8C379A000000000000000000000000000000000000000000000000000000000 DUP2 MSTORE PUSH1 0x4 ADD PUSH2 0x17C4 SWAP1 PUSH2 0x2992 JUMP JUMPDEST PUSH1 0x40 MLOAD DUP1 SWAP2 SUB SWAP1 REVERT JUMPDEST PUSH1 0x2 PUSH1 0x0 DUP2 SWAP1 SSTORE POP JUMP JUMPDEST PUSH2 0x1858 DUP4 PUSH4 0xA9059CBB PUSH1 0xE0 SHL DUP5 DUP5 PUSH1 0x40 MLOAD PUSH1 0x24 ADD PUSH2 0x17F6 SWAP3 SWAP2 SWAP1 PUSH2 0x29B2 JUMP JUMPDEST PUSH1 0x40 MLOAD PUSH1 0x20 DUP2 DUP4 SUB SUB DUP2 MSTORE SWAP1 PUSH1 0x40 MSTORE SWAP1 PUSH28 0xFFFFFFFFFFFFFFFFFFFFFFFFFFFFFFFFFFFFFFFFFFFFFFFFFFFFFFFF NOT AND PUSH1 0x20 DUP3 ADD DUP1 MLOAD PUSH28 0xFFFFFFFFFFFFFFFFFFFFFFFFFFFFFFFFFFFFFFFFFFFFFFFFFFFFFFFF DUP4 DUP2 DUP4 AND OR DUP4 MSTORE POP POP POP POP PUSH2 0x1BA0 JUMP JUMPDEST POP POP POP JUMP JUMPDEST PUSH1 0x1 PUSH1 0x0 DUP2 SWAP1 SSTORE POP JUMP JUMPDEST PUSH2 0x186F PUSH2 0x1C67 JUMP JUMPDEST PUSH1 0x0 PUSH1 0x1 PUSH1 0x14 PUSH2 0x100 EXP DUP2 SLOAD DUP2 PUSH1 0xFF MUL NOT AND SWAP1 DUP4 ISZERO ISZERO MUL OR SWAP1 SSTORE POP PUSH32 0x5DB9EE0A495BF2E6FF9C91A7834C1BA4FDD244A5E8AA4E537BD38AEAE4B073AA PUSH2 0x18B3 PUSH2 0x1B98 JUMP JUMPDEST PUSH1 0x40 MLOAD PUSH2 0x18C0 SWAP2 SWAP1 PUSH2 0x1FE0 JUMP JUMPDEST PUSH1 0x40 MLOAD DUP1 SWAP2 SUB SWAP1 LOG1 JUMP JUMPDEST PUSH1 0x0 PUSH1 0x1 PUSH1 0x0 SWAP1 SLOAD SWAP1 PUSH2 0x100 EXP SWAP1 DIV PUSH20 0xFFFFFFFFFFFFFFFFFFFFFFFFFFFFFFFFFFFFFFFF AND SWAP1 POP DUP2 PUSH1 0x1 PUSH1 0x0 PUSH2 0x100 EXP DUP2 SLOAD DUP2 PUSH20 0xFFFFFFFFFFFFFFFFFFFFFFFFFFFFFFFFFFFFFFFF MUL NOT AND SWAP1 DUP4 PUSH20 0xFFFFFFFFFFFFFFFFFFFFFFFFFFFFFFFFFFFFFFFF AND MUL OR SWAP1 SSTORE POP DUP2 PUSH20 0xFFFFFFFFFFFFFFFFFFFFFFFFFFFFFFFFFFFFFFFF AND DUP2 PUSH20 0xFFFFFFFFFFFFFFFFFFFFFFFFFFFFFFFFFFFFFFFF AND PUSH32 0x8BE0079C531659141344CD1FD0A4F28419497F9722A3DAAFE3B4186F6B6457E0 PUSH1 0x40 MLOAD PUSH1 0x40 MLOAD DUP1 SWAP2 SUB SWAP1 LOG3 POP POP JUMP JUMPDEST PUSH2 0x1998 PUSH2 0x173D JUMP JUMPDEST PUSH1 0x1 DUP1 PUSH1 0x14 PUSH2 0x100 EXP DUP2 SLOAD DUP2 PUSH1 0xFF MUL NOT AND SWAP1 DUP4 ISZERO ISZERO MUL OR SWAP1 SSTORE POP PUSH32 0x62E78CEA01BEE320CD4E420270B5EA74000D11B0C9F74754EBDBFC544B05A258 PUSH2 0x19DB PUSH2 0x1B98 JUMP JUMPDEST PUSH1 0x40 MLOAD PUSH2 0x19E8 SWAP2 SWAP1 PUSH2 0x1FE0 JUMP JUMPDEST PUSH1 0x40 MLOAD DUP1 SWAP2 SUB SWAP1 LOG1 JUMP JUMPDEST PUSH2 0x1A75 DUP5 PUSH4 0x23B872DD PUSH1 0xE0 SHL DUP6 DUP6 DUP6 PUSH1 0x40 MLOAD PUSH1 0x24 ADD PUSH2 0x1A13 SWAP4 SWAP3 SWAP2 SWAP1 PUSH2 0x29DB JUMP JUMPDEST PUSH1 0x40 MLOAD PUSH1 0x20 DUP2 DUP4 SUB SUB DUP2 MSTORE SWAP1 PUSH1 0x40 MSTORE SWAP1 PUSH28 0xFFFFFFFFFFFFFFFFFFFFFFFFFFFFFFFFFFFFFFFFFFFFFFFFFFFFFFFF NOT AND PUSH1 0x20 DUP3 ADD DUP1 MLOAD PUSH28 0xFFFFFFFFFFFFFFFFFFFFFFFFFFFFFFFFFFFFFFFFFFFFFFFFFFFFFFFF DUP4 DUP2 DUP4 AND OR DUP4 MSTORE POP POP POP POP PUSH2 0x1BA0 JUMP JUMPDEST POP POP POP POP JUMP JUMPDEST PUSH1 0x0 DUP1 PUSH1 0x1 SWAP1 POP PUSH1 0x0 JUMPDEST PUSH1 0x9 DUP1 SLOAD SWAP1 POP DUP2 LT ISZERO PUSH2 0x1B24 JUMPI DUP4 PUSH20 0xFFFFFFFFFFFFFFFFFFFFFFFFFFFFFFFFFFFFFFFF AND PUSH1 0x9 DUP3 DUP2 SLOAD DUP2 LT PUSH2 0x1ABD JUMPI PUSH2 0x1ABC PUSH2 0x2262 JUMP JUMPDEST JUMPDEST SWAP1 PUSH1 0x0 MSTORE PUSH1 0x20 PUSH1 0x0 KECCAK256 ADD PUSH1 0x0 SWAP1 SLOAD SWAP1 PUSH2 0x100 EXP SWAP1 DIV PUSH20 0xFFFFFFFFFFFFFFFFFFFFFFFFFFFFFFFFFFFFFFFF AND PUSH20 0xFFFFFFFFFFFFFFFFFFFFFFFFFFFFFFFFFFFFFFFF AND EQ ISZERO PUSH2 0x1B11 JUMPI PUSH1 0x0 SWAP2 POP PUSH1 0x9 DUP1 SLOAD SWAP1 POP SWAP1 POP JUMPDEST DUP1 DUP1 PUSH2 0x1B1C SWAP1 PUSH2 0x2316 JUMP JUMPDEST SWAP2 POP POP PUSH2 0x1A85 JUMP JUMPDEST POP DUP1 ISZERO PUSH2 0x1B8F JUMPI PUSH1 0x9 DUP4 SWAP1 DUP1 PUSH1 0x1 DUP2 SLOAD ADD DUP1 DUP3 SSTORE DUP1 SWAP2 POP POP PUSH1 0x1 SWAP1 SUB SWAP1 PUSH1 0x0 MSTORE PUSH1 0x20 PUSH1 0x0 KECCAK256 ADD PUSH1 0x0 SWAP1 SWAP2 SWAP1 SWAP2 SWAP1 SWAP2 PUSH2 0x100 EXP DUP2 SLOAD DUP2 PUSH20 0xFFFFFFFFFFFFFFFFFFFFFFFFFFFFFFFFFFFFFFFF MUL NOT AND SWAP1 DUP4 PUSH20 0xFFFFFFFFFFFFFFFFFFFFFFFFFFFFFFFFFFFFFFFF AND MUL OR SWAP1 SSTORE POP JUMPDEST DUP1 SWAP2 POP POP SWAP2 SWAP1 POP JUMP JUMPDEST PUSH1 0x0 CALLER SWAP1 POP SWAP1 JUMP JUMPDEST PUSH1 0x0 PUSH2 0x1C02 DUP3 PUSH1 0x40 MLOAD DUP1 PUSH1 0x40 ADD PUSH1 0x40 MSTORE DUP1 PUSH1 0x20 DUP2 MSTORE PUSH1 0x20 ADD PUSH32 0x5361666545524332303A206C6F772D6C6576656C2063616C6C206661696C6564 DUP2 MSTORE POP DUP6 PUSH20 0xFFFFFFFFFFFFFFFFFFFFFFFFFFFFFFFFFFFFFFFF AND PUSH2 0x1CB0 SWAP1 SWAP3 SWAP2 SWAP1 PUSH4 0xFFFFFFFF AND JUMP JUMPDEST SWAP1 POP PUSH1 0x0 DUP2 MLOAD GT ISZERO PUSH2 0x1C62 JUMPI DUP1 DUP1 PUSH1 0x20 ADD SWAP1 MLOAD DUP2 ADD SWAP1 PUSH2 0x1C22 SWAP2 SWAP1 PUSH2 0x2A27 JUMP JUMPDEST PUSH2 0x1C61 JUMPI PUSH1 0x40 MLOAD PUSH32 0x8C379A000000000000000000000000000000000000000000000000000000000 DUP2 MSTORE PUSH1 0x4 ADD PUSH2 0x1C58 SWAP1 PUSH2 0x2AC6 JUMP JUMPDEST PUSH1 0x40 MLOAD DUP1 SWAP2 SUB SWAP1 REVERT JUMPDEST JUMPDEST POP POP POP JUMP JUMPDEST PUSH2 0x1C6F PUSH2 0xCC0 JUMP JUMPDEST PUSH2 0x1CAE JUMPI PUSH1 0x40 MLOAD PUSH32 0x8C379A000000000000000000000000000000000000000000000000000000000 DUP2 MSTORE PUSH1 0x4 ADD PUSH2 0x1CA5 SWAP1 PUSH2 0x2B32 JUMP JUMPDEST PUSH1 0x40 MLOAD DUP1 SWAP2 SUB SWAP1 REVERT JUMPDEST JUMP JUMPDEST PUSH1 0x60 PUSH2 0x1CBF DUP5 DUP5 PUSH1 0x0 DUP6 PUSH2 0x1CC8 JUMP JUMPDEST SWAP1 POP SWAP4 SWAP3 POP POP POP JUMP JUMPDEST PUSH1 0x60 DUP3 SELFBALANCE LT ISZERO PUSH2 0x1D0D JUMPI PUSH1 0x40 MLOAD PUSH32 0x8C379A000000000000000000000000000000000000000000000000000000000 DUP2 MSTORE PUSH1 0x4 ADD PUSH2 0x1D04 SWAP1 PUSH2 0x2BC4 JUMP JUMPDEST PUSH1 0x40 MLOAD DUP1 SWAP2 SUB SWAP1 REVERT JUMPDEST PUSH1 0x0 DUP1 DUP7 PUSH20 0xFFFFFFFFFFFFFFFFFFFFFFFFFFFFFFFFFFFFFFFF AND DUP6 DUP8 PUSH1 0x40 MLOAD PUSH2 0x1D36 SWAP2 SWAP1 PUSH2 0x2C5E JUMP JUMPDEST PUSH1 0x0 PUSH1 0x40 MLOAD DUP1 DUP4 SUB DUP2 DUP6 DUP8 GAS CALL SWAP3 POP POP POP RETURNDATASIZE DUP1 PUSH1 0x0 DUP2 EQ PUSH2 0x1D73 JUMPI PUSH1 0x40 MLOAD SWAP2 POP PUSH1 0x1F NOT PUSH1 0x3F RETURNDATASIZE ADD AND DUP3 ADD PUSH1 0x40 MSTORE RETURNDATASIZE DUP3 MSTORE RETURNDATASIZE PUSH1 0x0 PUSH1 0x20 DUP5 ADD RETURNDATACOPY PUSH2 0x1D78 JUMP JUMPDEST PUSH1 0x60 SWAP2 POP JUMPDEST POP SWAP2 POP SWAP2 POP PUSH2 0x1D89 DUP8 DUP4 DUP4 DUP8 PUSH2 0x1D95 JUMP JUMPDEST SWAP3 POP POP POP SWAP5 SWAP4 POP POP POP POP JUMP JUMPDEST PUSH1 0x60 DUP4 ISZERO PUSH2 0x1DF8 JUMPI PUSH1 0x0 DUP4 MLOAD EQ ISZERO PUSH2 0x1DF0 JUMPI PUSH2 0x1DB0 DUP6 PUSH2 0x1E0B JUMP JUMPDEST PUSH2 0x1DEF JUMPI PUSH1 0x40 MLOAD PUSH32 0x8C379A000000000000000000000000000000000000000000000000000000000 DUP2 MSTORE PUSH1 0x4 ADD PUSH2 0x1DE6 SWAP1 PUSH2 0x2CC1 JUMP JUMPDEST PUSH1 0x40 MLOAD DUP1 SWAP2 SUB SWAP1 REVERT JUMPDEST JUMPDEST DUP3 SWAP1 POP PUSH2 0x1E03 JUMP JUMPDEST PUSH2 0x1E02 DUP4 DUP4 PUSH2 0x1E2E JUMP JUMPDEST JUMPDEST SWAP5 SWAP4 POP POP POP POP JUMP JUMPDEST PUSH1 0x0 DUP1 DUP3 PUSH20 0xFFFFFFFFFFFFFFFFFFFFFFFFFFFFFFFFFFFFFFFF AND EXTCODESIZE GT SWAP1 POP SWAP2 SWAP1 POP JUMP JUMPDEST PUSH1 0x0 DUP3 MLOAD GT ISZERO PUSH2 0x1E41 JUMPI DUP2 MLOAD DUP1 DUP4 PUSH1 0x20 ADD REVERT JUMPDEST DUP1 PUSH1 0x40 MLOAD PUSH32 0x8C379A000000000000000000000000000000000000000000000000000000000 DUP2 MSTORE PUSH1 0x4 ADD PUSH2 0x1E75 SWAP2 SWAP1 PUSH2 0x2D36 JUMP JUMPDEST PUSH1 0x40 MLOAD DUP1 SWAP2 SUB SWAP1 REVERT JUMPDEST PUSH1 0x0 DUP2 ISZERO ISZERO SWAP1 POP SWAP2 SWAP1 POP JUMP JUMPDEST PUSH2 0x1E93 DUP2 PUSH2 0x1E7E JUMP JUMPDEST DUP3 MSTORE POP POP JUMP JUMPDEST PUSH1 0x0 PUSH1 0x20 DUP3 ADD SWAP1 POP PUSH2 0x1EAE PUSH1 0x0 DUP4 ADD DUP5 PUSH2 0x1E8A JUMP JUMPDEST SWAP3 SWAP2 POP POP JUMP JUMPDEST PUSH1 0x0 DUP1 REVERT JUMPDEST PUSH1 0x0 PUSH20 0xFFFFFFFFFFFFFFFFFFFFFFFFFFFFFFFFFFFFFFFF DUP3 AND SWAP1 POP SWAP2 SWAP1 POP JUMP JUMPDEST PUSH1 0x0 PUSH2 0x1EE4 DUP3 PUSH2 0x1EB9 JUMP JUMPDEST SWAP1 POP SWAP2 SWAP1 POP JUMP JUMPDEST PUSH2 0x1EF4 DUP2 PUSH2 0x1ED9 JUMP JUMPDEST DUP2 EQ PUSH2 0x1EFF JUMPI PUSH1 0x0 DUP1 REVERT JUMPDEST POP JUMP JUMPDEST PUSH1 0x0 DUP2 CALLDATALOAD SWAP1 POP PUSH2 0x1F11 DUP2 PUSH2 0x1EEB JUMP JUMPDEST SWAP3 SWAP2 POP POP JUMP JUMPDEST PUSH1 0x0 PUSH1 0x20 DUP3 DUP5 SUB SLT ISZERO PUSH2 0x1F2D JUMPI PUSH2 0x1F2C PUSH2 0x1EB4 JUMP JUMPDEST JUMPDEST PUSH1 0x0 PUSH2 0x1F3B DUP5 DUP3 DUP6 ADD PUSH2 0x1F02 JUMP JUMPDEST SWAP2 POP POP SWAP3 SWAP2 POP POP JUMP JUMPDEST PUSH1 0x0 DUP2 SWAP1 POP SWAP2 SWAP1 POP JUMP JUMPDEST PUSH2 0x1F57 DUP2 PUSH2 0x1F44 JUMP JUMPDEST DUP3 MSTORE POP POP JUMP JUMPDEST PUSH1 0x0 PUSH1 0x20 DUP3 ADD SWAP1 POP PUSH2 0x1F72 PUSH1 0x0 DUP4 ADD DUP5 PUSH2 0x1F4E JUMP JUMPDEST SWAP3 SWAP2 POP POP JUMP JUMPDEST PUSH2 0x1F81 DUP2 PUSH2 0x1F44 JUMP JUMPDEST DUP2 EQ PUSH2 0x1F8C JUMPI PUSH1 0x0 DUP1 REVERT JUMPDEST POP JUMP JUMPDEST PUSH1 0x0 DUP2 CALLDATALOAD SWAP1 POP PUSH2 0x1F9E DUP2 PUSH2 0x1F78 JUMP JUMPDEST SWAP3 SWAP2 POP POP JUMP JUMPDEST PUSH1 0x0 PUSH1 0x20 DUP3 DUP5 SUB SLT ISZERO PUSH2 0x1FBA JUMPI PUSH2 0x1FB9 PUSH2 0x1EB4 JUMP JUMPDEST JUMPDEST PUSH1 0x0 PUSH2 0x1FC8 DUP5 DUP3 DUP6 ADD PUSH2 0x1F8F JUMP JUMPDEST SWAP2 POP POP SWAP3 SWAP2 POP POP JUMP JUMPDEST PUSH2 0x1FDA DUP2 PUSH2 0x1ED9 JUMP JUMPDEST DUP3 MSTORE POP POP JUMP JUMPDEST PUSH1 0x0 PUSH1 0x20 DUP3 ADD SWAP1 POP PUSH2 0x1FF5 PUSH1 0x0 DUP4 ADD DUP5 PUSH2 0x1FD1 JUMP JUMPDEST SWAP3 SWAP2 POP POP JUMP JUMPDEST PUSH1 0x0 DUP2 SWAP1 POP SWAP2 SWAP1 POP JUMP JUMPDEST PUSH1 0x0 PUSH2 0x2020 PUSH2 0x201B PUSH2 0x2016 DUP5 PUSH2 0x1EB9 JUMP JUMPDEST PUSH2 0x1FFB JUMP JUMPDEST PUSH2 0x1EB9 JUMP JUMPDEST SWAP1 POP SWAP2 SWAP1 POP JUMP JUMPDEST PUSH1 0x0 PUSH2 0x2032 DUP3 PUSH2 0x2005 JUMP JUMPDEST SWAP1 POP SWAP2 SWAP1 POP JUMP JUMPDEST PUSH1 0x0 PUSH2 0x2044 DUP3 PUSH2 0x2027 JUMP JUMPDEST SWAP1 POP SWAP2 SWAP1 POP JUMP JUMPDEST PUSH2 0x2054 DUP2 PUSH2 0x2039 JUMP JUMPDEST DUP3 MSTORE POP POP JUMP JUMPDEST PUSH1 0x0 PUSH1 0x20 DUP3 ADD SWAP1 POP PUSH2 0x206F PUSH1 0x0 DUP4 ADD DUP5 PUSH2 0x204B JUMP JUMPDEST SWAP3 SWAP2 POP POP JUMP JUMPDEST PUSH2 0x207E DUP2 PUSH2 0x1E7E JUMP JUMPDEST DUP2 EQ PUSH2 0x2089 JUMPI PUSH1 0x0 DUP1 REVERT JUMPDEST POP JUMP JUMPDEST PUSH1 0x0 DUP2 CALLDATALOAD SWAP1 POP PUSH2 0x209B DUP2 PUSH2 0x2075 JUMP JUMPDEST SWAP3 SWAP2 POP POP JUMP JUMPDEST PUSH1 0x0 PUSH1 0x20 DUP3 DUP5 SUB SLT ISZERO PUSH2 0x20B7 JUMPI PUSH2 0x20B6 PUSH2 0x1EB4 JUMP JUMPDEST JUMPDEST PUSH1 0x0 PUSH2 0x20C5 DUP5 DUP3 DUP6 ADD PUSH2 0x208C JUMP JUMPDEST SWAP2 POP POP SWAP3 SWAP2 POP POP JUMP JUMPDEST PUSH1 0x0 PUSH1 0x60 DUP3 ADD SWAP1 POP PUSH2 0x20E3 PUSH1 0x0 DUP4 ADD DUP7 PUSH2 0x1F4E JUMP JUMPDEST PUSH2 0x20F0 PUSH1 0x20 DUP4 ADD DUP6 PUSH2 0x1F4E JUMP JUMPDEST PUSH2 0x20FD PUSH1 0x40 DUP4 ADD DUP5 PUSH2 0x1F4E JUMP JUMPDEST SWAP5 SWAP4 POP POP POP POP JUMP JUMPDEST PUSH1 0x0 DUP2 MLOAD SWAP1 POP SWAP2 SWAP1 POP JUMP JUMPDEST PUSH1 0x0 DUP3 DUP3 MSTORE PUSH1 0x20 DUP3 ADD SWAP1 POP SWAP3 SWAP2 POP POP JUMP JUMPDEST PUSH1 0x0 DUP2 SWAP1 POP PUSH1 0x20 DUP3 ADD SWAP1 POP SWAP2 SWAP1 POP JUMP JUMPDEST PUSH2 0x213A DUP2 PUSH2 0x1ED9 JUMP JUMPDEST DUP3 MSTORE POP POP JUMP JUMPDEST PUSH1 0x0 PUSH2 0x214C DUP4 DUP4 PUSH2 0x2131 JUMP JUMPDEST PUSH1 0x20 DUP4 ADD SWAP1 POP SWAP3 SWAP2 POP POP JUMP JUMPDEST PUSH1 0x0 PUSH1 0x20 DUP3 ADD SWAP1 POP SWAP2 SWAP1 POP JUMP JUMPDEST PUSH1 0x0 PUSH2 0x2170 DUP3 PUSH2 0x2105 JUMP JUMPDEST PUSH2 0x217A DUP2 DUP6 PUSH2 0x2110 JUMP JUMPDEST SWAP4 POP PUSH2 0x2185 DUP4 PUSH2 0x2121 JUMP JUMPDEST DUP1 PUSH1 0x0 JUMPDEST DUP4 DUP2 LT ISZERO PUSH2 0x21B6 JUMPI DUP2 MLOAD PUSH2 0x219D DUP9 DUP3 PUSH2 0x2140 JUMP JUMPDEST SWAP8 POP PUSH2 0x21A8 DUP4 PUSH2 0x2158 JUMP JUMPDEST SWAP3 POP POP PUSH1 0x1 DUP2 ADD SWAP1 POP PUSH2 0x2189 JUMP JUMPDEST POP DUP6 SWAP4 POP POP POP POP SWAP3 SWAP2 POP POP JUMP JUMPDEST PUSH1 0x0 PUSH1 0x20 DUP3 ADD SWAP1 POP DUP2 DUP2 SUB PUSH1 0x0 DUP4 ADD MSTORE PUSH2 0x21DD DUP2 DUP5 PUSH2 0x2165 JUMP JUMPDEST SWAP1 POP SWAP3 SWAP2 POP POP JUMP JUMPDEST PUSH1 0x0 DUP3 DUP3 MSTORE PUSH1 0x20 DUP3 ADD SWAP1 POP SWAP3 SWAP2 POP POP JUMP JUMPDEST PUSH32 0x496E76616C696420616464726573730000000000000000000000000000000000 PUSH1 0x0 DUP3 ADD MSTORE POP JUMP JUMPDEST PUSH1 0x0 PUSH2 0x222C PUSH1 0xF DUP4 PUSH2 0x21E5 JUMP JUMPDEST SWAP2 POP PUSH2 0x2237 DUP3 PUSH2 0x21F6 JUMP JUMPDEST PUSH1 0x20 DUP3 ADD SWAP1 POP SWAP2 SWAP1 POP JUMP JUMPDEST PUSH1 0x0 PUSH1 0x20 DUP3 ADD SWAP1 POP DUP2 DUP2 SUB PUSH1 0x0 DUP4 ADD MSTORE PUSH2 0x225B DUP2 PUSH2 0x221F JUMP JUMPDEST SWAP1 POP SWAP2 SWAP1 POP JUMP JUMPDEST PUSH32 0x4E487B7100000000000000000000000000000000000000000000000000000000 PUSH1 0x0 MSTORE PUSH1 0x32 PUSH1 0x4 MSTORE PUSH1 0x24 PUSH1 0x0 REVERT JUMPDEST PUSH32 0x4E487B7100000000000000000000000000000000000000000000000000000000 PUSH1 0x0 MSTORE PUSH1 0x11 PUSH1 0x4 MSTORE PUSH1 0x24 PUSH1 0x0 REVERT JUMPDEST PUSH1 0x0 PUSH2 0x22CB DUP3 PUSH2 0x1F44 JUMP JUMPDEST SWAP2 POP PUSH2 0x22D6 DUP4 PUSH2 0x1F44 JUMP JUMPDEST SWAP3 POP DUP3 PUSH32 0xFFFFFFFFFFFFFFFFFFFFFFFFFFFFFFFFFFFFFFFFFFFFFFFFFFFFFFFFFFFFFFFF SUB DUP3 GT ISZERO PUSH2 0x230B JUMPI PUSH2 0x230A PUSH2 0x2291 JUMP JUMPDEST JUMPDEST DUP3 DUP3 ADD SWAP1 POP SWAP3 SWAP2 POP POP JUMP JUMPDEST PUSH1 0x0 PUSH2 0x2321 DUP3 PUSH2 0x1F44 JUMP JUMPDEST SWAP2 POP PUSH32 0xFFFFFFFFFFFFFFFFFFFFFFFFFFFFFFFFFFFFFFFFFFFFFFFFFFFFFFFFFFFFFFFF DUP3 EQ ISZERO PUSH2 0x2354 JUMPI PUSH2 0x2353 PUSH2 0x2291 JUMP JUMPDEST JUMPDEST PUSH1 0x1 DUP3 ADD SWAP1 POP SWAP2 SWAP1 POP JUMP JUMPDEST PUSH32 0x5769746864726177696E67206973207061757365642021000000000000000000 PUSH1 0x0 DUP3 ADD MSTORE POP JUMP JUMPDEST PUSH1 0x0 PUSH2 0x2395 PUSH1 0x17 DUP4 PUSH2 0x21E5 JUMP JUMPDEST SWAP2 POP PUSH2 0x23A0 DUP3 PUSH2 0x235F JUMP JUMPDEST PUSH1 0x20 DUP3 ADD SWAP1 POP SWAP2 SWAP1 POP JUMP JUMPDEST PUSH1 0x0 PUSH1 0x20 DUP3 ADD SWAP1 POP DUP2 DUP2 SUB PUSH1 0x0 DUP4 ADD MSTORE PUSH2 0x23C4 DUP2 PUSH2 0x2388 JUMP JUMPDEST SWAP1 POP SWAP2 SWAP1 POP JUMP JUMPDEST PUSH32 0x4E6F7420656E6F756768207374616B6564210000000000000000000000000000 PUSH1 0x0 DUP3 ADD MSTORE POP JUMP JUMPDEST PUSH1 0x0 PUSH2 0x2401 PUSH1 0x12 DUP4 PUSH2 0x21E5 JUMP JUMPDEST SWAP2 POP PUSH2 0x240C DUP3 PUSH2 0x23CB JUMP JUMPDEST PUSH1 0x20 DUP3 ADD SWAP1 POP SWAP2 SWAP1 POP JUMP JUMPDEST PUSH1 0x0 PUSH1 0x20 DUP3 ADD SWAP1 POP DUP2 DUP2 SUB PUSH1 0x0 DUP4 ADD MSTORE PUSH2 0x2430 DUP2 PUSH2 0x23F4 JUMP JUMPDEST SWAP1 POP SWAP2 SWAP1 POP JUMP JUMPDEST PUSH1 0x0 PUSH2 0x2442 DUP3 PUSH2 0x1F44 JUMP JUMPDEST SWAP2 POP PUSH2 0x244D DUP4 PUSH2 0x1F44 JUMP JUMPDEST SWAP3 POP DUP3 DUP3 LT ISZERO PUSH2 0x2460 JUMPI PUSH2 0x245F PUSH2 0x2291 JUMP JUMPDEST JUMPDEST DUP3 DUP3 SUB SWAP1 POP SWAP3 SWAP2 POP POP JUMP JUMPDEST PUSH32 0x496E76616C696420417079210000000000000000000000000000000000000000 PUSH1 0x0 DUP3 ADD MSTORE POP JUMP JUMPDEST PUSH1 0x0 PUSH2 0x24A1 PUSH1 0xC DUP4 PUSH2 0x21E5 JUMP JUMPDEST SWAP2 POP PUSH2 0x24AC DUP3 PUSH2 0x246B JUMP JUMPDEST PUSH1 0x20 DUP3 ADD SWAP1 POP SWAP2 SWAP1 POP JUMP JUMPDEST PUSH1 0x0 PUSH1 0x20 DUP3 ADD SWAP1 POP DUP2 DUP2 SUB PUSH1 0x0 DUP4 ADD MSTORE PUSH2 0x24D0 DUP2 PUSH2 0x2494 JUMP JUMPDEST SWAP1 POP SWAP2 SWAP1 POP JUMP JUMPDEST PUSH1 0x0 PUSH2 0x24E2 DUP3 PUSH2 0x1F44 JUMP JUMPDEST SWAP2 POP PUSH2 0x24ED DUP4 PUSH2 0x1F44 JUMP JUMPDEST SWAP3 POP DUP2 PUSH32 0xFFFFFFFFFFFFFFFFFFFFFFFFFFFFFFFFFFFFFFFFFFFFFFFFFFFFFFFFFFFFFFFF DIV DUP4 GT DUP3 ISZERO ISZERO AND ISZERO PUSH2 0x2526 JUMPI PUSH2 0x2525 PUSH2 0x2291 JUMP JUMPDEST JUMPDEST DUP3 DUP3 MUL SWAP1 POP SWAP3 SWAP2 POP POP JUMP JUMPDEST PUSH32 0x4E487B7100000000000000000000000000000000000000000000000000000000 PUSH1 0x0 MSTORE PUSH1 0x12 PUSH1 0x4 MSTORE PUSH1 0x24 PUSH1 0x0 REVERT JUMPDEST PUSH1 0x0 PUSH2 0x256B DUP3 PUSH2 0x1F44 JUMP JUMPDEST SWAP2 POP PUSH2 0x2576 DUP4 PUSH2 0x1F44 JUMP JUMPDEST SWAP3 POP DUP3 PUSH2 0x2586 JUMPI PUSH2 0x2585 PUSH2 0x2531 JUMP JUMPDEST JUMPDEST DUP3 DUP3 DIV SWAP1 POP SWAP3 SWAP2 POP POP JUMP JUMPDEST PUSH32 0x4E6F7420656E6F75676820746F6B656E20737570706C79210000000000000000 PUSH1 0x0 DUP3 ADD MSTORE POP JUMP JUMPDEST PUSH1 0x0 PUSH2 0x25C7 PUSH1 0x18 DUP4 PUSH2 0x21E5 JUMP JUMPDEST SWAP2 POP PUSH2 0x25D2 DUP3 PUSH2 0x2591 JUMP JUMPDEST PUSH1 0x20 DUP3 ADD SWAP1 POP SWAP2 SWAP1 POP JUMP JUMPDEST PUSH1 0x0 PUSH1 0x20 DUP3 ADD SWAP1 POP DUP2 DUP2 SUB PUSH1 0x0 DUP4 ADD MSTORE PUSH2 0x25F6 DUP2 PUSH2 0x25BA JUMP JUMPDEST SWAP1 POP SWAP2 SWAP1 POP JUMP JUMPDEST PUSH32 0x5374616B696E6720697320706175736564202100000000000000000000000000 PUSH1 0x0 DUP3 ADD MSTORE POP JUMP JUMPDEST PUSH1 0x0 PUSH2 0x2633 PUSH1 0x13 DUP4 PUSH2 0x21E5 JUMP JUMPDEST SWAP2 POP PUSH2 0x263E DUP3 PUSH2 0x25FD JUMP JUMPDEST PUSH1 0x20 DUP3 ADD SWAP1 POP SWAP2 SWAP1 POP JUMP JUMPDEST PUSH1 0x0 PUSH1 0x20 DUP3 ADD SWAP1 POP DUP2 DUP2 SUB PUSH1 0x0 DUP4 ADD MSTORE PUSH2 0x2662 DUP2 PUSH2 0x2626 JUMP JUMPDEST SWAP1 POP SWAP2 SWAP1 POP JUMP JUMPDEST PUSH32 0x4D696E20616D6F756E74206973203120746F6B656E2100000000000000000000 PUSH1 0x0 DUP3 ADD MSTORE POP JUMP JUMPDEST PUSH1 0x0 PUSH2 0x269F PUSH1 0x16 DUP4 PUSH2 0x21E5 JUMP JUMPDEST SWAP2 POP PUSH2 0x26AA DUP3 PUSH2 0x2669 JUMP JUMPDEST PUSH1 0x20 DUP3 ADD SWAP1 POP SWAP2 SWAP1 POP JUMP JUMPDEST PUSH1 0x0 PUSH1 0x20 DUP3 ADD SWAP1 POP DUP2 DUP2 SUB PUSH1 0x0 DUP4 ADD MSTORE PUSH2 0x26CE DUP2 PUSH2 0x2692 JUMP JUMPDEST SWAP1 POP SWAP2 SWAP1 POP JUMP JUMPDEST PUSH32 0x4E487B7100000000000000000000000000000000000000000000000000000000 PUSH1 0x0 MSTORE PUSH1 0x41 PUSH1 0x4 MSTORE PUSH1 0x24 PUSH1 0x0 REVERT JUMPDEST PUSH32 0x4E6F207265776172647321000000000000000000000000000000000000000000 PUSH1 0x0 DUP3 ADD MSTORE POP JUMP JUMPDEST PUSH1 0x0 PUSH2 0x273A PUSH1 0xB DUP4 PUSH2 0x21E5 JUMP JUMPDEST SWAP2 POP PUSH2 0x2745 DUP3 PUSH2 0x2704 JUMP JUMPDEST PUSH1 0x20 DUP3 ADD SWAP1 POP SWAP2 SWAP1 POP JUMP JUMPDEST PUSH1 0x0 PUSH1 0x20 DUP3 ADD SWAP1 POP DUP2 DUP2 SUB PUSH1 0x0 DUP4 ADD MSTORE PUSH2 0x2769 DUP2 PUSH2 0x272D JUMP JUMPDEST SWAP1 POP SWAP2 SWAP1 POP JUMP JUMPDEST PUSH32 0x4E6F7420656E6F75676820746F6B656E732C20747279206C6174657200000000 PUSH1 0x0 DUP3 ADD MSTORE POP JUMP JUMPDEST PUSH1 0x0 PUSH2 0x27A6 PUSH1 0x1C DUP4 PUSH2 0x21E5 JUMP JUMPDEST SWAP2 POP PUSH2 0x27B1 DUP3 PUSH2 0x2770 JUMP JUMPDEST PUSH1 0x20 DUP3 ADD SWAP1 POP SWAP2 SWAP1 POP JUMP JUMPDEST PUSH1 0x0 PUSH1 0x20 DUP3 ADD SWAP1 POP DUP2 DUP2 SUB PUSH1 0x0 DUP4 ADD MSTORE PUSH2 0x27D5 DUP2 PUSH2 0x2799 JUMP JUMPDEST SWAP1 POP SWAP2 SWAP1 POP JUMP JUMPDEST PUSH32 0x4F776E61626C653A206E6577206F776E657220697320746865207A65726F2061 PUSH1 0x0 DUP3 ADD MSTORE PUSH32 0x6464726573730000000000000000000000000000000000000000000000000000 PUSH1 0x20 DUP3 ADD MSTORE POP JUMP JUMPDEST PUSH1 0x0 PUSH2 0x2838 PUSH1 0x26 DUP4 PUSH2 0x21E5 JUMP JUMPDEST SWAP2 POP PUSH2 0x2843 DUP3 PUSH2 0x27DC JUMP JUMPDEST PUSH1 0x40 DUP3 ADD SWAP1 POP SWAP2 SWAP1 POP JUMP JUMPDEST PUSH1 0x0 PUSH1 0x20 DUP3 ADD SWAP1 POP DUP2 DUP2 SUB PUSH1 0x0 DUP4 ADD MSTORE PUSH2 0x2867 DUP2 PUSH2 0x282B JUMP JUMPDEST SWAP1 POP SWAP2 SWAP1 POP JUMP JUMPDEST PUSH32 0x4F776E61626C653A2063616C6C6572206973206E6F7420746865206F776E6572 PUSH1 0x0 DUP3 ADD MSTORE POP JUMP JUMPDEST PUSH1 0x0 PUSH2 0x28A4 PUSH1 0x20 DUP4 PUSH2 0x21E5 JUMP JUMPDEST SWAP2 POP PUSH2 0x28AF DUP3 PUSH2 0x286E JUMP JUMPDEST PUSH1 0x20 DUP3 ADD SWAP1 POP SWAP2 SWAP1 POP JUMP JUMPDEST PUSH1 0x0 PUSH1 0x20 DUP3 ADD SWAP1 POP DUP2 DUP2 SUB PUSH1 0x0 DUP4 ADD MSTORE PUSH2 0x28D3 DUP2 PUSH2 0x2897 JUMP JUMPDEST SWAP1 POP SWAP2 SWAP1 POP JUMP JUMPDEST PUSH32 0x5061757361626C653A2070617573656400000000000000000000000000000000 PUSH1 0x0 DUP3 ADD MSTORE POP JUMP JUMPDEST PUSH1 0x0 PUSH2 0x2910 PUSH1 0x10 DUP4 PUSH2 0x21E5 JUMP JUMPDEST SWAP2 POP PUSH2 0x291B DUP3 PUSH2 0x28DA JUMP JUMPDEST PUSH1 0x20 DUP3 ADD SWAP1 POP SWAP2 SWAP1 POP JUMP JUMPDEST PUSH1 0x0 PUSH1 0x20 DUP3 ADD SWAP1 POP DUP2 DUP2 SUB PUSH1 0x0 DUP4 ADD MSTORE PUSH2 0x293F DUP2 PUSH2 0x2903 JUMP JUMPDEST SWAP1 POP SWAP2 SWAP1 POP JUMP JUMPDEST PUSH32 0x5265656E7472616E637947756172643A207265656E7472616E742063616C6C00 PUSH1 0x0 DUP3 ADD MSTORE POP JUMP JUMPDEST PUSH1 0x0 PUSH2 0x297C PUSH1 0x1F DUP4 PUSH2 0x21E5 JUMP JUMPDEST SWAP2 POP PUSH2 0x2987 DUP3 PUSH2 0x2946 JUMP JUMPDEST PUSH1 0x20 DUP3 ADD SWAP1 POP SWAP2 SWAP1 POP JUMP JUMPDEST PUSH1 0x0 PUSH1 0x20 DUP3 ADD SWAP1 POP DUP2 DUP2 SUB PUSH1 0x0 DUP4 ADD MSTORE PUSH2 0x29AB DUP2 PUSH2 0x296F JUMP JUMPDEST SWAP1 POP SWAP2 SWAP1 POP JUMP JUMPDEST PUSH1 0x0 PUSH1 0x40 DUP3 ADD SWAP1 POP PUSH2 0x29C7 PUSH1 0x0 DUP4 ADD DUP6 PUSH2 0x1FD1 JUMP JUMPDEST PUSH2 0x29D4 PUSH1 0x20 DUP4 ADD DUP5 PUSH2 0x1F4E JUMP JUMPDEST SWAP4 SWAP3 POP POP POP JUMP JUMPDEST PUSH1 0x0 PUSH1 0x60 DUP3 ADD SWAP1 POP PUSH2 0x29F0 PUSH1 0x0 DUP4 ADD DUP7 PUSH2 0x1FD1 JUMP JUMPDEST PUSH2 0x29FD PUSH1 0x20 DUP4 ADD DUP6 PUSH2 0x1FD1 JUMP JUMPDEST PUSH2 0x2A0A PUSH1 0x40 DUP4 ADD DUP5 PUSH2 0x1F4E JUMP JUMPDEST SWAP5 SWAP4 POP POP POP POP JUMP JUMPDEST PUSH1 0x0 DUP2 MLOAD SWAP1 POP PUSH2 0x2A21 DUP2 PUSH2 0x2075 JUMP JUMPDEST SWAP3 SWAP2 POP POP JUMP JUMPDEST PUSH1 0x0 PUSH1 0x20 DUP3 DUP5 SUB SLT ISZERO PUSH2 0x2A3D JUMPI PUSH2 0x2A3C PUSH2 0x1EB4 JUMP JUMPDEST JUMPDEST PUSH1 0x0 PUSH2 0x2A4B DUP5 DUP3 DUP6 ADD PUSH2 0x2A12 JUMP JUMPDEST SWAP2 POP POP SWAP3 SWAP2 POP POP JUMP JUMPDEST PUSH32 0x5361666545524332303A204552433230206F7065726174696F6E20646964206E PUSH1 0x0 DUP3 ADD MSTORE PUSH32 0x6F74207375636365656400000000000000000000000000000000000000000000 PUSH1 0x20 DUP3 ADD MSTORE POP JUMP JUMPDEST PUSH1 0x0 PUSH2 0x2AB0 PUSH1 0x2A DUP4 PUSH2 0x21E5 JUMP JUMPDEST SWAP2 POP PUSH2 0x2ABB DUP3 PUSH2 0x2A54 JUMP JUMPDEST PUSH1 0x40 DUP3 ADD SWAP1 POP SWAP2 SWAP1 POP JUMP JUMPDEST PUSH1 0x0 PUSH1 0x20 DUP3 ADD SWAP1 POP DUP2 DUP2 SUB PUSH1 0x0 DUP4 ADD MSTORE PUSH2 0x2ADF DUP2 PUSH2 0x2AA3 JUMP JUMPDEST SWAP1 POP SWAP2 SWAP1 POP JUMP JUMPDEST PUSH32 0x5061757361626C653A206E6F7420706175736564000000000000000000000000 PUSH1 0x0 DUP3 ADD MSTORE POP JUMP JUMPDEST PUSH1 0x0 PUSH2 0x2B1C PUSH1 0x14 DUP4 PUSH2 0x21E5 JUMP JUMPDEST SWAP2 POP PUSH2 0x2B27 DUP3 PUSH2 0x2AE6 JUMP JUMPDEST PUSH1 0x20 DUP3 ADD SWAP1 POP SWAP2 SWAP1 POP JUMP JUMPDEST PUSH1 0x0 PUSH1 0x20 DUP3 ADD SWAP1 POP DUP2 DUP2 SUB PUSH1 0x0 DUP4 ADD MSTORE PUSH2 0x2B4B DUP2 PUSH2 0x2B0F JUMP JUMPDEST SWAP1 POP SWAP2 SWAP1 POP JUMP JUMPDEST PUSH32 0x416464726573733A20696E73756666696369656E742062616C616E636520666F PUSH1 0x0 DUP3 ADD MSTORE PUSH32 0x722063616C6C0000000000000000000000000000000000000000000000000000 PUSH1 0x20 DUP3 ADD MSTORE POP JUMP JUMPDEST PUSH1 0x0 PUSH2 0x2BAE PUSH1 0x26 DUP4 PUSH2 0x21E5 JUMP JUMPDEST SWAP2 POP PUSH2 0x2BB9 DUP3 PUSH2 0x2B52 JUMP JUMPDEST PUSH1 0x40 DUP3 ADD SWAP1 POP SWAP2 SWAP1 POP JUMP JUMPDEST PUSH1 0x0 PUSH1 0x20 DUP3 ADD SWAP1 POP DUP2 DUP2 SUB PUSH1 0x0 DUP4 ADD MSTORE PUSH2 0x2BDD DUP2 PUSH2 0x2BA1 JUMP JUMPDEST SWAP1 POP SWAP2 SWAP1 POP JUMP JUMPDEST PUSH1 0x0 DUP2 MLOAD SWAP1 POP SWAP2 SWAP1 POP JUMP JUMPDEST PUSH1 0x0 DUP2 SWAP1 POP SWAP3 SWAP2 POP POP JUMP JUMPDEST PUSH1 0x0 JUMPDEST DUP4 DUP2 LT ISZERO PUSH2 0x2C18 JUMPI DUP1 DUP3 ADD MLOAD DUP2 DUP5 ADD MSTORE PUSH1 0x20 DUP2 ADD SWAP1 POP PUSH2 0x2BFD JUMP JUMPDEST DUP4 DUP2 GT ISZERO PUSH2 0x2C27 JUMPI PUSH1 0x0 DUP5 DUP5 ADD MSTORE JUMPDEST POP POP POP POP JUMP JUMPDEST PUSH1 0x0 PUSH2 0x2C38 DUP3 PUSH2 0x2BE4 JUMP JUMPDEST PUSH2 0x2C42 DUP2 DUP6 PUSH2 0x2BEF JUMP JUMPDEST SWAP4 POP PUSH2 0x2C52 DUP2 DUP6 PUSH1 0x20 DUP7 ADD PUSH2 0x2BFA JUMP JUMPDEST DUP1 DUP5 ADD SWAP2 POP POP SWAP3 SWAP2 POP POP JUMP JUMPDEST PUSH1 0x0 PUSH2 0x2C6A DUP3 DUP5 PUSH2 0x2C2D JUMP JUMPDEST SWAP2 POP DUP2 SWAP1 POP SWAP3 SWAP2 POP POP JUMP JUMPDEST PUSH32 0x416464726573733A2063616C6C20746F206E6F6E2D636F6E7472616374000000 PUSH1 0x0 DUP3 ADD MSTORE POP JUMP JUMPDEST PUSH1 0x0 PUSH2 0x2CAB PUSH1 0x1D DUP4 PUSH2 0x21E5 JUMP JUMPDEST SWAP2 POP PUSH2 0x2CB6 DUP3 PUSH2 0x2C75 JUMP JUMPDEST PUSH1 0x20 DUP3 ADD SWAP1 POP SWAP2 SWAP1 POP JUMP JUMPDEST PUSH1 0x0 PUSH1 0x20 DUP3 ADD SWAP1 POP DUP2 DUP2 SUB PUSH1 0x0 DUP4 ADD MSTORE PUSH2 0x2CDA DUP2 PUSH2 0x2C9E JUMP JUMPDEST SWAP1 POP SWAP2 SWAP1 POP JUMP JUMPDEST PUSH1 0x0 DUP2 MLOAD SWAP1 POP SWAP2 SWAP1 POP JUMP JUMPDEST PUSH1 0x0 PUSH1 0x1F NOT PUSH1 0x1F DUP4 ADD AND SWAP1 POP SWAP2 SWAP1 POP JUMP JUMPDEST PUSH1 0x0 PUSH2 0x2D08 DUP3 PUSH2 0x2CE1 JUMP JUMPDEST PUSH2 0x2D12 DUP2 DUP6 PUSH2 0x21E5 JUMP JUMPDEST SWAP4 POP PUSH2 0x2D22 DUP2 DUP6 PUSH1 0x20 DUP7 ADD PUSH2 0x2BFA JUMP JUMPDEST PUSH2 0x2D2B DUP2 PUSH2 0x2CEC JUMP JUMPDEST DUP5 ADD SWAP2 POP POP SWAP3 SWAP2 POP POP JUMP JUMPDEST PUSH1 0x0 PUSH1 0x20 DUP3 ADD SWAP1 POP DUP2 DUP2 SUB PUSH1 0x0 DUP4 ADD MSTORE PUSH2 0x2D50 DUP2 DUP5 PUSH2 0x2CFD JUMP JUMPDEST SWAP1 POP SWAP3 SWAP2 POP POP JUMP INVALID LOG2 PUSH5 0x6970667358 0x22 SLT KECCAK256 SLT ADDMOD SMOD DUP15 DUP4 PUSH18 0x2B0D8F2AD16757F2D3BDA52D367DA401B362 SWAP7 SELFDESTRUCT 0x2F SUB ADDMOD COINBASE 0xAC 0xB0 PUSH5 0x736F6C6343 STOP ADDMOD MULMOD STOP CALLER "},"methodIdentifiers":{"apy()":"3bcfc4b8","balanceOf(address)":"70a08231","changeRewardToken(address)":"088ab8ce","claimReward()":"b88a802f","depositTokens(uint256)":"dd49756e","getTotalPendingRewards()":"1e9b3a92","getUserList()":"b8522043","owner()":"8da5cb5b","pause()":"8456cb59","paused()":"5c975abb","pendingRewardsOf(address)":"3988bad8","renounceOwnership()":"715018a6","resetApy(uint256)":"3940b587","returnRewardTokens()":"a65a79fd","rewardToken()":"f7c618c1","rewardsOf(address)":"479ba7ae","setDisableStake(bool)":"61156465","setDisableWithdraw(bool)":"ab779aba","stake(uint256)":"a694fc3a","stakeOn()":"2ceed7e7","stakeToken()":"51ed6a30","stakingTimeOf(address)":"25aea53f","tokenSupply()":"7824407f","totalStaked()":"817b1cd2","transferOwnership(address)":"f2fde38b","unpause()":"3f4ba83a","userAdresses(uint256)":"2322a017","users(address)":"a87430ba","withdraw(uint256)":"2e1a7d4d","withdrawAll()":"853828b6","withdrawOn()":"04d420ea"}},"storageLayout":{"storage":[{"astId":231,"contract":"contracts/MetagStakepool.sol:MetagStakepool","label":"_status","offset":0,"slot":"0","type":"t_uint256"},{"astId":7,"contract":"contracts/MetagStakepool.sol:MetagStakepool","label":"_owner","offset":0,"slot":"1","type":"t_address"},{"astId":130,"contract":"contracts/MetagStakepool.sol:MetagStakepool","label":"_paused","offset":20,"slot":"1","type":"t_bool"},{"astId":1419,"contract":"contracts/MetagStakepool.sol:MetagStakepool","label":"stakeToken","offset":0,"slot":"2","type":"t_contract(IERC20)352"},{"astId":1422,"contract":"contracts/MetagStakepool.sol:MetagStakepool","label":"rewardToken","offset":0,"slot":"3","type":"t_contract(IERC20)352"},{"astId":1424,"contract":"contracts/MetagStakepool.sol:MetagStakepool","label":"apy","offset":0,"slot":"4","type":"t_uint256"},{"astId":1426,"contract":"contracts/MetagStakepool.sol:MetagStakepool","label":"tokenSupply","offset":0,"slot":"5","type":"t_uint256"},{"astId":1428,"contract":"contracts/MetagStakepool.sol:MetagStakepool","label":"totalStaked","offset":0,"slot":"6","type":"t_uint256"},{"astId":1430,"contract":"contracts/MetagStakepool.sol:MetagStakepool","label":"stakeOn","offset":0,"slot":"7","type":"t_bool"},{"astId":1432,"contract":"contracts/MetagStakepool.sol:MetagStakepool","label":"withdrawOn","offset":1,"slot":"7","type":"t_bool"},{"astId":1434,"contract":"contracts/MetagStakepool.sol:MetagStakepool","label":"userAdressesOn","offset":2,"slot":"7","type":"t_bool"},{"astId":1440,"contract":"contracts/MetagStakepool.sol:MetagStakepool","label":"users","offset":0,"slot":"8","type":"t_mapping(t_address,t_struct(User)1415_storage)"},{"astId":1444,"contract":"contracts/MetagStakepool.sol:MetagStakepool","label":"userAdresses","offset":0,"slot":"9","type":"t_array(t_address)dyn_storage"}],"types":{"t_address":{"encoding":"inplace","label":"address","numberOfBytes":"20"},"t_array(t_address)dyn_storage":{"base":"t_address","encoding":"dynamic_array","label":"address[]","numberOfBytes":"32"},"t_bool":{"encoding":"inplace","label":"bool","numberOfBytes":"1"},"t_contract(IERC20)352":{"encoding":"inplace","label":"contract IERC20","numberOfBytes":"20"},"t_mapping(t_address,t_struct(User)1415_storage)":{"encoding":"mapping","key":"t_address","label":"mapping(address => struct MetagStakepool.User)","numberOfBytes":"32","value":"t_struct(User)1415_storage"},"t_struct(User)1415_storage":{"encoding":"inplace","label":"struct MetagStakepool.User","members":[{"astId":1410,"contract":"contracts/MetagStakepool.sol:MetagStakepool","label":"stakeBalance","offset":0,"slot":"0","type":"t_uint256"},{"astId":1412,"contract":"contracts/MetagStakepool.sol:MetagStakepool","label":"rewards","offset":0,"slot":"1","type":"t_uint256"},{"astId":1414,"contract":"contracts/MetagStakepool.sol:MetagStakepool","label":"stakingTime","offset":0,"slot":"2","type":"t_uint256"}],"numberOfBytes":"96"},"t_uint256":{"encoding":"inplace","label":"uint256","numberOfBytes":"32"}}}}}}