{
  "_format": "hh-sol-artifact-1",
  "contractName": "MultiSigWallet",
  "sourceName": "contracts/MultiSigWallet.sol",
  "abi": [
    {
      "inputs": [
        {
          "internalType": "address[]",
          "name": "_approvers",
          "type": "address[]"
        },
        {
          "internalType": "uint256",
          "name": "_numConfirmationsRequired",
          "type": "uint256"
        },
        {
          "internalType": "address",
          "name": "eivAddress",
          "type": "address"
        }
      ],
      "stateMutability": "nonpayable",
      "type": "constructor"
    },
    {
      "anonymous": false,
      "inputs": [
        {
          "indexed": true,
          "internalType": "address",
          "name": "approver",
          "type": "address"
        },
        {
          "indexed": true,
          "internalType": "uint256",
          "name": "txIndex",
          "type": "uint256"
        },
        {
          "indexed": true,
          "internalType": "uint256",
          "name": "numConfirmations",
          "type": "uint256"
        }
      ],
      "name": "ConfirmTransaction",
      "type": "event"
    },
    {
      "anonymous": false,
      "inputs": [
        {
          "indexed": true,
          "internalType": "address",
          "name": "approver",
          "type": "address"
        },
        {
          "indexed": true,
          "internalType": "uint256",
          "name": "txIndex",
          "type": "uint256"
        }
      ],
      "name": "ExecuteTransaction",
      "type": "event"
    },
    {
      "anonymous": false,
      "inputs": [
        {
          "indexed": true,
          "internalType": "address",
          "name": "previousOwner",
          "type": "address"
        },
        {
          "indexed": true,
          "internalType": "address",
          "name": "newOwner",
          "type": "address"
        }
      ],
      "name": "OwnershipTransferred",
      "type": "event"
    },
    {
      "anonymous": false,
      "inputs": [
        {
          "indexed": true,
          "internalType": "address",
          "name": "approver",
          "type": "address"
        },
        {
          "indexed": true,
          "internalType": "uint256",
          "name": "txIndex",
          "type": "uint256"
        }
      ],
      "name": "RevokeConfirmation",
      "type": "event"
    },
    {
      "anonymous": false,
      "inputs": [
        {
          "indexed": true,
          "internalType": "address",
          "name": "approver",
          "type": "address"
        },
        {
          "indexed": true,
          "internalType": "uint256",
          "name": "txIndex",
          "type": "uint256"
        },
        {
          "indexed": true,
          "internalType": "address",
          "name": "from",
          "type": "address"
        },
        {
          "indexed": false,
          "internalType": "bytes32",
          "name": "data",
          "type": "bytes32"
        }
      ],
      "name": "SubmitTransaction",
      "type": "event"
    },
    {
      "inputs": [],
      "name": "ADVISORY",
      "outputs": [
        {
          "internalType": "bytes32",
          "name": "",
          "type": "bytes32"
        }
      ],
      "stateMutability": "view",
      "type": "function"
    },
    {
      "inputs": [],
      "name": "CLAIM",
      "outputs": [
        {
          "internalType": "bytes32",
          "name": "",
          "type": "bytes32"
        }
      ],
      "stateMutability": "view",
      "type": "function"
    },
    {
      "inputs": [],
      "name": "COMMUNITY",
      "outputs": [
        {
          "internalType": "bytes32",
          "name": "",
          "type": "bytes32"
        }
      ],
      "stateMutability": "view",
      "type": "function"
    },
    {
      "inputs": [],
      "name": "TEAM",
      "outputs": [
        {
          "internalType": "bytes32",
          "name": "",
          "type": "bytes32"
        }
      ],
      "stateMutability": "view",
      "type": "function"
    },
    {
      "inputs": [
        {
          "internalType": "uint256",
          "name": "",
          "type": "uint256"
        }
      ],
      "name": "approvers",
      "outputs": [
        {
          "internalType": "address",
          "name": "",
          "type": "address"
        }
      ],
      "stateMutability": "view",
      "type": "function"
    },
    {
      "inputs": [
        {
          "internalType": "uint256",
          "name": "_txIndex",
          "type": "uint256"
        }
      ],
      "name": "confirmTransaction",
      "outputs": [],
      "stateMutability": "nonpayable",
      "type": "function"
    },
    {
      "inputs": [
        {
          "internalType": "uint256",
          "name": "_txIndex",
          "type": "uint256"
        }
      ],
      "name": "executeTransaction",
      "outputs": [],
      "stateMutability": "nonpayable",
      "type": "function"
    },
    {
      "inputs": [
        {
          "internalType": "uint256",
          "name": "_txIndex",
          "type": "uint256"
        }
      ],
      "name": "getTransaction",
      "outputs": [
        {
          "internalType": "address",
          "name": "from",
          "type": "address"
        },
        {
          "internalType": "bytes32",
          "name": "data",
          "type": "bytes32"
        },
        {
          "internalType": "bool",
          "name": "executed",
          "type": "bool"
        },
        {
          "internalType": "uint256",
          "name": "numConfirmations",
          "type": "uint256"
        }
      ],
      "stateMutability": "view",
      "type": "function"
    },
    {
      "inputs": [],
      "name": "getTransactionCount",
      "outputs": [
        {
          "internalType": "uint256",
          "name": "",
          "type": "uint256"
        }
      ],
      "stateMutability": "view",
      "type": "function"
    },
    {
      "inputs": [],
      "name": "getTransactions",
      "outputs": [
        {
          "components": [
            {
              "internalType": "address",
              "name": "from",
              "type": "address"
            },
            {
              "internalType": "bytes32",
              "name": "data",
              "type": "bytes32"
            },
            {
              "internalType": "bool",
              "name": "executed",
              "type": "bool"
            },
            {
              "internalType": "uint256",
              "name": "numConfirmations",
              "type": "uint256"
            }
          ],
          "internalType": "struct MultiSigWallet.Transaction[]",
          "name": "",
          "type": "tuple[]"
        }
      ],
      "stateMutability": "view",
      "type": "function"
    },
    {
      "inputs": [],
      "name": "getapprovers",
      "outputs": [
        {
          "internalType": "address[]",
          "name": "",
          "type": "address[]"
        }
      ],
      "stateMutability": "view",
      "type": "function"
    },
    {
      "inputs": [
        {
          "internalType": "address",
          "name": "",
          "type": "address"
        }
      ],
      "name": "isApprover",
      "outputs": [
        {
          "internalType": "bool",
          "name": "",
          "type": "bool"
        }
      ],
      "stateMutability": "view",
      "type": "function"
    },
    {
      "inputs": [
        {
          "internalType": "uint256",
          "name": "",
          "type": "uint256"
        },
        {
          "internalType": "address",
          "name": "",
          "type": "address"
        }
      ],
      "name": "isConfirmed",
      "outputs": [
        {
          "internalType": "bool",
          "name": "",
          "type": "bool"
        }
      ],
      "stateMutability": "view",
      "type": "function"
    },
    {
      "inputs": [],
      "name": "numConfirmationsRequired",
      "outputs": [
        {
          "internalType": "uint256",
          "name": "",
          "type": "uint256"
        }
      ],
      "stateMutability": "view",
      "type": "function"
    },
    {
      "inputs": [],
      "name": "owner",
      "outputs": [
        {
          "internalType": "address",
          "name": "",
          "type": "address"
        }
      ],
      "stateMutability": "view",
      "type": "function"
    },
    {
      "inputs": [],
      "name": "renounceOwnership",
      "outputs": [],
      "stateMutability": "nonpayable",
      "type": "function"
    },
    {
      "inputs": [
        {
          "internalType": "uint256",
          "name": "_txIndex",
          "type": "uint256"
        }
      ],
      "name": "revokeConfirmation",
      "outputs": [],
      "stateMutability": "nonpayable",
      "type": "function"
    },
    {
      "inputs": [
        {
          "internalType": "bytes32",
          "name": "_data",
          "type": "bytes32"
        }
      ],
      "name": "submitTransaction",
      "outputs": [],
      "stateMutability": "nonpayable",
      "type": "function"
    },
    {
      "inputs": [
        {
          "internalType": "uint256",
          "name": "",
          "type": "uint256"
        }
      ],
      "name": "transactions",
      "outputs": [
        {
          "internalType": "address",
          "name": "from",
          "type": "address"
        },
        {
          "internalType": "bytes32",
          "name": "data",
          "type": "bytes32"
        },
        {
          "internalType": "bool",
          "name": "executed",
          "type": "bool"
        },
        {
          "internalType": "uint256",
          "name": "numConfirmations",
          "type": "uint256"
        }
      ],
      "stateMutability": "view",
      "type": "function"
    },
    {
      "inputs": [
        {
          "internalType": "address",
          "name": "newOwner",
          "type": "address"
        }
      ],
      "name": "transferOwnership",
      "outputs": [],
      "stateMutability": "nonpayable",
      "type": "function"
    }
  ],
  "bytecode": "0x60806040523480156200001157600080fd5b5060405162002aa738038062002aa7833981810160405281019062000037919062000508565b620000576200004b6200036c60201b60201c565b6200037460201b60201c565b60008351116200009e576040517f08c379a0000000000000000000000000000000000000000000000000000000008152600401620000959062000613565b60405180910390fd5b600082118015620000b0575082518211155b620000f2576040517f08c379a0000000000000000000000000000000000000000000000000000000008152600401620000e99062000679565b60405180910390fd5b80600660006101000a81548173ffffffffffffffffffffffffffffffffffffffff021916908373ffffffffffffffffffffffffffffffffffffffff16021790555060005b83518110156200035b5760008482815181106200017c577f4e487b7100000000000000000000000000000000000000000000000000000000600052603260045260246000fd5b60200260200101519050600073ffffffffffffffffffffffffffffffffffffffff168173ffffffffffffffffffffffffffffffffffffffff161415620001f9576040517f08c379a0000000000000000000000000000000000000000000000000000000008152600401620001f09062000657565b60405180910390fd5b600260008273ffffffffffffffffffffffffffffffffffffffff1673ffffffffffffffffffffffffffffffffffffffff16815260200190815260200160002060009054906101000a900460ff161562000289576040517f08c379a0000000000000000000000000000000000000000000000000000000008152600401620002809062000635565b60405180910390fd5b6001600260008373ffffffffffffffffffffffffffffffffffffffff1673ffffffffffffffffffffffffffffffffffffffff16815260200190815260200160002060006101000a81548160ff0219169083151502179055506001819080600181540180825580915050600190039060005260206000200160009091909190916101000a81548173ffffffffffffffffffffffffffffffffffffffff021916908373ffffffffffffffffffffffffffffffffffffffff160217905550508080620003529062000778565b91505062000136565b508160038190555050505062000933565b600033905090565b60008060009054906101000a900473ffffffffffffffffffffffffffffffffffffffff169050816000806101000a81548173ffffffffffffffffffffffffffffffffffffffff021916908373ffffffffffffffffffffffffffffffffffffffff1602179055508173ffffffffffffffffffffffffffffffffffffffff168173ffffffffffffffffffffffffffffffffffffffff167f8be0079c531659141344cd1fd0a4f28419497f9722a3daafe3b4186f6b6457e060405160405180910390a35050565b60006200044f6200044984620006c4565b6200069b565b905080838252602082019050828560208602820111156200046f57600080fd5b60005b85811015620004a35781620004888882620004ad565b84526020840193506020830192505060018101905062000472565b5050509392505050565b600081519050620004be81620008ff565b92915050565b600082601f830112620004d657600080fd5b8151620004e884826020860162000438565b91505092915050565b600081519050620005028162000919565b92915050565b6000806000606084860312156200051e57600080fd5b600084015167ffffffffffffffff8111156200053957600080fd5b6200054786828701620004c4565b93505060206200055a86828701620004f1565b92505060406200056d86828701620004ad565b9150509250925092565b600062000586601283620006f3565b9150620005938262000835565b602082019050919050565b6000620005ad601383620006f3565b9150620005ba826200085e565b602082019050919050565b6000620005d4601083620006f3565b9150620005e18262000887565b602082019050919050565b6000620005fb602883620006f3565b91506200060882620008b0565b604082019050919050565b600060208201905081810360008301526200062e8162000577565b9050919050565b6000602082019050818103600083015262000650816200059e565b9050919050565b600060208201905081810360008301526200067281620005c5565b9050919050565b600060208201905081810360008301526200069481620005ec565b9050919050565b6000620006a7620006ba565b9050620006b5828262000742565b919050565b6000604051905090565b600067ffffffffffffffff821115620006e257620006e1620007f5565b5b602082029050602081019050919050565b600082825260208201905092915050565b6000620007118262000718565b9050919050565b600073ffffffffffffffffffffffffffffffffffffffff82169050919050565b6000819050919050565b6200074d8262000824565b810181811067ffffffffffffffff821117156200076f576200076e620007f5565b5b80604052505050565b6000620007858262000738565b91507fffffffffffffffffffffffffffffffffffffffffffffffffffffffffffffffff821415620007bb57620007ba620007c6565b5b600182019050919050565b7f4e487b7100000000000000000000000000000000000000000000000000000000600052601160045260246000fd5b7f4e487b7100000000000000000000000000000000000000000000000000000000600052604160045260246000fd5b6000601f19601f8301169050919050565b7f617070726f766572732072657175697265640000000000000000000000000000600082015250565b7f617070726f766572206e6f7420756e6971756500000000000000000000000000600082015250565b7f696e76616c696420617070726f76657200000000000000000000000000000000600082015250565b7f696e76616c6964206e756d626572206f6620726571756972656420636f6e666960008201527f726d6174696f6e73000000000000000000000000000000000000000000000000602082015250565b6200090a8162000704565b81146200091657600080fd5b50565b620009248162000738565b81146200093057600080fd5b50565b61216480620009436000396000f3fe608060405234801561001057600080fd5b506004361061012c5760003560e01c8063ade7d495116100ad578063d3650fb811610071578063d3650fb814610329578063ee22610b14610359578063f2fde38b14610375578063f8d7f79014610391578063ff62447b146103af5761012c565b8063ade7d49514610295578063b2a56db9146102b3578063c01a8c84146102d1578063cecdc6aa146102ed578063d0549b851461030b5761012c565b806373d74876116100f457806373d74876146101d857806380f59a65146101f657806383920e90146102265780638da5cb5b146102445780639ace38c2146102625761012c565b806320ea8d86146101315780632e7700f01461014d57806333ea3dc81461016b5780636d218e481461019e578063715018a6146101ce575b600080fd5b61014b60048036038101906101469190611856565b6103cb565b005b6101556106f1565b6040516101629190611da9565b60405180910390f35b61018560048036038101906101809190611856565b6106fe565b6040516101959493929190611bca565b60405180910390f35b6101b860048036038101906101b39190611804565b6107a1565b6040516101c59190611c53565b60405180910390f35b6101d66107c1565b005b6101e0610849565b6040516101ed9190611c6e565b60405180910390f35b610210600480360381019061020b919061187f565b61086d565b60405161021d9190611c53565b60405180910390f35b61022e61089c565b60405161023b9190611c31565b60405180910390f35b61024c610980565b6040516102599190611baf565b60405180910390f35b61027c60048036038101906102779190611856565b6109a9565b60405161028c9493929190611bca565b60405180910390f35b61029d610a16565b6040516102aa9190611c0f565b60405180910390f35b6102bb610aa4565b6040516102c89190611c6e565b60405180910390f35b6102eb60048036038101906102e69190611856565b610ac8565b005b6102f5610e89565b6040516103029190611c6e565b60405180910390f35b610313610ead565b6040516103209190611da9565b60405180910390f35b610343600480360381019061033e9190611856565b610eb3565b6040516103509190611baf565b60405180910390f35b610373600480360381019061036e9190611856565b610ef2565b005b61038f600480360381019061038a9190611804565b6113fa565b005b6103996114f2565b6040516103a69190611c6e565b60405180910390f35b6103c960048036038101906103c4919061182d565b611516565b005b600260003373ffffffffffffffffffffffffffffffffffffffff1673ffffffffffffffffffffffffffffffffffffffff16815260200190815260200160002060009054906101000a900460ff16610457576040517f08c379a000000000000000000000000000000000000000000000000000000000815260040161044e90611d29565b60405180910390fd5b80600580549050811061049f576040517f08c379a000000000000000000000000000000000000000000000000000000000815260040161049690611cc9565b60405180910390fd5b81600581815481106104da577f4e487b7100000000000000000000000000000000000000000000000000000000600052603260045260246000fd5b906000526020600020906004020160020160009054906101000a900460ff1615610539576040517f08c379a000000000000000000000000000000000000000000000000000000000815260040161053090611d49565b60405180910390fd5b600060058481548110610575577f4e487b7100000000000000000000000000000000000000000000000000000000600052603260045260246000fd5b906000526020600020906004020190506004600085815260200190815260200160002060003373ffffffffffffffffffffffffffffffffffffffff1673ffffffffffffffffffffffffffffffffffffffff16815260200190815260200160002060009054906101000a900460ff16610622576040517f08c379a000000000000000000000000000000000000000000000000000000000815260040161061990611d69565b60405180910390fd5b60018160030160008282546106379190611e9d565b9250508190555060006004600086815260200190815260200160002060003373ffffffffffffffffffffffffffffffffffffffff1673ffffffffffffffffffffffffffffffffffffffff16815260200190815260200160002060006101000a81548160ff021916908315150217905550833373ffffffffffffffffffffffffffffffffffffffff167ff0dca620e2e81f7841d07bcc105e1704fb01475b278a9d4c236e1c62945edd5560405160405180910390a350505050565b6000600580549050905090565b600080600080600060058681548110610740577f4e487b7100000000000000000000000000000000000000000000000000000000600052603260045260246000fd5b906000526020600020906004020190508060000160009054906101000a900473ffffffffffffffffffffffffffffffffffffffff1681600101548260020160009054906101000a900460ff1683600301549450945094509450509193509193565b60026020528060005260406000206000915054906101000a900460ff1681565b6107c96116f9565b73ffffffffffffffffffffffffffffffffffffffff166107e7610980565b73ffffffffffffffffffffffffffffffffffffffff161461083d576040517f08c379a000000000000000000000000000000000000000000000000000000000815260040161083490611d09565b60405180910390fd5b6108476000611701565b565b7fda5ef0dc178ac91b88a75e00c784aa6cda7295d02eebaec5c697f2b7ca57cdba81565b60046020528160005260406000206020528060005260406000206000915091509054906101000a900460ff1681565b60606005805480602002602001604051908101604052809291908181526020016000905b8282101561097757838290600052602060002090600402016040518060800160405290816000820160009054906101000a900473ffffffffffffffffffffffffffffffffffffffff1673ffffffffffffffffffffffffffffffffffffffff1673ffffffffffffffffffffffffffffffffffffffff168152602001600182015481526020016002820160009054906101000a900460ff16151515158152602001600382015481525050815260200190600101906108c0565b50505050905090565b60008060009054906101000a900473ffffffffffffffffffffffffffffffffffffffff16905090565b600581815481106109b957600080fd5b90600052602060002090600402016000915090508060000160009054906101000a900473ffffffffffffffffffffffffffffffffffffffff16908060010154908060020160009054906101000a900460ff16908060030154905084565b60606001805480602002602001604051908101604052809291908181526020018280548015610a9a57602002820191906000526020600020905b8160009054906101000a900473ffffffffffffffffffffffffffffffffffffffff1673ffffffffffffffffffffffffffffffffffffffff1681526020019060010190808311610a50575b5050505050905090565b7f077585a7292883274c528f5a7c8a18b2bab3cce657128eb68c3a37bd2428b91b81565b600260003373ffffffffffffffffffffffffffffffffffffffff1673ffffffffffffffffffffffffffffffffffffffff16815260200190815260200160002060009054906101000a900460ff16610b54576040517f08c379a0000000000000000000000000000000000000000000000000000000008152600401610b4b90611d29565b60405180910390fd5b806005805490508110610b9c576040517f08c379a0000000000000000000000000000000000000000000000000000000008152600401610b9390611cc9565b60405180910390fd5b8160058181548110610bd7577f4e487b7100000000000000000000000000000000000000000000000000000000600052603260045260246000fd5b906000526020600020906004020160020160009054906101000a900460ff1615610c36576040517f08c379a0000000000000000000000000000000000000000000000000000000008152600401610c2d90611d49565b60405180910390fd5b826004600082815260200190815260200160002060003373ffffffffffffffffffffffffffffffffffffffff1673ffffffffffffffffffffffffffffffffffffffff16815260200190815260200160002060009054906101000a900460ff1615610cd5576040517f08c379a0000000000000000000000000000000000000000000000000000000008152600401610ccc90611ce9565b60405180910390fd5b600060058581548110610d11577f4e487b7100000000000000000000000000000000000000000000000000000000600052603260045260246000fd5b906000526020600020906004020190508060000160009054906101000a900473ffffffffffffffffffffffffffffffffffffffff1673ffffffffffffffffffffffffffffffffffffffff163373ffffffffffffffffffffffffffffffffffffffff161415610db4576040517f08c379a0000000000000000000000000000000000000000000000000000000008152600401610dab90611ca9565b60405180910390fd5b6001816003016000828254610dc99190611e47565b9250508190555060016004600087815260200190815260200160002060003373ffffffffffffffffffffffffffffffffffffffff1673ffffffffffffffffffffffffffffffffffffffff16815260200190815260200160002060006101000a81548160ff0219169083151502179055508060030154853373ffffffffffffffffffffffffffffffffffffffff167fb87db7d4ca68768e8dc3b10eeed8c7d9754bcd3706a1272bad38ec70e2ee0fa260405160405180910390a45050505050565b7f9b82d2f38fbdf13006bfa741767f793d917e063392737837b580c1c2b1e0bab381565b60035481565b60018181548110610ec357600080fd5b906000526020600020016000915054906101000a900473ffffffffffffffffffffffffffffffffffffffff1681565b600260003373ffffffffffffffffffffffffffffffffffffffff1673ffffffffffffffffffffffffffffffffffffffff16815260200190815260200160002060009054906101000a900460ff16610f7e576040517f08c379a0000000000000000000000000000000000000000000000000000000008152600401610f7590611d29565b60405180910390fd5b806005805490508110610fc6576040517f08c379a0000000000000000000000000000000000000000000000000000000008152600401610fbd90611cc9565b60405180910390fd5b8160058181548110611001577f4e487b7100000000000000000000000000000000000000000000000000000000600052603260045260246000fd5b906000526020600020906004020160020160009054906101000a900460ff1615611060576040517f08c379a000000000000000000000000000000000000000000000000000000000815260040161105790611d49565b60405180910390fd5b60006005848154811061109c577f4e487b7100000000000000000000000000000000000000000000000000000000600052603260045260246000fd5b90600052602060002090600402019050600354816003015410156110f5576040517f08c379a00000000000000000000000000000000000000000000000000000000081526004016110ec90611d89565b60405180910390fd5b60018160020160006101000a81548160ff0219169083151502179055507fda5ef0dc178ac91b88a75e00c784aa6cda7295d02eebaec5c697f2b7ca57cdba816001015414156111c557600660009054906101000a900473ffffffffffffffffffffffffffffffffffffffff1673ffffffffffffffffffffffffffffffffffffffff166348c54b9d6040518163ffffffff1660e01b8152600401600060405180830381600087803b1580156111a857600080fd5b505af11580156111bc573d6000803e3d6000fd5b505050506113b0565b7f9b82d2f38fbdf13006bfa741767f793d917e063392737837b580c1c2b1e0bab38160010154141561127857600660009054906101000a900473ffffffffffffffffffffffffffffffffffffffff1673ffffffffffffffffffffffffffffffffffffffff1663e2130d1e6040518163ffffffff1660e01b8152600401600060405180830381600087803b15801561125b57600080fd5b505af115801561126f573d6000803e3d6000fd5b505050506113af565b7f077585a7292883274c528f5a7c8a18b2bab3cce657128eb68c3a37bd2428b91b8160010154141561132b57600660009054906101000a900473ffffffffffffffffffffffffffffffffffffffff1673ffffffffffffffffffffffffffffffffffffffff16637e8ca5f66040518163ffffffff1660e01b8152600401600060405180830381600087803b15801561130e57600080fd5b505af1158015611322573d6000803e3d6000fd5b505050506113ae565b600660009054906101000a900473ffffffffffffffffffffffffffffffffffffffff1673ffffffffffffffffffffffffffffffffffffffff16631dfe3a126040518163ffffffff1660e01b8152600401600060405180830381600087803b15801561139557600080fd5b505af11580156113a9573d6000803e3d6000fd5b505050505b5b5b833373ffffffffffffffffffffffffffffffffffffffff167f5445f318f4f5fcfb66592e68e0cc5822aa15664039bd5f0ffde24c5a8142b1ac60405160405180910390a350505050565b6114026116f9565b73ffffffffffffffffffffffffffffffffffffffff16611420610980565b73ffffffffffffffffffffffffffffffffffffffff1614611476576040517f08c379a000000000000000000000000000000000000000000000000000000000815260040161146d90611d09565b60405180910390fd5b600073ffffffffffffffffffffffffffffffffffffffff168173ffffffffffffffffffffffffffffffffffffffff1614156114e6576040517f08c379a00000000000000000000000000000000000000000000000000000000081526004016114dd90611c89565b60405180910390fd5b6114ef81611701565b50565b7fe94d78b6d8fb99b2c21131eb4552924a60f564d8515a3cc90ef300fc9735c07481565b600260003373ffffffffffffffffffffffffffffffffffffffff1673ffffffffffffffffffffffffffffffffffffffff16815260200190815260200160002060009054906101000a900460ff166115a2576040517f08c379a000000000000000000000000000000000000000000000000000000000815260040161159990611d29565b60405180910390fd5b60006005805490509050600560405180608001604052803373ffffffffffffffffffffffffffffffffffffffff1681526020018481526020016000151581526020016000815250908060018154018082558091505060019003906000526020600020906004020160009091909190915060008201518160000160006101000a81548173ffffffffffffffffffffffffffffffffffffffff021916908373ffffffffffffffffffffffffffffffffffffffff1602179055506020820151816001015560408201518160020160006101000a81548160ff0219169083151502179055506060820151816003015550503373ffffffffffffffffffffffffffffffffffffffff16813373ffffffffffffffffffffffffffffffffffffffff167f78631f30913d5173696d94b388d962e961cc782ba13edfd271ae007bbbdfe348856040516116ed9190611c6e565b60405180910390a45050565b600033905090565b60008060009054906101000a900473ffffffffffffffffffffffffffffffffffffffff169050816000806101000a81548173ffffffffffffffffffffffffffffffffffffffff021916908373ffffffffffffffffffffffffffffffffffffffff1602179055508173ffffffffffffffffffffffffffffffffffffffff168173ffffffffffffffffffffffffffffffffffffffff167f8be0079c531659141344cd1fd0a4f28419497f9722a3daafe3b4186f6b6457e060405160405180910390a35050565b6000813590506117d4816120e9565b92915050565b6000813590506117e981612100565b92915050565b6000813590506117fe81612117565b92915050565b60006020828403121561181657600080fd5b6000611824848285016117c5565b91505092915050565b60006020828403121561183f57600080fd5b600061184d848285016117da565b91505092915050565b60006020828403121561186857600080fd5b6000611876848285016117ef565b91505092915050565b6000806040838503121561189257600080fd5b60006118a0858286016117ef565b92505060206118b1858286016117c5565b9150509250929050565b60006118c783836118eb565b60208301905092915050565b60006118df8383611b3c565b60808301905092915050565b6118f481611ed1565b82525050565b61190381611ed1565b82525050565b600061191482611de4565b61191e8185611e14565b935061192983611dc4565b8060005b8381101561195a57815161194188826118bb565b975061194c83611dfa565b92505060018101905061192d565b5085935050505092915050565b600061197282611def565b61197c8185611e25565b935061198783611dd4565b8060005b838110156119b857815161199f88826118d3565b97506119aa83611e07565b92505060018101905061198b565b5085935050505092915050565b6119ce81611ee3565b82525050565b6119dd81611ee3565b82525050565b6119ec81611eef565b82525050565b6119fb81611eef565b82525050565b6000611a0e602683611e36565b9150611a1982611f52565b604082019050919050565b6000611a31601083611e36565b9150611a3c82611fa1565b602082019050919050565b6000611a54601183611e36565b9150611a5f82611fca565b602082019050919050565b6000611a77601483611e36565b9150611a8282611ff3565b602082019050919050565b6000611a9a602083611e36565b9150611aa58261201c565b602082019050919050565b6000611abd600c83611e36565b9150611ac882612045565b602082019050919050565b6000611ae0601383611e36565b9150611aeb8261206e565b602082019050919050565b6000611b03601083611e36565b9150611b0e82612097565b602082019050919050565b6000611b26601183611e36565b9150611b31826120c0565b602082019050919050565b608082016000820151611b5260008501826118eb565b506020820151611b6560208501826119e3565b506040820151611b7860408501826119c5565b506060820151611b8b6060850182611b91565b50505050565b611b9a81611f19565b82525050565b611ba981611f19565b82525050565b6000602082019050611bc460008301846118fa565b92915050565b6000608082019050611bdf60008301876118fa565b611bec60208301866119f2565b611bf960408301856119d4565b611c066060830184611ba0565b95945050505050565b60006020820190508181036000830152611c298184611909565b905092915050565b60006020820190508181036000830152611c4b8184611967565b905092915050565b6000602082019050611c6860008301846119d4565b92915050565b6000602082019050611c8360008301846119f2565b92915050565b60006020820190508181036000830152611ca281611a01565b9050919050565b60006020820190508181036000830152611cc281611a24565b9050919050565b60006020820190508181036000830152611ce281611a47565b9050919050565b60006020820190508181036000830152611d0281611a6a565b9050919050565b60006020820190508181036000830152611d2281611a8d565b9050919050565b60006020820190508181036000830152611d4281611ab0565b9050919050565b60006020820190508181036000830152611d6281611ad3565b9050919050565b60006020820190508181036000830152611d8281611af6565b9050919050565b60006020820190508181036000830152611da281611b19565b9050919050565b6000602082019050611dbe6000830184611ba0565b92915050565b6000819050602082019050919050565b6000819050602082019050919050565b600081519050919050565b600081519050919050565b6000602082019050919050565b6000602082019050919050565b600082825260208201905092915050565b600082825260208201905092915050565b600082825260208201905092915050565b6000611e5282611f19565b9150611e5d83611f19565b9250827fffffffffffffffffffffffffffffffffffffffffffffffffffffffffffffffff03821115611e9257611e91611f23565b5b828201905092915050565b6000611ea882611f19565b9150611eb383611f19565b925082821015611ec657611ec5611f23565b5b828203905092915050565b6000611edc82611ef9565b9050919050565b60008115159050919050565b6000819050919050565b600073ffffffffffffffffffffffffffffffffffffffff82169050919050565b6000819050919050565b7f4e487b7100000000000000000000000000000000000000000000000000000000600052601160045260246000fd5b7f4f776e61626c653a206e6577206f776e657220697320746865207a65726f206160008201527f6464726573730000000000000000000000000000000000000000000000000000602082015250565b7f696e76616c696420617070726f76657200000000000000000000000000000000600082015250565b7f747820646f6573206e6f74206578697374000000000000000000000000000000600082015250565b7f747820616c726561647920636f6e6669726d6564000000000000000000000000600082015250565b7f4f776e61626c653a2063616c6c6572206973206e6f7420746865206f776e6572600082015250565b7f6e6f7420617070726f7665720000000000000000000000000000000000000000600082015250565b7f747820616c726561647920657865637574656400000000000000000000000000600082015250565b7f7478206e6f7420636f6e6669726d656400000000000000000000000000000000600082015250565b7f63616e6e6f742065786563757465207478000000000000000000000000000000600082015250565b6120f281611ed1565b81146120fd57600080fd5b50565b61210981611eef565b811461211457600080fd5b50565b61212081611f19565b811461212b57600080fd5b5056fea2646970667358221220f1df61f0b0bc52ed3462ccd470d21fa633ed47dcde180a9b69b46822813be1ec64736f6c63430008040033",
  "linkReferences": {},
  "deployedLinkReferences": {}
}