{
  "_format": "hh-sol-artifact-1",
  "contractName": "EIVToken",
  "sourceName": "contracts/EIVToken.sol",
  "abi": [
    {
      "inputs": [
        {
          "internalType": "address",
          "name": "_companyWallet",
          "type": "address"
        },
        {
          "internalType": "address",
          "name": "_teamWallet",
          "type": "address"
        },
        {
          "internalType": "address",
          "name": "_advisoryWallet",
          "type": "address"
        },
        {
          "internalType": "address",
          "name": "_communityWallet",
          "type": "address"
        }
      ],
      "stateMutability": "nonpayable",
      "type": "constructor"
    },
    {
      "anonymous": false,
      "inputs": [
        {
          "indexed": true,
          "internalType": "address",
          "name": "owner",
          "type": "address"
        },
        {
          "indexed": true,
          "internalType": "address",
          "name": "spender",
          "type": "address"
        },
        {
          "indexed": false,
          "internalType": "uint256",
          "name": "value",
          "type": "uint256"
        }
      ],
      "name": "Approval",
      "type": "event"
    },
    {
      "anonymous": false,
      "inputs": [
        {
          "indexed": true,
          "internalType": "address",
          "name": "previousOwner",
          "type": "address"
        },
        {
          "indexed": true,
          "internalType": "address",
          "name": "newOwner",
          "type": "address"
        }
      ],
      "name": "OwnershipTransferred",
      "type": "event"
    },
    {
      "anonymous": false,
      "inputs": [
        {
          "indexed": true,
          "internalType": "bytes32",
          "name": "role",
          "type": "bytes32"
        },
        {
          "indexed": true,
          "internalType": "bytes32",
          "name": "previousAdminRole",
          "type": "bytes32"
        },
        {
          "indexed": true,
          "internalType": "bytes32",
          "name": "newAdminRole",
          "type": "bytes32"
        }
      ],
      "name": "RoleAdminChanged",
      "type": "event"
    },
    {
      "anonymous": false,
      "inputs": [
        {
          "indexed": true,
          "internalType": "bytes32",
          "name": "role",
          "type": "bytes32"
        },
        {
          "indexed": true,
          "internalType": "address",
          "name": "account",
          "type": "address"
        },
        {
          "indexed": true,
          "internalType": "address",
          "name": "sender",
          "type": "address"
        }
      ],
      "name": "RoleGranted",
      "type": "event"
    },
    {
      "anonymous": false,
      "inputs": [
        {
          "indexed": true,
          "internalType": "bytes32",
          "name": "role",
          "type": "bytes32"
        },
        {
          "indexed": true,
          "internalType": "address",
          "name": "account",
          "type": "address"
        },
        {
          "indexed": true,
          "internalType": "address",
          "name": "sender",
          "type": "address"
        }
      ],
      "name": "RoleRevoked",
      "type": "event"
    },
    {
      "anonymous": false,
      "inputs": [
        {
          "indexed": true,
          "internalType": "address",
          "name": "from",
          "type": "address"
        },
        {
          "indexed": true,
          "internalType": "address",
          "name": "to",
          "type": "address"
        },
        {
          "indexed": false,
          "internalType": "uint256",
          "name": "value",
          "type": "uint256"
        }
      ],
      "name": "Transfer",
      "type": "event"
    },
    {
      "anonymous": false,
      "inputs": [
        {
          "indexed": true,
          "internalType": "address",
          "name": "claimer",
          "type": "address"
        },
        {
          "indexed": false,
          "internalType": "uint256",
          "name": "price",
          "type": "uint256"
        }
      ],
      "name": "UnlockAdvisorTokens",
      "type": "event"
    },
    {
      "anonymous": false,
      "inputs": [
        {
          "indexed": true,
          "internalType": "address",
          "name": "claimer",
          "type": "address"
        },
        {
          "indexed": false,
          "internalType": "uint256",
          "name": "price",
          "type": "uint256"
        }
      ],
      "name": "UnlockCommunityTokens",
      "type": "event"
    },
    {
      "anonymous": false,
      "inputs": [
        {
          "indexed": true,
          "internalType": "address",
          "name": "claimer",
          "type": "address"
        },
        {
          "indexed": false,
          "internalType": "uint256",
          "name": "price",
          "type": "uint256"
        }
      ],
      "name": "UnlockCompanyTokens",
      "type": "event"
    },
    {
      "anonymous": false,
      "inputs": [
        {
          "indexed": true,
          "internalType": "address",
          "name": "claimer",
          "type": "address"
        },
        {
          "indexed": false,
          "internalType": "uint256",
          "name": "price",
          "type": "uint256"
        }
      ],
      "name": "UnlockTeamTokens",
      "type": "event"
    },
    {
      "inputs": [],
      "name": "ADVISOR_TOKENS",
      "outputs": [
        {
          "internalType": "uint256",
          "name": "",
          "type": "uint256"
        }
      ],
      "stateMutability": "view",
      "type": "function"
    },
    {
      "inputs": [],
      "name": "COMMUNITY_TOKENS",
      "outputs": [
        {
          "internalType": "uint256",
          "name": "",
          "type": "uint256"
        }
      ],
      "stateMutability": "view",
      "type": "function"
    },
    {
      "inputs": [],
      "name": "DEFAULT_ADMIN_ROLE",
      "outputs": [
        {
          "internalType": "bytes32",
          "name": "",
          "type": "bytes32"
        }
      ],
      "stateMutability": "view",
      "type": "function"
    },
    {
      "inputs": [],
      "name": "INITIAL_SUPPLY",
      "outputs": [
        {
          "internalType": "uint256",
          "name": "",
          "type": "uint256"
        }
      ],
      "stateMutability": "view",
      "type": "function"
    },
    {
      "inputs": [],
      "name": "LOCK_PERIOD_ADVISOR",
      "outputs": [
        {
          "internalType": "uint256",
          "name": "",
          "type": "uint256"
        }
      ],
      "stateMutability": "view",
      "type": "function"
    },
    {
      "inputs": [],
      "name": "LOCK_PERIOD_COMMUNITY",
      "outputs": [
        {
          "internalType": "uint256",
          "name": "",
          "type": "uint256"
        }
      ],
      "stateMutability": "view",
      "type": "function"
    },
    {
      "inputs": [],
      "name": "LOCK_PERIOD_TEAM",
      "outputs": [
        {
          "internalType": "uint256",
          "name": "",
          "type": "uint256"
        }
      ],
      "stateMutability": "view",
      "type": "function"
    },
    {
      "inputs": [],
      "name": "MINTER_ROLE",
      "outputs": [
        {
          "internalType": "bytes32",
          "name": "",
          "type": "bytes32"
        }
      ],
      "stateMutability": "view",
      "type": "function"
    },
    {
      "inputs": [],
      "name": "RELEASE_PERIOD_ADVISOR",
      "outputs": [
        {
          "internalType": "uint256",
          "name": "",
          "type": "uint256"
        }
      ],
      "stateMutability": "view",
      "type": "function"
    },
    {
      "inputs": [],
      "name": "RELEASE_PERIOD_COMMUNITY",
      "outputs": [
        {
          "internalType": "uint256",
          "name": "",
          "type": "uint256"
        }
      ],
      "stateMutability": "view",
      "type": "function"
    },
    {
      "inputs": [],
      "name": "RELEASE_PERIOD_TEAM",
      "outputs": [
        {
          "internalType": "uint256",
          "name": "",
          "type": "uint256"
        }
      ],
      "stateMutability": "view",
      "type": "function"
    },
    {
      "inputs": [],
      "name": "TEAM_TOKENS",
      "outputs": [
        {
          "internalType": "uint256",
          "name": "",
          "type": "uint256"
        }
      ],
      "stateMutability": "view",
      "type": "function"
    },
    {
      "inputs": [],
      "name": "TGE_TIMESTAMP",
      "outputs": [
        {
          "internalType": "uint256",
          "name": "",
          "type": "uint256"
        }
      ],
      "stateMutability": "view",
      "type": "function"
    },
    {
      "inputs": [],
      "name": "UNLOCKED_TOKENS",
      "outputs": [
        {
          "internalType": "uint256",
          "name": "",
          "type": "uint256"
        }
      ],
      "stateMutability": "view",
      "type": "function"
    },
    {
      "inputs": [],
      "name": "advisoryWallet",
      "outputs": [
        {
          "internalType": "address",
          "name": "",
          "type": "address"
        }
      ],
      "stateMutability": "view",
      "type": "function"
    },
    {
      "inputs": [
        {
          "internalType": "address",
          "name": "owner",
          "type": "address"
        },
        {
          "internalType": "address",
          "name": "spender",
          "type": "address"
        }
      ],
      "name": "allowance",
      "outputs": [
        {
          "internalType": "uint256",
          "name": "",
          "type": "uint256"
        }
      ],
      "stateMutability": "view",
      "type": "function"
    },
    {
      "inputs": [
        {
          "internalType": "address",
          "name": "spender",
          "type": "address"
        },
        {
          "internalType": "uint256",
          "name": "amount",
          "type": "uint256"
        }
      ],
      "name": "approve",
      "outputs": [
        {
          "internalType": "bool",
          "name": "",
          "type": "bool"
        }
      ],
      "stateMutability": "nonpayable",
      "type": "function"
    },
    {
      "inputs": [
        {
          "internalType": "address",
          "name": "account",
          "type": "address"
        }
      ],
      "name": "balanceOf",
      "outputs": [
        {
          "internalType": "uint256",
          "name": "",
          "type": "uint256"
        }
      ],
      "stateMutability": "view",
      "type": "function"
    },
    {
      "inputs": [
        {
          "internalType": "uint256",
          "name": "amount",
          "type": "uint256"
        }
      ],
      "name": "burn",
      "outputs": [],
      "stateMutability": "nonpayable",
      "type": "function"
    },
    {
      "inputs": [
        {
          "internalType": "address",
          "name": "account",
          "type": "address"
        },
        {
          "internalType": "uint256",
          "name": "amount",
          "type": "uint256"
        }
      ],
      "name": "burnFrom",
      "outputs": [],
      "stateMutability": "nonpayable",
      "type": "function"
    },
    {
      "inputs": [],
      "name": "claimTokens",
      "outputs": [],
      "stateMutability": "nonpayable",
      "type": "function"
    },
    {
      "inputs": [],
      "name": "communityWallet",
      "outputs": [
        {
          "internalType": "address",
          "name": "",
          "type": "address"
        }
      ],
      "stateMutability": "view",
      "type": "function"
    },
    {
      "inputs": [],
      "name": "companyWallet",
      "outputs": [
        {
          "internalType": "address",
          "name": "",
          "type": "address"
        }
      ],
      "stateMutability": "view",
      "type": "function"
    },
    {
      "inputs": [],
      "name": "decimals",
      "outputs": [
        {
          "internalType": "uint8",
          "name": "",
          "type": "uint8"
        }
      ],
      "stateMutability": "view",
      "type": "function"
    },
    {
      "inputs": [
        {
          "internalType": "address",
          "name": "spender",
          "type": "address"
        },
        {
          "internalType": "uint256",
          "name": "subtractedValue",
          "type": "uint256"
        }
      ],
      "name": "decreaseAllowance",
      "outputs": [
        {
          "internalType": "bool",
          "name": "",
          "type": "bool"
        }
      ],
      "stateMutability": "nonpayable",
      "type": "function"
    },
    {
      "inputs": [
        {
          "internalType": "bytes32",
          "name": "role",
          "type": "bytes32"
        }
      ],
      "name": "getRoleAdmin",
      "outputs": [
        {
          "internalType": "bytes32",
          "name": "",
          "type": "bytes32"
        }
      ],
      "stateMutability": "view",
      "type": "function"
    },
    {
      "inputs": [
        {
          "internalType": "bytes32",
          "name": "role",
          "type": "bytes32"
        },
        {
          "internalType": "address",
          "name": "account",
          "type": "address"
        }
      ],
      "name": "grantRole",
      "outputs": [],
      "stateMutability": "nonpayable",
      "type": "function"
    },
    {
      "inputs": [
        {
          "internalType": "bytes32",
          "name": "role",
          "type": "bytes32"
        },
        {
          "internalType": "address",
          "name": "account",
          "type": "address"
        }
      ],
      "name": "hasRole",
      "outputs": [
        {
          "internalType": "bool",
          "name": "",
          "type": "bool"
        }
      ],
      "stateMutability": "view",
      "type": "function"
    },
    {
      "inputs": [
        {
          "internalType": "address",
          "name": "spender",
          "type": "address"
        },
        {
          "internalType": "uint256",
          "name": "addedValue",
          "type": "uint256"
        }
      ],
      "name": "increaseAllowance",
      "outputs": [
        {
          "internalType": "bool",
          "name": "",
          "type": "bool"
        }
      ],
      "stateMutability": "nonpayable",
      "type": "function"
    },
    {
      "inputs": [],
      "name": "lockedAdvisorBalance",
      "outputs": [
        {
          "internalType": "uint256",
          "name": "",
          "type": "uint256"
        }
      ],
      "stateMutability": "view",
      "type": "function"
    },
    {
      "inputs": [],
      "name": "lockedCommunityBalance",
      "outputs": [
        {
          "internalType": "uint256",
          "name": "",
          "type": "uint256"
        }
      ],
      "stateMutability": "view",
      "type": "function"
    },
    {
      "inputs": [],
      "name": "lockedCompanyBalance",
      "outputs": [
        {
          "internalType": "uint256",
          "name": "",
          "type": "uint256"
        }
      ],
      "stateMutability": "view",
      "type": "function"
    },
    {
      "inputs": [],
      "name": "lockedTeamBalance",
      "outputs": [
        {
          "internalType": "uint256",
          "name": "",
          "type": "uint256"
        }
      ],
      "stateMutability": "view",
      "type": "function"
    },
    {
      "inputs": [],
      "name": "name",
      "outputs": [
        {
          "internalType": "string",
          "name": "",
          "type": "string"
        }
      ],
      "stateMutability": "view",
      "type": "function"
    },
    {
      "inputs": [],
      "name": "owner",
      "outputs": [
        {
          "internalType": "address",
          "name": "",
          "type": "address"
        }
      ],
      "stateMutability": "view",
      "type": "function"
    },
    {
      "inputs": [],
      "name": "renounceOwnership",
      "outputs": [],
      "stateMutability": "nonpayable",
      "type": "function"
    },
    {
      "inputs": [
        {
          "internalType": "bytes32",
          "name": "role",
          "type": "bytes32"
        },
        {
          "internalType": "address",
          "name": "account",
          "type": "address"
        }
      ],
      "name": "renounceRole",
      "outputs": [],
      "stateMutability": "nonpayable",
      "type": "function"
    },
    {
      "inputs": [
        {
          "internalType": "bytes32",
          "name": "role",
          "type": "bytes32"
        },
        {
          "internalType": "address",
          "name": "account",
          "type": "address"
        }
      ],
      "name": "revokeRole",
      "outputs": [],
      "stateMutability": "nonpayable",
      "type": "function"
    },
    {
      "inputs": [
        {
          "internalType": "address",
          "name": "_advisoryWallet",
          "type": "address"
        }
      ],
      "name": "setAdvisoryWallet",
      "outputs": [],
      "stateMutability": "nonpayable",
      "type": "function"
    },
    {
      "inputs": [
        {
          "internalType": "address",
          "name": "_communityWallet",
          "type": "address"
        }
      ],
      "name": "setCommunityWallet",
      "outputs": [],
      "stateMutability": "nonpayable",
      "type": "function"
    },
    {
      "inputs": [
        {
          "internalType": "address",
          "name": "_companyWallet",
          "type": "address"
        }
      ],
      "name": "setCompanyWallet",
      "outputs": [],
      "stateMutability": "nonpayable",
      "type": "function"
    },
    {
      "inputs": [
        {
          "internalType": "address",
          "name": "_teamWallet",
          "type": "address"
        }
      ],
      "name": "setTeamWallet",
      "outputs": [],
      "stateMutability": "nonpayable",
      "type": "function"
    },
    {
      "inputs": [
        {
          "internalType": "bytes4",
          "name": "interfaceId",
          "type": "bytes4"
        }
      ],
      "name": "supportsInterface",
      "outputs": [
        {
          "internalType": "bool",
          "name": "",
          "type": "bool"
        }
      ],
      "stateMutability": "view",
      "type": "function"
    },
    {
      "inputs": [],
      "name": "symbol",
      "outputs": [
        {
          "internalType": "string",
          "name": "",
          "type": "string"
        }
      ],
      "stateMutability": "view",
      "type": "function"
    },
    {
      "inputs": [],
      "name": "teamWallet",
      "outputs": [
        {
          "internalType": "address",
          "name": "",
          "type": "address"
        }
      ],
      "stateMutability": "view",
      "type": "function"
    },
    {
      "inputs": [],
      "name": "totalSupply",
      "outputs": [
        {
          "internalType": "uint256",
          "name": "",
          "type": "uint256"
        }
      ],
      "stateMutability": "view",
      "type": "function"
    },
    {
      "inputs": [
        {
          "internalType": "address",
          "name": "to",
          "type": "address"
        },
        {
          "internalType": "uint256",
          "name": "amount",
          "type": "uint256"
        }
      ],
      "name": "transfer",
      "outputs": [
        {
          "internalType": "bool",
          "name": "",
          "type": "bool"
        }
      ],
      "stateMutability": "nonpayable",
      "type": "function"
    },
    {
      "inputs": [
        {
          "internalType": "address",
          "name": "from",
          "type": "address"
        },
        {
          "internalType": "address",
          "name": "to",
          "type": "address"
        },
        {
          "internalType": "uint256",
          "name": "amount",
          "type": "uint256"
        }
      ],
      "name": "transferFrom",
      "outputs": [
        {
          "internalType": "bool",
          "name": "",
          "type": "bool"
        }
      ],
      "stateMutability": "nonpayable",
      "type": "function"
    },
    {
      "inputs": [
        {
          "internalType": "address",
          "name": "newOwner",
          "type": "address"
        }
      ],
      "name": "transferOwnership",
      "outputs": [],
      "stateMutability": "nonpayable",
      "type": "function"
    },
    {
      "inputs": [],
      "name": "unlockAdvisorTokens",
      "outputs": [],
      "stateMutability": "nonpayable",
      "type": "function"
    },
    {
      "inputs": [],
      "name": "unlockCommunityTokens",
      "outputs": [],
      "stateMutability": "nonpayable",
      "type": "function"
    },
    {
      "inputs": [],
      "name": "unlockTeamTokens",
      "outputs": [],
      "stateMutability": "nonpayable",
      "type": "function"
    }
  ],
  "bytecode": "0x60e06040523480156200001157600080fd5b50604051620046ce380380620046ce8339818101604052810190620000379190620005f6565b6040518060400160405280600981526020017f45495620546f6b656e00000000000000000000000000000000000000000000008152506040518060400160405280600381526020017f45495600000000000000000000000000000000000000000000000000000000008152508160039080519060200190620000bb9291906200052f565b508060049080519060200190620000d49291906200052f565b505050620000f7620000eb620002ee60201b60201c565b620002f660201b60201c565b6200010c6000801b33620003bc60201b60201c565b6200013e7f9f2df0fed2c77648de5860a4cc508cd0818c85b8b8a1ab4ceeef8d981c8956a633620003bc60201b60201c565b6b107a9f01fbda8e036c000000600b819055506b033b2e3c9fd0803ce8000000600c819055506b02e87669c308736a04000000600d819055506b09b18ab5df7180b6b8000000600e819055506302c7ea0063621c8100620001a0919062000662565b608081815250506301da9c0063621c8100620001bd919062000662565b60a0818152505062ed4e0063621c8100620001d9919062000662565b60c0818152505083600760006101000a81548173ffffffffffffffffffffffffffffffffffffffff021916908373ffffffffffffffffffffffffffffffffffffffff16021790555082600860006101000a81548173ffffffffffffffffffffffffffffffffffffffff021916908373ffffffffffffffffffffffffffffffffffffffff16021790555081600960006101000a81548173ffffffffffffffffffffffffffffffffffffffff021916908373ffffffffffffffffffffffffffffffffffffffff16021790555080600a60006101000a81548173ffffffffffffffffffffffffffffffffffffffff021916908373ffffffffffffffffffffffffffffffffffffffff16021790555050505050620007ab565b600033905090565b6000600660009054906101000a900473ffffffffffffffffffffffffffffffffffffffff16905081600660006101000a81548173ffffffffffffffffffffffffffffffffffffffff021916908373ffffffffffffffffffffffffffffffffffffffff1602179055508173ffffffffffffffffffffffffffffffffffffffff168173ffffffffffffffffffffffffffffffffffffffff167f8be0079c531659141344cd1fd0a4f28419497f9722a3daafe3b4186f6b6457e060405160405180910390a35050565b620003ce8282620003d260201b60201c565b5050565b620003e48282620004c460201b60201c565b620004c05760016005600084815260200190815260200160002060000160008373ffffffffffffffffffffffffffffffffffffffff1673ffffffffffffffffffffffffffffffffffffffff16815260200190815260200160002060006101000a81548160ff02191690831515021790555062000465620002ee60201b60201c565b73ffffffffffffffffffffffffffffffffffffffff168173ffffffffffffffffffffffffffffffffffffffff16837f2f8788117e7eff1d82e926ec794901d17c78024a50270940304540a733656f0d60405160405180910390a45b5050565b60006005600084815260200190815260200160002060000160008373ffffffffffffffffffffffffffffffffffffffff1673ffffffffffffffffffffffffffffffffffffffff16815260200190815260200160002060009054906101000a900460ff16905092915050565b8280546200053d90620006fd565b90600052602060002090601f016020900481019282620005615760008555620005ad565b82601f106200057c57805160ff1916838001178555620005ad565b82800160010185558215620005ad579182015b82811115620005ac5782518255916020019190600101906200058f565b5b509050620005bc9190620005c0565b5090565b5b80821115620005db576000816000905550600101620005c1565b5090565b600081519050620005f08162000791565b92915050565b600080600080608085870312156200060d57600080fd5b60006200061d87828801620005df565b94505060206200063087828801620005df565b93505060406200064387828801620005df565b92505060606200065687828801620005df565b91505092959194509250565b60006200066f82620006f3565b91506200067c83620006f3565b9250827fffffffffffffffffffffffffffffffffffffffffffffffffffffffffffffffff03821115620006b457620006b362000733565b5b828201905092915050565b6000620006cc82620006d3565b9050919050565b600073ffffffffffffffffffffffffffffffffffffffff82169050919050565b6000819050919050565b600060028204905060018216806200071657607f821691505b602082108114156200072d576200072c62000762565b5b50919050565b7f4e487b7100000000000000000000000000000000000000000000000000000000600052601160045260246000fd5b7f4e487b7100000000000000000000000000000000000000000000000000000000600052602260045260246000fd5b6200079c81620006bf565b8114620007a857600080fd5b50565b60805160a05160c051613ec96200080560003960008181610b5901528181610bc4015261101f015260008181610fea015281816114bc0152611527015260008181610fb501528181611af50152611b600152613ec96000f3fe608060405234801561001057600080fd5b506004361061030c5760003560e01c806370a082311161019d578063a457c2d7116100e9578063d547741f116100a2578063e2130d1e1161007c578063e2130d1e14610903578063e29121de1461090d578063f2fde38b1461092b578063f97a229b146109475761030c565b8063d547741f14610899578063dc493790146108b5578063dd62ed3e146108d35761030c565b8063a457c2d7146107c1578063a9059cbb146107f1578063b26e92a214610821578063c75748391461083f578063d06e31cb1461085d578063d53913931461087b5761030c565b806385d6bb811161015657806395d89b411161013057806395d89b411461074b5780639828469914610769578063a217fddf14610787578063a3c441e7146107a55761030c565b806385d6bb81146106e15780638da5cb5b146106fd57806391d148541461071b5761030c565b806370a0823114610645578063715018a61461067557806379cc67901461067f5780637c50b4c51461069b5780637e8ca5f6146106b957806381ff4d0b146106c35761030c565b80632f2ff15d1161025c5780633b3e8f951161021557806359927044116101ef57806359927044146105cd5780635b84d899146105eb5780636e3c8034146106095780636f5c2622146106275761030c565b80633b3e8f951461058957806342966c68146105a757806348c54b9d146105c35761030c565b80632f2ff15d146104c75780632ff2e9dc146104e3578063313ce5671461050157806336568abe1461051f578063395093511461053b57806339565cdb1461056b5761030c565b80631dfe3a12116102c9578063248a9ca3116102a3578063248a9ca31461043f578063266572de1461046f578063268e41691461048d57806328831187146104ab5761030c565b80631dfe3a12146103e75780631ec32d15146103f157806323b872dd1461040f5761030c565b806301ffc9a71461031157806306fdde0314610341578063095ea7b31461035f5780631525ff7d1461038f57806318160ddd146103ab5780631d523047146103c9575b600080fd5b61032b60048036038101906103269190612e43565b610965565b60405161033891906132c4565b60405180910390f35b6103496109df565b60405161035691906132fa565b60405180910390f35b61037960048036038101906103749190612da2565b610a71565b60405161038691906132c4565b60405180910390f35b6103a960048036038101906103a49190612cee565b610a94565b005b6103b3610b0b565b6040516103c091906135bc565b60405180910390f35b6103d1610b15565b6040516103de91906135bc565b60405180910390f35b6103ef610b25565b005b6103f9610ceb565b60405161040691906132a9565b60405180910390f35b61042960048036038101906104249190612d53565b610d11565b60405161043691906132c4565b60405180910390f35b61045960048036038101906104549190612dde565b610d40565b60405161046691906132df565b60405180910390f35b610477610d60565b60405161048491906135bc565b60405180910390f35b610495610d67565b6040516104a291906135bc565b60405180910390f35b6104c560048036038101906104c09190612cee565b610d6f565b005b6104e160048036038101906104dc9190612e07565b610de6565b005b6104eb610e0f565b6040516104f891906135bc565b60405180910390f35b610509610e1f565b60405161051691906135d7565b60405180910390f35b61053960048036038101906105349190612e07565b610e28565b005b61055560048036038101906105509190612da2565b610eab565b60405161056291906132c4565b60405180910390f35b610573610f55565b60405161058091906135bc565b60405180910390f35b610591610f5d565b60405161059e91906135bc565b60405180910390f35b6105c160048036038101906105bc9190612e6c565b610f65565b005b6105cb610f79565b005b6105d5611346565b6040516105e291906132a9565b60405180910390f35b6105f361136c565b60405161060091906135bc565b60405180910390f35b610611611376565b60405161061e91906135bc565b60405180910390f35b61062f61137e565b60405161063c91906135bc565b60405180910390f35b61065f600480360381019061065a9190612cee565b611388565b60405161066c91906135bc565b60405180910390f35b61067d6113d0565b005b61069960048036038101906106949190612da2565b611458565b005b6106a3611478565b6040516106b091906135bc565b60405180910390f35b6106c1611488565b005b6106cb61164e565b6040516106d891906135bc565b60405180910390f35b6106fb60048036038101906106f69190612cee565b61165e565b005b6107056116d5565b60405161071291906132a9565b60405180910390f35b61073560048036038101906107309190612e07565b6116ff565b60405161074291906132c4565b60405180910390f35b61075361176a565b60405161076091906132fa565b60405180910390f35b6107716117fc565b60405161077e91906135bc565b60405180910390f35b61078f611804565b60405161079c91906132df565b60405180910390f35b6107bf60048036038101906107ba9190612cee565b61180b565b005b6107db60048036038101906107d69190612da2565b611882565b6040516107e891906132c4565b60405180910390f35b61080b60048036038101906108069190612da2565b61196c565b60405161081891906132c4565b60405180910390f35b61082961198f565b60405161083691906135bc565b60405180910390f35b610847611999565b60405161085491906132a9565b60405180910390f35b6108656119bf565b60405161087291906135bc565b60405180910390f35b6108836119c7565b60405161089091906132df565b60405180910390f35b6108b360048036038101906108ae9190612e07565b6119eb565b005b6108bd611a14565b6040516108ca91906132a9565b60405180910390f35b6108ed60048036038101906108e89190612d17565b611a3a565b6040516108fa91906135bc565b60405180910390f35b61090b611ac1565b005b610915611c87565b60405161092291906135bc565b60405180910390f35b61094560048036038101906109409190612cee565b611c97565b005b61094f611d8f565b60405161095c91906135bc565b60405180910390f35b60007f7965db0b000000000000000000000000000000000000000000000000000000007bffffffffffffffffffffffffffffffffffffffffffffffffffffffff1916827bffffffffffffffffffffffffffffffffffffffffffffffffffffffff191614806109d857506109d782611d99565b5b9050919050565b6060600380546109ee90613816565b80601f0160208091040260200160405190810160405280929190818152602001828054610a1a90613816565b8015610a675780601f10610a3c57610100808354040283529160200191610a67565b820191906000526020600020905b815481529060010190602001808311610a4a57829003601f168201915b5050505050905090565b600080610a7c611e03565b9050610a89818585611e0b565b600191505092915050565b7f9f2df0fed2c77648de5860a4cc508cd0818c85b8b8a1ab4ceeef8d981c8956a6610ac681610ac1611e03565b611fd6565b81600860006101000a81548173ffffffffffffffffffffffffffffffffffffffff021916908373ffffffffffffffffffffffffffffffffffffffff1602179055505050565b6000600254905090565b6b09b18ab5df7180b6b800000081565b7f9f2df0fed2c77648de5860a4cc508cd0818c85b8b8a1ab4ceeef8d981c8956a6610b5781610b52611e03565b611fd6565b7f0000000000000000000000000000000000000000000000000000000000000000421015610bba576040517f08c379a0000000000000000000000000000000000000000000000000000000008152600401610bb19061351c565b60405180910390fd5b6000610bed600e547f00000000000000000000000000000000000000000000000000000000000000006301e13380612073565b905060008111610c32576040517f08c379a0000000000000000000000000000000000000000000000000000000008152600401610c299061355c565b60405180910390fd5b80600e6000828254610c4491906136fa565b92505081905550610c77600a60009054906101000a900473ffffffffffffffffffffffffffffffffffffffff16826120c9565b600a60009054906101000a900473ffffffffffffffffffffffffffffffffffffffff1673ffffffffffffffffffffffffffffffffffffffff167f149056fd5e81d1373a707d130e5eaf7941d6407dc8553b3d66471e9834421f4382604051610cdf91906135bc565b60405180910390a25050565b600760009054906101000a900473ffffffffffffffffffffffffffffffffffffffff1681565b600080610d1c611e03565b9050610d29858285612229565b610d348585856122b5565b60019150509392505050565b600060056000838152602001908152602001600020600101549050919050565b62ed4e0081565b6301da9c0081565b7f9f2df0fed2c77648de5860a4cc508cd0818c85b8b8a1ab4ceeef8d981c8956a6610da181610d9c611e03565b611fd6565b81600760006101000a81548173ffffffffffffffffffffffffffffffffffffffff021916908373ffffffffffffffffffffffffffffffffffffffff1602179055505050565b610def82610d40565b610e0081610dfb611e03565b611fd6565b610e0a8383612536565b505050565b6b204fce5e3e2502611000000081565b60006012905090565b610e30611e03565b73ffffffffffffffffffffffffffffffffffffffff168173ffffffffffffffffffffffffffffffffffffffff1614610e9d576040517f08c379a0000000000000000000000000000000000000000000000000000000008152600401610e949061357c565b60405180910390fd5b610ea78282612617565b5050565b600080610eb6611e03565b9050610f4a818585600160008673ffffffffffffffffffffffffffffffffffffffff1673ffffffffffffffffffffffffffffffffffffffff16815260200190815260200160002060008973ffffffffffffffffffffffffffffffffffffffff1673ffffffffffffffffffffffffffffffffffffffff16815260200190815260200160002054610f459190613619565b611e0b565b600191505092915050565b63621c810081565b6305a39a8081565b610f76610f70611e03565b826126f9565b50565b7f9f2df0fed2c77648de5860a4cc508cd0818c85b8b8a1ab4ceeef8d981c8956a6610fab81610fa6611e03565b611fd6565b6000610fde600c547f00000000000000000000000000000000000000000000000000000000000000006305a39a80612073565b90506000611013600d547f00000000000000000000000000000000000000000000000000000000000000006302d1cd40612073565b90506000611048600e547f00000000000000000000000000000000000000000000000000000000000000006301e13380612073565b90506000600b5490506000828486846110619190613619565b61106b9190613619565b6110759190613619565b9050600081116110ba576040517f08c379a00000000000000000000000000000000000000000000000000000000081526004016110b19061335c565b60405180910390fd5b84600c546110c891906136fa565b600c8190555083600d546110dc91906136fa565b600d8190555082600e546110f091906136fa565b600e819055506000600b8190555061110830826120c9565b60008211156111af5761113e30600760009054906101000a900473ffffffffffffffffffffffffffffffffffffffff16846122b5565b600760009054906101000a900473ffffffffffffffffffffffffffffffffffffffff1673ffffffffffffffffffffffffffffffffffffffff167f25d5f5ee850b664ccf31fc284b0c5e3985d10245f0486cb7874e4f7c456d52a5836040516111a691906135bc565b60405180910390a25b6000851115611234576111e530600860009054906101000a900473ffffffffffffffffffffffffffffffffffffffff16876122b5565b3373ffffffffffffffffffffffffffffffffffffffff167fc6ed111f8bd14bd22a954c62c2799ec5f9144d78a9b739ee37ee9a00e6c81d668660405161122b91906135bc565b60405180910390a25b60008311156112b95761126a30600a60009054906101000a900473ffffffffffffffffffffffffffffffffffffffff16856122b5565b3373ffffffffffffffffffffffffffffffffffffffff167f149056fd5e81d1373a707d130e5eaf7941d6407dc8553b3d66471e9834421f43846040516112b091906135bc565b60405180910390a25b600084111561133e576112ef30600960009054906101000a900473ffffffffffffffffffffffffffffffffffffffff16866122b5565b3373ffffffffffffffffffffffffffffffffffffffff167f7ce5f3f619be69c6c0f30f3bbd013fbefe37c19491d53fdc21b003f980f40c1e8560405161133591906135bc565b60405180910390a25b505050505050565b600860009054906101000a900473ffffffffffffffffffffffffffffffffffffffff1681565b6000600d54905090565b6301e1338081565b6000600c54905090565b60008060008373ffffffffffffffffffffffffffffffffffffffff1673ffffffffffffffffffffffffffffffffffffffff168152602001908152602001600020549050919050565b6113d8611e03565b73ffffffffffffffffffffffffffffffffffffffff166113f66116d5565b73ffffffffffffffffffffffffffffffffffffffff161461144c576040517f08c379a00000000000000000000000000000000000000000000000000000000081526004016114439061349c565b60405180910390fd5b61145660006128d0565b565b61146a82611464611e03565b83612229565b61147482826126f9565b5050565b6b107a9f01fbda8e036c00000081565b7f9f2df0fed2c77648de5860a4cc508cd0818c85b8b8a1ab4ceeef8d981c8956a66114ba816114b5611e03565b611fd6565b7f000000000000000000000000000000000000000000000000000000000000000042101561151d576040517f08c379a00000000000000000000000000000000000000000000000000000000081526004016115149061343c565b60405180910390fd5b6000611550600d547f00000000000000000000000000000000000000000000000000000000000000006302d1cd40612073565b905060008111611595576040517f08c379a000000000000000000000000000000000000000000000000000000000815260040161158c9061347c565b60405180910390fd5b80600d60008282546115a791906136fa565b925050819055506115da600960009054906101000a900473ffffffffffffffffffffffffffffffffffffffff16826120c9565b600960009054906101000a900473ffffffffffffffffffffffffffffffffffffffff1673ffffffffffffffffffffffffffffffffffffffff167f7ce5f3f619be69c6c0f30f3bbd013fbefe37c19491d53fdc21b003f980f40c1e8260405161164291906135bc565b60405180910390a25050565b6b033b2e3c9fd0803ce800000081565b7f9f2df0fed2c77648de5860a4cc508cd0818c85b8b8a1ab4ceeef8d981c8956a66116908161168b611e03565b611fd6565b81600a60006101000a81548173ffffffffffffffffffffffffffffffffffffffff021916908373ffffffffffffffffffffffffffffffffffffffff1602179055505050565b6000600660009054906101000a900473ffffffffffffffffffffffffffffffffffffffff16905090565b60006005600084815260200190815260200160002060000160008373ffffffffffffffffffffffffffffffffffffffff1673ffffffffffffffffffffffffffffffffffffffff16815260200190815260200160002060009054906101000a900460ff16905092915050565b60606004805461177990613816565b80601f01602080910402602001604051908101604052809291908181526020018280546117a590613816565b80156117f25780601f106117c7576101008083540402835291602001916117f2565b820191906000526020600020905b8154815290600101906020018083116117d557829003601f168201915b5050505050905090565b6302c7ea0081565b6000801b81565b7f9f2df0fed2c77648de5860a4cc508cd0818c85b8b8a1ab4ceeef8d981c8956a661183d81611838611e03565b611fd6565b81600960006101000a81548173ffffffffffffffffffffffffffffffffffffffff021916908373ffffffffffffffffffffffffffffffffffffffff1602179055505050565b60008061188d611e03565b90506000600160008373ffffffffffffffffffffffffffffffffffffffff1673ffffffffffffffffffffffffffffffffffffffff16815260200190815260200160002060008673ffffffffffffffffffffffffffffffffffffffff1673ffffffffffffffffffffffffffffffffffffffff16815260200190815260200160002054905083811015611953576040517f08c379a000000000000000000000000000000000000000000000000000000000815260040161194a9061353c565b60405180910390fd5b6119608286868403611e0b565b60019250505092915050565b600080611977611e03565b90506119848185856122b5565b600191505092915050565b6000600e54905090565b600a60009054906101000a900473ffffffffffffffffffffffffffffffffffffffff1681565b6302d1cd4081565b7f9f2df0fed2c77648de5860a4cc508cd0818c85b8b8a1ab4ceeef8d981c8956a681565b6119f482610d40565b611a0581611a00611e03565b611fd6565b611a0f8383612617565b505050565b600960009054906101000a900473ffffffffffffffffffffffffffffffffffffffff1681565b6000600160008473ffffffffffffffffffffffffffffffffffffffff1673ffffffffffffffffffffffffffffffffffffffff16815260200190815260200160002060008373ffffffffffffffffffffffffffffffffffffffff1673ffffffffffffffffffffffffffffffffffffffff16815260200190815260200160002054905092915050565b7f9f2df0fed2c77648de5860a4cc508cd0818c85b8b8a1ab4ceeef8d981c8956a6611af381611aee611e03565b611fd6565b7f0000000000000000000000000000000000000000000000000000000000000000421015611b56576040517f08c379a0000000000000000000000000000000000000000000000000000000008152600401611b4d9061339c565b60405180910390fd5b6000611b89600c547f00000000000000000000000000000000000000000000000000000000000000006305a39a80612073565b905060008111611bce576040517f08c379a0000000000000000000000000000000000000000000000000000000008152600401611bc5906133bc565b60405180910390fd5b80600c6000828254611be091906136fa565b92505081905550611c13600860009054906101000a900473ffffffffffffffffffffffffffffffffffffffff16826120c9565b600860009054906101000a900473ffffffffffffffffffffffffffffffffffffffff1673ffffffffffffffffffffffffffffffffffffffff167fc6ed111f8bd14bd22a954c62c2799ec5f9144d78a9b739ee37ee9a00e6c81d6682604051611c7b91906135bc565b60405180910390a25050565b6b02e87669c308736a0400000081565b611c9f611e03565b73ffffffffffffffffffffffffffffffffffffffff16611cbd6116d5565b73ffffffffffffffffffffffffffffffffffffffff1614611d13576040517f08c379a0000000000000000000000000000000000000000000000000000000008152600401611d0a9061349c565b60405180910390fd5b600073ffffffffffffffffffffffffffffffffffffffff168173ffffffffffffffffffffffffffffffffffffffff161415611d83576040517f08c379a0000000000000000000000000000000000000000000000000000000008152600401611d7a906133dc565b60405180910390fd5b611d8c816128d0565b50565b6000600b54905090565b60007f01ffc9a7000000000000000000000000000000000000000000000000000000007bffffffffffffffffffffffffffffffffffffffffffffffffffffffff1916827bffffffffffffffffffffffffffffffffffffffffffffffffffffffff1916149050919050565b600033905090565b600073ffffffffffffffffffffffffffffffffffffffff168373ffffffffffffffffffffffffffffffffffffffff161415611e7b576040517f08c379a0000000000000000000000000000000000000000000000000000000008152600401611e72906134fc565b60405180910390fd5b600073ffffffffffffffffffffffffffffffffffffffff168273ffffffffffffffffffffffffffffffffffffffff161415611eeb576040517f08c379a0000000000000000000000000000000000000000000000000000000008152600401611ee2906133fc565b60405180910390fd5b80600160008573ffffffffffffffffffffffffffffffffffffffff1673ffffffffffffffffffffffffffffffffffffffff16815260200190815260200160002060008473ffffffffffffffffffffffffffffffffffffffff1673ffffffffffffffffffffffffffffffffffffffff168152602001908152602001600020819055508173ffffffffffffffffffffffffffffffffffffffff168373ffffffffffffffffffffffffffffffffffffffff167f8c5be1e5ebec7d5bd14f71427d1e84f3dd0314c0f7b2291e5b200ac8c7c3b92583604051611fc991906135bc565b60405180910390a3505050565b611fe082826116ff565b61206f576120058173ffffffffffffffffffffffffffffffffffffffff166014612996565b6120138360001c6020612996565b60405160200161202492919061326f565b6040516020818303038152906040526040517f08c379a000000000000000000000000000000000000000000000000000000000815260040161206691906132fa565b60405180910390fd5b5050565b60008242101561208657600090506120c2565b6000834261209491906136fa565b9050828111156120a757849150506120c2565b8281866120b491906136a0565b6120be919061366f565b9150505b9392505050565b600073ffffffffffffffffffffffffffffffffffffffff168273ffffffffffffffffffffffffffffffffffffffff161415612139576040517f08c379a00000000000000000000000000000000000000000000000000000000081526004016121309061359c565b60405180910390fd5b61214560008383612c90565b80600260008282546121579190613619565b92505081905550806000808473ffffffffffffffffffffffffffffffffffffffff1673ffffffffffffffffffffffffffffffffffffffff16815260200190815260200160002060008282546121ac9190613619565b925050819055508173ffffffffffffffffffffffffffffffffffffffff16600073ffffffffffffffffffffffffffffffffffffffff167fddf252ad1be2c89b69c2b068fc378daa952ba7f163c4a11628f55a4df523b3ef8360405161221191906135bc565b60405180910390a361222560008383612c95565b5050565b60006122358484611a3a565b90507fffffffffffffffffffffffffffffffffffffffffffffffffffffffffffffffff81146122af57818110156122a1576040517f08c379a00000000000000000000000000000000000000000000000000000000081526004016122989061341c565b60405180910390fd5b6122ae8484848403611e0b565b5b50505050565b600073ffffffffffffffffffffffffffffffffffffffff168373ffffffffffffffffffffffffffffffffffffffff161415612325576040517f08c379a000000000000000000000000000000000000000000000000000000000815260040161231c906134dc565b60405180910390fd5b600073ffffffffffffffffffffffffffffffffffffffff168273ffffffffffffffffffffffffffffffffffffffff161415612395576040517f08c379a000000000000000000000000000000000000000000000000000000000815260040161238c9061333c565b60405180910390fd5b6123a0838383612c90565b60008060008573ffffffffffffffffffffffffffffffffffffffff1673ffffffffffffffffffffffffffffffffffffffff16815260200190815260200160002054905081811015612426576040517f08c379a000000000000000000000000000000000000000000000000000000000815260040161241d9061345c565b60405180910390fd5b8181036000808673ffffffffffffffffffffffffffffffffffffffff1673ffffffffffffffffffffffffffffffffffffffff16815260200190815260200160002081905550816000808573ffffffffffffffffffffffffffffffffffffffff1673ffffffffffffffffffffffffffffffffffffffff16815260200190815260200160002060008282546124b99190613619565b925050819055508273ffffffffffffffffffffffffffffffffffffffff168473ffffffffffffffffffffffffffffffffffffffff167fddf252ad1be2c89b69c2b068fc378daa952ba7f163c4a11628f55a4df523b3ef8460405161251d91906135bc565b60405180910390a3612530848484612c95565b50505050565b61254082826116ff565b6126135760016005600084815260200190815260200160002060000160008373ffffffffffffffffffffffffffffffffffffffff1673ffffffffffffffffffffffffffffffffffffffff16815260200190815260200160002060006101000a81548160ff0219169083151502179055506125b8611e03565b73ffffffffffffffffffffffffffffffffffffffff168173ffffffffffffffffffffffffffffffffffffffff16837f2f8788117e7eff1d82e926ec794901d17c78024a50270940304540a733656f0d60405160405180910390a45b5050565b61262182826116ff565b156126f55760006005600084815260200190815260200160002060000160008373ffffffffffffffffffffffffffffffffffffffff1673ffffffffffffffffffffffffffffffffffffffff16815260200190815260200160002060006101000a81548160ff02191690831515021790555061269a611e03565b73ffffffffffffffffffffffffffffffffffffffff168173ffffffffffffffffffffffffffffffffffffffff16837ff6391f5c32d9c69d2a47ea670b442974b53935d1edc7fd64eb21e047a839171b60405160405180910390a45b5050565b600073ffffffffffffffffffffffffffffffffffffffff168273ffffffffffffffffffffffffffffffffffffffff161415612769576040517f08c379a0000000000000000000000000000000000000000000000000000000008152600401612760906134bc565b60405180910390fd5b61277582600083612c90565b60008060008473ffffffffffffffffffffffffffffffffffffffff1673ffffffffffffffffffffffffffffffffffffffff168152602001908152602001600020549050818110156127fb576040517f08c379a00000000000000000000000000000000000000000000000000000000081526004016127f29061337c565b60405180910390fd5b8181036000808573ffffffffffffffffffffffffffffffffffffffff1673ffffffffffffffffffffffffffffffffffffffff16815260200190815260200160002081905550816002600082825461285291906136fa565b92505081905550600073ffffffffffffffffffffffffffffffffffffffff168373ffffffffffffffffffffffffffffffffffffffff167fddf252ad1be2c89b69c2b068fc378daa952ba7f163c4a11628f55a4df523b3ef846040516128b791906135bc565b60405180910390a36128cb83600084612c95565b505050565b6000600660009054906101000a900473ffffffffffffffffffffffffffffffffffffffff16905081600660006101000a81548173ffffffffffffffffffffffffffffffffffffffff021916908373ffffffffffffffffffffffffffffffffffffffff1602179055508173ffffffffffffffffffffffffffffffffffffffff168173ffffffffffffffffffffffffffffffffffffffff167f8be0079c531659141344cd1fd0a4f28419497f9722a3daafe3b4186f6b6457e060405160405180910390a35050565b6060600060028360026129a991906136a0565b6129b39190613619565b67ffffffffffffffff8111156129f2577f4e487b7100000000000000000000000000000000000000000000000000000000600052604160045260246000fd5b6040519080825280601f01601f191660200182016040528015612a245781602001600182028036833780820191505090505b5090507f300000000000000000000000000000000000000000000000000000000000000081600081518110612a82577f4e487b7100000000000000000000000000000000000000000000000000000000600052603260045260246000fd5b60200101907effffffffffffffffffffffffffffffffffffffffffffffffffffffffffffff1916908160001a9053507f780000000000000000000000000000000000000000000000000000000000000081600181518110612b0c577f4e487b7100000000000000000000000000000000000000000000000000000000600052603260045260246000fd5b60200101907effffffffffffffffffffffffffffffffffffffffffffffffffffffffffffff1916908160001a90535060006001846002612b4c91906136a0565b612b569190613619565b90505b6001811115612c42577f3031323334353637383961626364656600000000000000000000000000000000600f861660108110612bbe577f4e487b7100000000000000000000000000000000000000000000000000000000600052603260045260246000fd5b1a60f81b828281518110612bfb577f4e487b7100000000000000000000000000000000000000000000000000000000600052603260045260246000fd5b60200101907effffffffffffffffffffffffffffffffffffffffffffffffffffffffffffff1916908160001a905350600485901c945080612c3b906137ec565b9050612b59565b5060008414612c86576040517f08c379a0000000000000000000000000000000000000000000000000000000008152600401612c7d9061331c565b60405180910390fd5b8091505092915050565b505050565b505050565b600081359050612ca981613e37565b92915050565b600081359050612cbe81613e4e565b92915050565b600081359050612cd381613e65565b92915050565b600081359050612ce881613e7c565b92915050565b600060208284031215612d0057600080fd5b6000612d0e84828501612c9a565b91505092915050565b60008060408385031215612d2a57600080fd5b6000612d3885828601612c9a565b9250506020612d4985828601612c9a565b9150509250929050565b600080600060608486031215612d6857600080fd5b6000612d7686828701612c9a565b9350506020612d8786828701612c9a565b9250506040612d9886828701612cd9565b9150509250925092565b60008060408385031215612db557600080fd5b6000612dc385828601612c9a565b9250506020612dd485828601612cd9565b9150509250929050565b600060208284031215612df057600080fd5b6000612dfe84828501612caf565b91505092915050565b60008060408385031215612e1a57600080fd5b6000612e2885828601612caf565b9250506020612e3985828601612c9a565b9150509250929050565b600060208284031215612e5557600080fd5b6000612e6384828501612cc4565b91505092915050565b600060208284031215612e7e57600080fd5b6000612e8c84828501612cd9565b91505092915050565b612e9e8161372e565b82525050565b612ead81613740565b82525050565b612ebc8161374c565b82525050565b6000612ecd826135f2565b612ed781856135fd565b9350612ee78185602086016137b9565b612ef0816138d5565b840191505092915050565b6000612f06826135f2565b612f10818561360e565b9350612f208185602086016137b9565b80840191505092915050565b6000612f396020836135fd565b9150612f44826138e6565b602082019050919050565b6000612f5c6023836135fd565b9150612f678261390f565b604082019050919050565b6000612f7f6012836135fd565b9150612f8a8261395e565b602082019050919050565b6000612fa26022836135fd565b9150612fad82613987565b604082019050919050565b6000612fc5601c836135fd565b9150612fd0826139d6565b602082019050919050565b6000612fe86018836135fd565b9150612ff3826139ff565b602082019050919050565b600061300b6026836135fd565b915061301682613a28565b604082019050919050565b600061302e6022836135fd565b915061303982613a77565b604082019050919050565b6000613051601d836135fd565b915061305c82613ac6565b602082019050919050565b6000613074601f836135fd565b915061307f82613aef565b602082019050919050565b60006130976026836135fd565b91506130a282613b18565b604082019050919050565b60006130ba601b836135fd565b91506130c582613b67565b602082019050919050565b60006130dd6020836135fd565b91506130e882613b90565b602082019050919050565b60006131006021836135fd565b915061310b82613bb9565b604082019050919050565b60006131236025836135fd565b915061312e82613c08565b604082019050919050565b60006131466024836135fd565b915061315182613c57565b604082019050919050565b60006131696021836135fd565b915061317482613ca6565b604082019050919050565b600061318c60178361360e565b915061319782613cf5565b601782019050919050565b60006131af6025836135fd565b91506131ba82613d1e565b604082019050919050565b60006131d260118361360e565b91506131dd82613d6d565b601182019050919050565b60006131f5601d836135fd565b915061320082613d96565b602082019050919050565b6000613218602f836135fd565b915061322382613dbf565b604082019050919050565b600061323b601f836135fd565b915061324682613e0e565b602082019050919050565b61325a816137a2565b82525050565b613269816137ac565b82525050565b600061327a8261317f565b91506132868285612efb565b9150613291826131c5565b915061329d8284612efb565b91508190509392505050565b60006020820190506132be6000830184612e95565b92915050565b60006020820190506132d96000830184612ea4565b92915050565b60006020820190506132f46000830184612eb3565b92915050565b600060208201905081810360008301526133148184612ec2565b905092915050565b6000602082019050818103600083015261333581612f2c565b9050919050565b6000602082019050818103600083015261335581612f4f565b9050919050565b6000602082019050818103600083015261337581612f72565b9050919050565b6000602082019050818103600083015261339581612f95565b9050919050565b600060208201905081810360008301526133b581612fb8565b9050919050565b600060208201905081810360008301526133d581612fdb565b9050919050565b600060208201905081810360008301526133f581612ffe565b9050919050565b6000602082019050818103600083015261341581613021565b9050919050565b6000602082019050818103600083015261343581613044565b9050919050565b6000602082019050818103600083015261345581613067565b9050919050565b600060208201905081810360008301526134758161308a565b9050919050565b60006020820190508181036000830152613495816130ad565b9050919050565b600060208201905081810360008301526134b5816130d0565b9050919050565b600060208201905081810360008301526134d5816130f3565b9050919050565b600060208201905081810360008301526134f581613116565b9050919050565b6000602082019050818103600083015261351581613139565b9050919050565b600060208201905081810360008301526135358161315c565b9050919050565b60006020820190508181036000830152613555816131a2565b9050919050565b60006020820190508181036000830152613575816131e8565b9050919050565b600060208201905081810360008301526135958161320b565b9050919050565b600060208201905081810360008301526135b58161322e565b9050919050565b60006020820190506135d16000830184613251565b92915050565b60006020820190506135ec6000830184613260565b92915050565b600081519050919050565b600082825260208201905092915050565b600081905092915050565b6000613624826137a2565b915061362f836137a2565b9250827fffffffffffffffffffffffffffffffffffffffffffffffffffffffffffffffff0382111561366457613663613848565b5b828201905092915050565b600061367a826137a2565b9150613685836137a2565b92508261369557613694613877565b5b828204905092915050565b60006136ab826137a2565b91506136b6836137a2565b9250817fffffffffffffffffffffffffffffffffffffffffffffffffffffffffffffffff04831182151516156136ef576136ee613848565b5b828202905092915050565b6000613705826137a2565b9150613710836137a2565b92508282101561372357613722613848565b5b828203905092915050565b600061373982613782565b9050919050565b60008115159050919050565b6000819050919050565b60007fffffffff0000000000000000000000000000000000000000000000000000000082169050919050565b600073ffffffffffffffffffffffffffffffffffffffff82169050919050565b6000819050919050565b600060ff82169050919050565b60005b838110156137d75780820151818401526020810190506137bc565b838111156137e6576000848401525b50505050565b60006137f7826137a2565b9150600082141561380b5761380a613848565b5b600182039050919050565b6000600282049050600182168061382e57607f821691505b60208210811415613842576138416138a6565b5b50919050565b7f4e487b7100000000000000000000000000000000000000000000000000000000600052601160045260246000fd5b7f4e487b7100000000000000000000000000000000000000000000000000000000600052601260045260246000fd5b7f4e487b7100000000000000000000000000000000000000000000000000000000600052602260045260246000fd5b6000601f19601f8301169050919050565b7f537472696e67733a20686578206c656e67746820696e73756666696369656e74600082015250565b7f45524332303a207472616e7366657220746f20746865207a65726f206164647260008201527f6573730000000000000000000000000000000000000000000000000000000000602082015250565b7f4e6f20746f6b656e7320746f20636c61696d0000000000000000000000000000600082015250565b7f45524332303a206275726e20616d6f756e7420657863656564732062616c616e60008201527f6365000000000000000000000000000000000000000000000000000000000000602082015250565b7f5465616d20746f6b656e7320617265207374696c6c206c6f636b656400000000600082015250565b7f4e6f207465616d20746f6b656e7320746f20756e6c6f636b0000000000000000600082015250565b7f4f776e61626c653a206e6577206f776e657220697320746865207a65726f206160008201527f6464726573730000000000000000000000000000000000000000000000000000602082015250565b7f45524332303a20617070726f766520746f20746865207a65726f20616464726560008201527f7373000000000000000000000000000000000000000000000000000000000000602082015250565b7f45524332303a20696e73756666696369656e7420616c6c6f77616e6365000000600082015250565b7f41647669736f7220746f6b656e7320617265207374696c6c206c6f636b656400600082015250565b7f45524332303a207472616e7366657220616d6f756e742065786365656473206260008201527f616c616e63650000000000000000000000000000000000000000000000000000602082015250565b7f4e6f2061647669736f7220746f6b656e7320746f20756e6c6f636b0000000000600082015250565b7f4f776e61626c653a2063616c6c6572206973206e6f7420746865206f776e6572600082015250565b7f45524332303a206275726e2066726f6d20746865207a65726f2061646472657360008201527f7300000000000000000000000000000000000000000000000000000000000000602082015250565b7f45524332303a207472616e736665722066726f6d20746865207a65726f20616460008201527f6472657373000000000000000000000000000000000000000000000000000000602082015250565b7f45524332303a20617070726f76652066726f6d20746865207a65726f2061646460008201527f7265737300000000000000000000000000000000000000000000000000000000602082015250565b7f436f6d6d756e69747920746f6b656e7320617265207374696c6c206c6f636b6560008201527f6400000000000000000000000000000000000000000000000000000000000000602082015250565b7f416363657373436f6e74726f6c3a206163636f756e7420000000000000000000600082015250565b7f45524332303a2064656372656173656420616c6c6f77616e63652062656c6f7760008201527f207a65726f000000000000000000000000000000000000000000000000000000602082015250565b7f206973206d697373696e6720726f6c6520000000000000000000000000000000600082015250565b7f4e6f20636f6d6d756e69747920746f6b656e7320746f20756e6c6f636b000000600082015250565b7f416363657373436f6e74726f6c3a2063616e206f6e6c792072656e6f756e636560008201527f20726f6c657320666f722073656c660000000000000000000000000000000000602082015250565b7f45524332303a206d696e7420746f20746865207a65726f206164647265737300600082015250565b613e408161372e565b8114613e4b57600080fd5b50565b613e578161374c565b8114613e6257600080fd5b50565b613e6e81613756565b8114613e7957600080fd5b50565b613e85816137a2565b8114613e9057600080fd5b5056fea2646970667358221220c1fb813687e1114c2602edb093e030d8486fde514832f8f7f8693ced0d135a3b64736f6c63430008040033",
  "linkReferences": {},
  "deployedLinkReferences": {}
}