{
  "_format": "hh-sol-artifact-1",
  "contractName": "MetagStakepool",
  "sourceName": "contracts/MetagStakepool.sol",
  "abi": [
    {
      "inputs": [
        {
          "internalType": "address",
          "name": "_stakeToken",
          "type": "address"
        },
        {
          "internalType": "address",
          "name": "_rewardToken",
          "type": "address"
        }
      ],
      "stateMutability": "nonpayable",
      "type": "constructor"
    },
    {
      "anonymous": false,
      "inputs": [
        {
          "indexed": true,
          "internalType": "address",
          "name": "user",
          "type": "address"
        },
        {
          "indexed": false,
          "internalType": "uint256",
          "name": "amount",
          "type": "uint256"
        }
      ],
      "name": "Deposited",
      "type": "event"
    },
    {
      "anonymous": false,
      "inputs": [
        {
          "indexed": true,
          "internalType": "address",
          "name": "previousOwner",
          "type": "address"
        },
        {
          "indexed": true,
          "internalType": "address",
          "name": "newOwner",
          "type": "address"
        }
      ],
      "name": "OwnershipTransferred",
      "type": "event"
    },
    {
      "anonymous": false,
      "inputs": [
        {
          "indexed": false,
          "internalType": "address",
          "name": "account",
          "type": "address"
        }
      ],
      "name": "Paused",
      "type": "event"
    },
    {
      "anonymous": false,
      "inputs": [
        {
          "indexed": true,
          "internalType": "address",
          "name": "user",
          "type": "address"
        },
        {
          "indexed": false,
          "internalType": "uint256",
          "name": "amount",
          "type": "uint256"
        }
      ],
      "name": "RewardClaimed",
      "type": "event"
    },
    {
      "anonymous": false,
      "inputs": [
        {
          "indexed": true,
          "internalType": "address",
          "name": "user",
          "type": "address"
        },
        {
          "indexed": false,
          "internalType": "uint256",
          "name": "amount",
          "type": "uint256"
        }
      ],
      "name": "Staked",
      "type": "event"
    },
    {
      "anonymous": false,
      "inputs": [
        {
          "indexed": true,
          "internalType": "address",
          "name": "user",
          "type": "address"
        },
        {
          "indexed": false,
          "internalType": "uint256",
          "name": "amount",
          "type": "uint256"
        }
      ],
      "name": "TokenSupplyWithdrawn",
      "type": "event"
    },
    {
      "anonymous": false,
      "inputs": [
        {
          "indexed": false,
          "internalType": "address",
          "name": "account",
          "type": "address"
        }
      ],
      "name": "Unpaused",
      "type": "event"
    },
    {
      "anonymous": false,
      "inputs": [
        {
          "indexed": true,
          "internalType": "address",
          "name": "user",
          "type": "address"
        },
        {
          "indexed": false,
          "internalType": "uint256",
          "name": "amount",
          "type": "uint256"
        }
      ],
      "name": "Withdrawn",
      "type": "event"
    },
    {
      "inputs": [],
      "name": "apy",
      "outputs": [
        {
          "internalType": "uint256",
          "name": "",
          "type": "uint256"
        }
      ],
      "stateMutability": "view",
      "type": "function"
    },
    {
      "inputs": [
        {
          "internalType": "address",
          "name": "account",
          "type": "address"
        }
      ],
      "name": "balanceOf",
      "outputs": [
        {
          "internalType": "uint256",
          "name": "",
          "type": "uint256"
        }
      ],
      "stateMutability": "view",
      "type": "function"
    },
    {
      "inputs": [
        {
          "internalType": "address",
          "name": "_rewardToken",
          "type": "address"
        }
      ],
      "name": "changeRewardToken",
      "outputs": [],
      "stateMutability": "nonpayable",
      "type": "function"
    },
    {
      "inputs": [],
      "name": "claimReward",
      "outputs": [],
      "stateMutability": "nonpayable",
      "type": "function"
    },
    {
      "inputs": [
        {
          "internalType": "uint256",
          "name": "_amount",
          "type": "uint256"
        }
      ],
      "name": "depositTokens",
      "outputs": [],
      "stateMutability": "nonpayable",
      "type": "function"
    },
    {
      "inputs": [],
      "name": "getTotalPendingRewards",
      "outputs": [
        {
          "internalType": "uint256",
          "name": "",
          "type": "uint256"
        }
      ],
      "stateMutability": "view",
      "type": "function"
    },
    {
      "inputs": [],
      "name": "getUserList",
      "outputs": [
        {
          "internalType": "address[]",
          "name": "",
          "type": "address[]"
        }
      ],
      "stateMutability": "view",
      "type": "function"
    },
    {
      "inputs": [],
      "name": "owner",
      "outputs": [
        {
          "internalType": "address",
          "name": "",
          "type": "address"
        }
      ],
      "stateMutability": "view",
      "type": "function"
    },
    {
      "inputs": [],
      "name": "pause",
      "outputs": [],
      "stateMutability": "nonpayable",
      "type": "function"
    },
    {
      "inputs": [],
      "name": "paused",
      "outputs": [
        {
          "internalType": "bool",
          "name": "",
          "type": "bool"
        }
      ],
      "stateMutability": "view",
      "type": "function"
    },
    {
      "inputs": [
        {
          "internalType": "address",
          "name": "account",
          "type": "address"
        }
      ],
      "name": "pendingRewardsOf",
      "outputs": [
        {
          "internalType": "uint256",
          "name": "",
          "type": "uint256"
        }
      ],
      "stateMutability": "view",
      "type": "function"
    },
    {
      "inputs": [],
      "name": "renounceOwnership",
      "outputs": [],
      "stateMutability": "nonpayable",
      "type": "function"
    },
    {
      "inputs": [
        {
          "internalType": "uint256",
          "name": "_apy",
          "type": "uint256"
        }
      ],
      "name": "resetApy",
      "outputs": [],
      "stateMutability": "nonpayable",
      "type": "function"
    },
    {
      "inputs": [],
      "name": "returnRewardTokens",
      "outputs": [],
      "stateMutability": "nonpayable",
      "type": "function"
    },
    {
      "inputs": [],
      "name": "rewardToken",
      "outputs": [
        {
          "internalType": "contract IERC20",
          "name": "",
          "type": "address"
        }
      ],
      "stateMutability": "view",
      "type": "function"
    },
    {
      "inputs": [
        {
          "internalType": "address",
          "name": "account",
          "type": "address"
        }
      ],
      "name": "rewardsOf",
      "outputs": [
        {
          "internalType": "uint256",
          "name": "",
          "type": "uint256"
        }
      ],
      "stateMutability": "view",
      "type": "function"
    },
    {
      "inputs": [
        {
          "internalType": "bool",
          "name": "_flag",
          "type": "bool"
        }
      ],
      "name": "setDisableStake",
      "outputs": [],
      "stateMutability": "nonpayable",
      "type": "function"
    },
    {
      "inputs": [
        {
          "internalType": "bool",
          "name": "_flag",
          "type": "bool"
        }
      ],
      "name": "setDisableWithdraw",
      "outputs": [],
      "stateMutability": "nonpayable",
      "type": "function"
    },
    {
      "inputs": [
        {
          "internalType": "uint256",
          "name": "_amount",
          "type": "uint256"
        }
      ],
      "name": "stake",
      "outputs": [],
      "stateMutability": "nonpayable",
      "type": "function"
    },
    {
      "inputs": [],
      "name": "stakeOn",
      "outputs": [
        {
          "internalType": "bool",
          "name": "",
          "type": "bool"
        }
      ],
      "stateMutability": "view",
      "type": "function"
    },
    {
      "inputs": [],
      "name": "stakeToken",
      "outputs": [
        {
          "internalType": "contract IERC20",
          "name": "",
          "type": "address"
        }
      ],
      "stateMutability": "view",
      "type": "function"
    },
    {
      "inputs": [
        {
          "internalType": "address",
          "name": "account",
          "type": "address"
        }
      ],
      "name": "stakingTimeOf",
      "outputs": [
        {
          "internalType": "uint256",
          "name": "",
          "type": "uint256"
        }
      ],
      "stateMutability": "view",
      "type": "function"
    },
    {
      "inputs": [],
      "name": "tokenSupply",
      "outputs": [
        {
          "internalType": "uint256",
          "name": "",
          "type": "uint256"
        }
      ],
      "stateMutability": "view",
      "type": "function"
    },
    {
      "inputs": [],
      "name": "totalStaked",
      "outputs": [
        {
          "internalType": "uint256",
          "name": "",
          "type": "uint256"
        }
      ],
      "stateMutability": "view",
      "type": "function"
    },
    {
      "inputs": [
        {
          "internalType": "address",
          "name": "newOwner",
          "type": "address"
        }
      ],
      "name": "transferOwnership",
      "outputs": [],
      "stateMutability": "nonpayable",
      "type": "function"
    },
    {
      "inputs": [],
      "name": "unpause",
      "outputs": [],
      "stateMutability": "nonpayable",
      "type": "function"
    },
    {
      "inputs": [
        {
          "internalType": "uint256",
          "name": "",
          "type": "uint256"
        }
      ],
      "name": "userAdresses",
      "outputs": [
        {
          "internalType": "address",
          "name": "",
          "type": "address"
        }
      ],
      "stateMutability": "view",
      "type": "function"
    },
    {
      "inputs": [
        {
          "internalType": "address",
          "name": "",
          "type": "address"
        }
      ],
      "name": "users",
      "outputs": [
        {
          "internalType": "uint256",
          "name": "stakeBalance",
          "type": "uint256"
        },
        {
          "internalType": "uint256",
          "name": "rewards",
          "type": "uint256"
        },
        {
          "internalType": "uint256",
          "name": "stakingTime",
          "type": "uint256"
        }
      ],
      "stateMutability": "view",
      "type": "function"
    },
    {
      "inputs": [
        {
          "internalType": "uint256",
          "name": "_amount",
          "type": "uint256"
        }
      ],
      "name": "withdraw",
      "outputs": [],
      "stateMutability": "nonpayable",
      "type": "function"
    },
    {
      "inputs": [],
      "name": "withdrawAll",
      "outputs": [],
      "stateMutability": "nonpayable",
      "type": "function"
    },
    {
      "inputs": [],
      "name": "withdrawOn",
      "outputs": [
        {
          "internalType": "bool",
          "name": "",
          "type": "bool"
        }
      ],
      "stateMutability": "view",
      "type": "function"
    }
  ],
  "bytecode": "0x60806040523480156200001157600080fd5b50604051620032823803806200328283398181016040528101906200003791906200037f565b60016000819055506200005f620000536200024760201b60201c565b6200024f60201b60201c565b6000600160146101000a81548160ff02191690831515021790555081600073ffffffffffffffffffffffffffffffffffffffff168173ffffffffffffffffffffffffffffffffffffffff161415620000ee576040517f08c379a0000000000000000000000000000000000000000000000000000000008152600401620000e59062000427565b60405180910390fd5b81600073ffffffffffffffffffffffffffffffffffffffff168173ffffffffffffffffffffffffffffffffffffffff16141562000162576040517f08c379a0000000000000000000000000000000000000000000000000000000008152600401620001599062000427565b60405180910390fd5b83600260006101000a81548173ffffffffffffffffffffffffffffffffffffffff021916908373ffffffffffffffffffffffffffffffffffffffff16021790555082600360006101000a81548173ffffffffffffffffffffffffffffffffffffffff021916908373ffffffffffffffffffffffffffffffffffffffff16021790555060116004819055506001600760006101000a81548160ff0219169083151502179055506001600760016101000a81548160ff0219169083151502179055506001600760026101000a81548160ff0219169083151502179055505050505062000449565b600033905090565b6000600160009054906101000a900473ffffffffffffffffffffffffffffffffffffffff16905081600160006101000a81548173ffffffffffffffffffffffffffffffffffffffff021916908373ffffffffffffffffffffffffffffffffffffffff1602179055508173ffffffffffffffffffffffffffffffffffffffff168173ffffffffffffffffffffffffffffffffffffffff167f8be0079c531659141344cd1fd0a4f28419497f9722a3daafe3b4186f6b6457e060405160405180910390a35050565b600080fd5b600073ffffffffffffffffffffffffffffffffffffffff82169050919050565b600062000347826200031a565b9050919050565b62000359816200033a565b81146200036557600080fd5b50565b60008151905062000379816200034e565b92915050565b6000806040838503121562000399576200039862000315565b5b6000620003a98582860162000368565b9250506020620003bc8582860162000368565b9150509250929050565b600082825260208201905092915050565b7f496e76616c696420616464726573730000000000000000000000000000000000600082015250565b60006200040f600f83620003c6565b91506200041c82620003d7565b602082019050919050565b60006020820190508181036000830152620004428162000400565b9050919050565b612e2980620004596000396000f3fe608060405234801561001057600080fd5b50600436106101e55760003560e01c806370a082311161010f578063a694fc3a116100a2578063b88a802f11610071578063b88a802f14610512578063dd49756e1461051c578063f2fde38b14610538578063f7c618c114610554576101e5565b8063a694fc3a1461048a578063a87430ba146104a6578063ab779aba146104d8578063b8522043146104f4576101e5565b80638456cb59116100de5780638456cb591461044e578063853828b6146104585780638da5cb5b14610462578063a65a79fd14610480576101e5565b806370a08231146103d8578063715018a6146104085780637824407f14610412578063817b1cd214610430576101e5565b80633940b58711610187578063479ba7ae11610156578063479ba7ae1461035057806351ed6a30146103805780635c975abb1461039e57806361156465146103bc576101e5565b80633940b587146102dc5780633988bad8146102f85780633bcfc4b8146103285780633f4ba83a14610346576101e5565b80632322a017116101c35780632322a0171461024257806325aea53f146102725780632ceed7e7146102a25780632e1a7d4d146102c0576101e5565b806304d420ea146101ea578063088ab8ce146102085780631e9b3a9214610224575b600080fd5b6101f2610572565b6040516101ff9190611f34565b60405180910390f35b610222600480360381019061021d9190611fb2565b610585565b005b61022c610643565b6040516102399190611ff8565b60405180910390f35b61025c6004803603810190610257919061203f565b6106c9565b604051610269919061207b565b60405180910390f35b61028c60048036038101906102879190611fb2565b610708565b6040516102999190611ff8565b60405180910390f35b6102aa610754565b6040516102b79190611f34565b60405180910390f35b6102da60048036038101906102d5919061203f565b610767565b005b6102f660048036038101906102f1919061203f565b6109de565b005b610312600480360381019061030d9190611fb2565b610bbf565b60405161031f9190611ff8565b60405180910390f35b610330610c22565b60405161033d9190611ff8565b60405180910390f35b61034e610c28565b005b61036a60048036038101906103659190611fb2565b610c3a565b6040516103779190611ff8565b60405180910390f35b610388610c86565b60405161039591906120f5565b60405180910390f35b6103a6610cac565b6040516103b39190611f34565b60405180910390f35b6103d660048036038101906103d1919061213c565b610cc3565b005b6103f260048036038101906103ed9190611fb2565b610ce8565b6040516103ff9190611ff8565b60405180910390f35b610410610d34565b005b61041a610d48565b6040516104279190611ff8565b60405180910390f35b610438610d4e565b6040516104459190611ff8565b60405180910390f35b610456610d54565b005b610460610d66565b005b61046a610e21565b604051610477919061207b565b60405180910390f35b610488610e4b565b005b6104a4600480360381019061049f919061203f565b610f47565b005b6104c060048036038101906104bb9190611fb2565b6111e7565b6040516104cf93929190612169565b60405180910390f35b6104f260048036038101906104ed919061213c565b611211565b005b6104fc611236565b604051610509919061225e565b60405180910390f35b61051a611349565b005b6105366004803603810190610531919061203f565b6115a3565b005b610552600480360381019061054d9190611fb2565b6116b0565b005b61055c611734565b60405161056991906120f5565b60405180910390f35b600760019054906101000a900460ff1681565b61058d61175a565b80600073ffffffffffffffffffffffffffffffffffffffff168173ffffffffffffffffffffffffffffffffffffffff1614156105fe576040517f08c379a00000000000000000000000000000000000000000000000000000000081526004016105f5906122dd565b60405180910390fd5b81600360006101000a81548173ffffffffffffffffffffffffffffffffffffffff021916908373ffffffffffffffffffffffffffffffffffffffff1602179055505050565b6000806000905060005b6009805490508110156106c1576106a160098281548110610671576106706122fd565b5b9060005260206000200160009054906101000a900473ffffffffffffffffffffffffffffffffffffffff16610bbf565b826106ac919061235b565b915080806106b9906123b1565b91505061064d565b508091505090565b600981815481106106d957600080fd5b906000526020600020016000915054906101000a900473ffffffffffffffffffffffffffffffffffffffff1681565b6000600860008373ffffffffffffffffffffffffffffffffffffffff1673ffffffffffffffffffffffffffffffffffffffff168152602001908152602001600020600201549050919050565b600760009054906101000a900460ff1681565b61076f6117d8565b60011515600760019054906101000a900460ff161515146107c5576040517f08c379a00000000000000000000000000000000000000000000000000000000081526004016107bc90612446565b60405180910390fd5b6107cd611822565b6000339050816107dc82610ce8565b101561081d576040517f08c379a0000000000000000000000000000000000000000000000000000000008152600401610814906124b2565b60405180910390fd5b61082681610bbf565b600860008373ffffffffffffffffffffffffffffffffffffffff1673ffffffffffffffffffffffffffffffffffffffff1681526020019081526020016000206001016000828254610877919061235b565b9250508190555081600860008373ffffffffffffffffffffffffffffffffffffffff1673ffffffffffffffffffffffffffffffffffffffff16815260200190815260200160002060000160008282546108d091906124d2565b9250508190555042600860008373ffffffffffffffffffffffffffffffffffffffff1673ffffffffffffffffffffffffffffffffffffffff1681526020019081526020016000206002018190555061096b8183600260009054906101000a900473ffffffffffffffffffffffffffffffffffffffff1673ffffffffffffffffffffffffffffffffffffffff166118729092919063ffffffff16565b816006600082825461097d91906124d2565b925050819055508073ffffffffffffffffffffffffffffffffffffffff167f7084f5476618d8e60b11ef0d7d3f06914655adb8793e28ff7f018d4c76d505d5836040516109ca9190611ff8565b60405180910390a2506109db6118f8565b50565b6109e661175a565b60008111610a29576040517f08c379a0000000000000000000000000000000000000000000000000000000008152600401610a2090612552565b60405180910390fd5b60005b600980549050811015610bb4576000610a8260098381548110610a5257610a516122fd565b5b9060005260206000200160009054906101000a900473ffffffffffffffffffffffffffffffffffffffff16610bbf565b9050806008600060098581548110610a9d57610a9c6122fd565b5b9060005260206000200160009054906101000a900473ffffffffffffffffffffffffffffffffffffffff1673ffffffffffffffffffffffffffffffffffffffff1673ffffffffffffffffffffffffffffffffffffffff1681526020019081526020016000206001016000828254610b14919061235b565b92505081905550426008600060098581548110610b3457610b336122fd565b5b9060005260206000200160009054906101000a900473ffffffffffffffffffffffffffffffffffffffff1673ffffffffffffffffffffffffffffffffffffffff1673ffffffffffffffffffffffffffffffffffffffff16815260200190815260200160002060020181905550508080610bac906123b1565b915050610a2c565b508060048190555050565b6000806301dfe2006064600454610bd586610ce8565b610bdf9190612572565b610be991906125fb565b610bf391906125fb565b90506000610c0084610708565b42610c0b91906124d2565b90508082610c199190612572565b92505050919050565b60045481565b610c3061175a565b610c38611902565b565b6000600860008373ffffffffffffffffffffffffffffffffffffffff1673ffffffffffffffffffffffffffffffffffffffff168152602001908152602001600020600101549050919050565b600260009054906101000a900473ffffffffffffffffffffffffffffffffffffffff1681565b6000600160149054906101000a900460ff16905090565b610ccb61175a565b80600760006101000a81548160ff02191690831515021790555050565b6000600860008373ffffffffffffffffffffffffffffffffffffffff1673ffffffffffffffffffffffffffffffffffffffff168152602001908152602001600020600001549050919050565b610d3c61175a565b610d466000611965565b565b60055481565b60065481565b610d5c61175a565b610d64611a2b565b565b610d6e6117d8565b60011515600760019054906101000a900460ff16151514610dc4576040517f08c379a0000000000000000000000000000000000000000000000000000000008152600401610dbb90612446565b60405180910390fd5b610dcc611822565b610e17600860003373ffffffffffffffffffffffffffffffffffffffff1673ffffffffffffffffffffffffffffffffffffffff16815260200190815260200160002060000154610767565b610e1f6118f8565b565b6000600160009054906101000a900473ffffffffffffffffffffffffffffffffffffffff16905090565b610e5361175a565b600060055411610e98576040517f08c379a0000000000000000000000000000000000000000000000000000000008152600401610e8f90612678565b60405180910390fd5b60006005549050610eee33600554600360009054906101000a900473ffffffffffffffffffffffffffffffffffffffff1673ffffffffffffffffffffffffffffffffffffffff166118729092919063ffffffff16565b60006005819055503373ffffffffffffffffffffffffffffffffffffffff167ff1a6dc288dc8834523e8a24c26bd78b17388df942ee9044ab8e959e70366d9cb82604051610f3c9190611ff8565b60405180910390a250565b610f4f6117d8565b60011515600760009054906101000a900460ff16151514610fa5576040517f08c379a0000000000000000000000000000000000000000000000000000000008152600401610f9c906126e4565b60405180910390fd5b80670de0b6b3a76400008111610ff0576040517f08c379a0000000000000000000000000000000000000000000000000000000008152600401610fe790612750565b60405180910390fd5b610ff8611822565b600033905061104c813085600260009054906101000a900473ffffffffffffffffffffffffffffffffffffffff1673ffffffffffffffffffffffffffffffffffffffff16611a8d909392919063ffffffff16565b600061105782610bbf565b905080600860008473ffffffffffffffffffffffffffffffffffffffff1673ffffffffffffffffffffffffffffffffffffffff16815260200190815260200160002060010160008282546110ab919061235b565b9250508190555083600860008473ffffffffffffffffffffffffffffffffffffffff1673ffffffffffffffffffffffffffffffffffffffff1681526020019081526020016000206000016000828254611104919061235b565b9250508190555042600860008473ffffffffffffffffffffffffffffffffffffffff1673ffffffffffffffffffffffffffffffffffffffff168152602001908152602001600020600201819055508360066000828254611164919061235b565b92505081905550600760029054906101000a900460ff161561118b5761118982611b16565b505b8173ffffffffffffffffffffffffffffffffffffffff167f9e71bc8eea02a63969f509818f2dafb9254532904319f9dbda79b67bd34a5f3d856040516111d19190611ff8565b60405180910390a250506111e36118f8565b5050565b60086020528060005260406000206000915090508060000154908060010154908060020154905083565b61121961175a565b80600760016101000a81548160ff02191690831515021790555050565b606061124061175a565b600060098054905067ffffffffffffffff81111561126157611260612770565b5b60405190808252806020026020018201604052801561128f5781602001602082028036833780820191505090505b50905060005b60098054905081101561134157600981815481106112b6576112b56122fd565b5b9060005260206000200160009054906101000a900473ffffffffffffffffffffffffffffffffffffffff168282815181106112f4576112f36122fd565b5b602002602001019073ffffffffffffffffffffffffffffffffffffffff16908173ffffffffffffffffffffffffffffffffffffffff16815250508080611339906123b1565b915050611295565b508091505090565b6113516117d8565b611359611822565b600033905061136781610bbf565b600860008373ffffffffffffffffffffffffffffffffffffffff1673ffffffffffffffffffffffffffffffffffffffff16815260200190815260200160002060010160008282546113b8919061235b565b9250508190555060006113ca82610c3a565b90506000811161140f576040517f08c379a0000000000000000000000000000000000000000000000000000000008152600401611406906127eb565b60405180910390fd5b806005541015611454576040517f08c379a000000000000000000000000000000000000000000000000000000000815260040161144b90612857565b60405180910390fd5b6000600860008473ffffffffffffffffffffffffffffffffffffffff1673ffffffffffffffffffffffffffffffffffffffff1681526020019081526020016000206001018190555042600860008473ffffffffffffffffffffffffffffffffffffffff1673ffffffffffffffffffffffffffffffffffffffff168152602001908152602001600020600201819055506115308282600360009054906101000a900473ffffffffffffffffffffffffffffffffffffffff1673ffffffffffffffffffffffffffffffffffffffff166118729092919063ffffffff16565b806005600082825461154291906124d2565b925050819055508173ffffffffffffffffffffffffffffffffffffffff167f106f923f993c2149d49b4255ff723acafa1f2d94393f561d3eda32ae348f72418260405161158f9190611ff8565b60405180910390a250506115a16118f8565b565b6115ab61175a565b80670de0b6b3a764000081116115f6576040517f08c379a00000000000000000000000000000000000000000000000000000000081526004016115ed90612750565b60405180910390fd5b611645333084600360009054906101000a900473ffffffffffffffffffffffffffffffffffffffff1673ffffffffffffffffffffffffffffffffffffffff16611a8d909392919063ffffffff16565b8160056000828254611657919061235b565b925050819055503373ffffffffffffffffffffffffffffffffffffffff167f2da466a7b24304f47e87fa2e1e5a81b9831ce54fec19055ce277ca2f39ba42c4836040516116a49190611ff8565b60405180910390a25050565b6116b861175a565b600073ffffffffffffffffffffffffffffffffffffffff168173ffffffffffffffffffffffffffffffffffffffff161415611728576040517f08c379a000000000000000000000000000000000000000000000000000000000815260040161171f906128e9565b60405180910390fd5b61173181611965565b50565b600360009054906101000a900473ffffffffffffffffffffffffffffffffffffffff1681565b611762611c33565b73ffffffffffffffffffffffffffffffffffffffff16611780610e21565b73ffffffffffffffffffffffffffffffffffffffff16146117d6576040517f08c379a00000000000000000000000000000000000000000000000000000000081526004016117cd90612955565b60405180910390fd5b565b6117e0610cac565b15611820576040517f08c379a0000000000000000000000000000000000000000000000000000000008152600401611817906129c1565b60405180910390fd5b565b60026000541415611868576040517f08c379a000000000000000000000000000000000000000000000000000000000815260040161185f90612a2d565b60405180910390fd5b6002600081905550565b6118f38363a9059cbb60e01b8484604051602401611891929190612a4d565b604051602081830303815290604052907bffffffffffffffffffffffffffffffffffffffffffffffffffffffff19166020820180517bffffffffffffffffffffffffffffffffffffffffffffffffffffffff8381831617835250505050611c3b565b505050565b6001600081905550565b61190a611d02565b6000600160146101000a81548160ff0219169083151502179055507f5db9ee0a495bf2e6ff9c91a7834c1ba4fdd244a5e8aa4e537bd38aeae4b073aa61194e611c33565b60405161195b919061207b565b60405180910390a1565b6000600160009054906101000a900473ffffffffffffffffffffffffffffffffffffffff16905081600160006101000a81548173ffffffffffffffffffffffffffffffffffffffff021916908373ffffffffffffffffffffffffffffffffffffffff1602179055508173ffffffffffffffffffffffffffffffffffffffff168173ffffffffffffffffffffffffffffffffffffffff167f8be0079c531659141344cd1fd0a4f28419497f9722a3daafe3b4186f6b6457e060405160405180910390a35050565b611a336117d8565b60018060146101000a81548160ff0219169083151502179055507f62e78cea01bee320cd4e420270b5ea74000d11b0c9f74754ebdbfc544b05a258611a76611c33565b604051611a83919061207b565b60405180910390a1565b611b10846323b872dd60e01b858585604051602401611aae93929190612a76565b604051602081830303815290604052907bffffffffffffffffffffffffffffffffffffffffffffffffffffffff19166020820180517bffffffffffffffffffffffffffffffffffffffffffffffffffffffff8381831617835250505050611c3b565b50505050565b6000806001905060005b600980549050811015611bbf578373ffffffffffffffffffffffffffffffffffffffff1660098281548110611b5857611b576122fd565b5b9060005260206000200160009054906101000a900473ffffffffffffffffffffffffffffffffffffffff1673ffffffffffffffffffffffffffffffffffffffff161415611bac576000915060098054905090505b8080611bb7906123b1565b915050611b20565b508015611c2a576009839080600181540180825580915050600190039060005260206000200160009091909190916101000a81548173ffffffffffffffffffffffffffffffffffffffff021916908373ffffffffffffffffffffffffffffffffffffffff1602179055505b80915050919050565b600033905090565b6000611c9d826040518060400160405280602081526020017f5361666545524332303a206c6f772d6c6576656c2063616c6c206661696c65648152508573ffffffffffffffffffffffffffffffffffffffff16611d4b9092919063ffffffff16565b9050600081511115611cfd5780806020019051810190611cbd9190612ac2565b611cfc576040517f08c379a0000000000000000000000000000000000000000000000000000000008152600401611cf390612b61565b60405180910390fd5b5b505050565b611d0a610cac565b611d49576040517f08c379a0000000000000000000000000000000000000000000000000000000008152600401611d4090612bcd565b60405180910390fd5b565b6060611d5a8484600085611d63565b90509392505050565b606082471015611da8576040517f08c379a0000000000000000000000000000000000000000000000000000000008152600401611d9f90612c5f565b60405180910390fd5b6000808673ffffffffffffffffffffffffffffffffffffffff168587604051611dd19190612cf9565b60006040518083038185875af1925050503d8060008114611e0e576040519150601f19603f3d011682016040523d82523d6000602084013e611e13565b606091505b5091509150611e2487838387611e30565b92505050949350505050565b60608315611e9357600083511415611e8b57611e4b85611ea6565b611e8a576040517f08c379a0000000000000000000000000000000000000000000000000000000008152600401611e8190612d5c565b60405180910390fd5b5b829050611e9e565b611e9d8383611ec9565b5b949350505050565b6000808273ffffffffffffffffffffffffffffffffffffffff163b119050919050565b600082511115611edc5781518083602001fd5b806040517f08c379a0000000000000000000000000000000000000000000000000000000008152600401611f109190612dd1565b60405180910390fd5b60008115159050919050565b611f2e81611f19565b82525050565b6000602082019050611f496000830184611f25565b92915050565b600080fd5b600073ffffffffffffffffffffffffffffffffffffffff82169050919050565b6000611f7f82611f54565b9050919050565b611f8f81611f74565b8114611f9a57600080fd5b50565b600081359050611fac81611f86565b92915050565b600060208284031215611fc857611fc7611f4f565b5b6000611fd684828501611f9d565b91505092915050565b6000819050919050565b611ff281611fdf565b82525050565b600060208201905061200d6000830184611fe9565b92915050565b61201c81611fdf565b811461202757600080fd5b50565b60008135905061203981612013565b92915050565b60006020828403121561205557612054611f4f565b5b60006120638482850161202a565b91505092915050565b61207581611f74565b82525050565b6000602082019050612090600083018461206c565b92915050565b6000819050919050565b60006120bb6120b66120b184611f54565b612096565b611f54565b9050919050565b60006120cd826120a0565b9050919050565b60006120df826120c2565b9050919050565b6120ef816120d4565b82525050565b600060208201905061210a60008301846120e6565b92915050565b61211981611f19565b811461212457600080fd5b50565b60008135905061213681612110565b92915050565b60006020828403121561215257612151611f4f565b5b600061216084828501612127565b91505092915050565b600060608201905061217e6000830186611fe9565b61218b6020830185611fe9565b6121986040830184611fe9565b949350505050565b600081519050919050565b600082825260208201905092915050565b6000819050602082019050919050565b6121d581611f74565b82525050565b60006121e783836121cc565b60208301905092915050565b6000602082019050919050565b600061220b826121a0565b61221581856121ab565b9350612220836121bc565b8060005b8381101561225157815161223888826121db565b9750612243836121f3565b925050600181019050612224565b5085935050505092915050565b600060208201905081810360008301526122788184612200565b905092915050565b600082825260208201905092915050565b7f496e76616c696420616464726573730000000000000000000000000000000000600082015250565b60006122c7600f83612280565b91506122d282612291565b602082019050919050565b600060208201905081810360008301526122f6816122ba565b9050919050565b7f4e487b7100000000000000000000000000000000000000000000000000000000600052603260045260246000fd5b7f4e487b7100000000000000000000000000000000000000000000000000000000600052601160045260246000fd5b600061236682611fdf565b915061237183611fdf565b9250827fffffffffffffffffffffffffffffffffffffffffffffffffffffffffffffffff038211156123a6576123a561232c565b5b828201905092915050565b60006123bc82611fdf565b91507fffffffffffffffffffffffffffffffffffffffffffffffffffffffffffffffff8214156123ef576123ee61232c565b5b600182019050919050565b7f5769746864726177696e67206973207061757365642021000000000000000000600082015250565b6000612430601783612280565b915061243b826123fa565b602082019050919050565b6000602082019050818103600083015261245f81612423565b9050919050565b7f4e6f7420656e6f756768207374616b6564210000000000000000000000000000600082015250565b600061249c601283612280565b91506124a782612466565b602082019050919050565b600060208201905081810360008301526124cb8161248f565b9050919050565b60006124dd82611fdf565b91506124e883611fdf565b9250828210156124fb576124fa61232c565b5b828203905092915050565b7f496e76616c696420417079210000000000000000000000000000000000000000600082015250565b600061253c600c83612280565b915061254782612506565b602082019050919050565b6000602082019050818103600083015261256b8161252f565b9050919050565b600061257d82611fdf565b915061258883611fdf565b9250817fffffffffffffffffffffffffffffffffffffffffffffffffffffffffffffffff04831182151516156125c1576125c061232c565b5b828202905092915050565b7f4e487b7100000000000000000000000000000000000000000000000000000000600052601260045260246000fd5b600061260682611fdf565b915061261183611fdf565b925082612621576126206125cc565b5b828204905092915050565b7f4e6f7420656e6f75676820746f6b656e20737570706c79210000000000000000600082015250565b6000612662601883612280565b915061266d8261262c565b602082019050919050565b6000602082019050818103600083015261269181612655565b9050919050565b7f5374616b696e6720697320706175736564202100000000000000000000000000600082015250565b60006126ce601383612280565b91506126d982612698565b602082019050919050565b600060208201905081810360008301526126fd816126c1565b9050919050565b7f4d696e20616d6f756e74206973203120746f6b656e2100000000000000000000600082015250565b600061273a601683612280565b915061274582612704565b602082019050919050565b600060208201905081810360008301526127698161272d565b9050919050565b7f4e487b7100000000000000000000000000000000000000000000000000000000600052604160045260246000fd5b7f4e6f207265776172647321000000000000000000000000000000000000000000600082015250565b60006127d5600b83612280565b91506127e08261279f565b602082019050919050565b60006020820190508181036000830152612804816127c8565b9050919050565b7f4e6f7420656e6f75676820746f6b656e732c20747279206c6174657200000000600082015250565b6000612841601c83612280565b915061284c8261280b565b602082019050919050565b6000602082019050818103600083015261287081612834565b9050919050565b7f4f776e61626c653a206e6577206f776e657220697320746865207a65726f206160008201527f6464726573730000000000000000000000000000000000000000000000000000602082015250565b60006128d3602683612280565b91506128de82612877565b604082019050919050565b60006020820190508181036000830152612902816128c6565b9050919050565b7f4f776e61626c653a2063616c6c6572206973206e6f7420746865206f776e6572600082015250565b600061293f602083612280565b915061294a82612909565b602082019050919050565b6000602082019050818103600083015261296e81612932565b9050919050565b7f5061757361626c653a2070617573656400000000000000000000000000000000600082015250565b60006129ab601083612280565b91506129b682612975565b602082019050919050565b600060208201905081810360008301526129da8161299e565b9050919050565b7f5265656e7472616e637947756172643a207265656e7472616e742063616c6c00600082015250565b6000612a17601f83612280565b9150612a22826129e1565b602082019050919050565b60006020820190508181036000830152612a4681612a0a565b9050919050565b6000604082019050612a62600083018561206c565b612a6f6020830184611fe9565b9392505050565b6000606082019050612a8b600083018661206c565b612a98602083018561206c565b612aa56040830184611fe9565b949350505050565b600081519050612abc81612110565b92915050565b600060208284031215612ad857612ad7611f4f565b5b6000612ae684828501612aad565b91505092915050565b7f5361666545524332303a204552433230206f7065726174696f6e20646964206e60008201527f6f74207375636365656400000000000000000000000000000000000000000000602082015250565b6000612b4b602a83612280565b9150612b5682612aef565b604082019050919050565b60006020820190508181036000830152612b7a81612b3e565b9050919050565b7f5061757361626c653a206e6f7420706175736564000000000000000000000000600082015250565b6000612bb7601483612280565b9150612bc282612b81565b602082019050919050565b60006020820190508181036000830152612be681612baa565b9050919050565b7f416464726573733a20696e73756666696369656e742062616c616e636520666f60008201527f722063616c6c0000000000000000000000000000000000000000000000000000602082015250565b6000612c49602683612280565b9150612c5482612bed565b604082019050919050565b60006020820190508181036000830152612c7881612c3c565b9050919050565b600081519050919050565b600081905092915050565b60005b83811015612cb3578082015181840152602081019050612c98565b83811115612cc2576000848401525b50505050565b6000612cd382612c7f565b612cdd8185612c8a565b9350612ced818560208601612c95565b80840191505092915050565b6000612d058284612cc8565b915081905092915050565b7f416464726573733a2063616c6c20746f206e6f6e2d636f6e7472616374000000600082015250565b6000612d46601d83612280565b9150612d5182612d10565b602082019050919050565b60006020820190508181036000830152612d7581612d39565b9050919050565b600081519050919050565b6000601f19601f8301169050919050565b6000612da382612d7c565b612dad8185612280565b9350612dbd818560208601612c95565b612dc681612d87565b840191505092915050565b60006020820190508181036000830152612deb8184612d98565b90509291505056fea2646970667358221220a9d4328d91c494a9085405bb9ad94feca0818b256415fa13ed2e3e6269ee73f964736f6c63430008090033",
  "linkReferences": {},
  "deployedLinkReferences": {}
}